:020000040040BA
:10000000A02E4020C5184000C3184000C31840006F
:10001000C3184000C3184000C3184000000000008F
:10002000000000000000000000000000C3184000B5
:10003000C318400000000000C3184000C31840006F
:10004000C3184000C3184000C3184000C318400044
:10005000C3184000C3184000C3184000C318400034
:10006000C318400000000000791140008D114000CD
:10007000A1114000C3184000C3184000C31840003D
:10008000B5114000C9114000C3184000C31840001A
:10009000C3184000C3184000C3184000C3184000F4
:1000A000C3184000C3184000C3184000C3184000E4
:1000B000C3184000C3184000C3184000C3184000D4
:1000C000C3184000C3184000C3184000C3184000C4
:1000D00000000000C318400000000000C3184000EA
:1000E000C3184000C3184000C3184000C3184000A4
:1000F000C3184000C3184000C3184000C318400094
:10010000C3184000C3184000C3184000C318400083
:10011000C3184000000000000000000000000000C4
:10012000C3184000C3184000C3184000C318400063
:10013000C318400000000000C3184000C31840006E
:1001400010B5054C237833B9044B13B10448AFF311
:1001500000800123237010BDC00940200000000072
:10016000C47042000C4B43B10C480D4910B5AFF3BD
:1001700000800C48036823B910BD0A48036833B9EE
:100180007047094B002BF7D0BDE810401847064BCD
:10019000002BF5D0184700BF00000000C4704200DB
:1001A000C4094020C47042000000000010B510488F
:1001B000104B98473E2100200F4B98470F4CA0470B
:1001C0000028FCD00E4B98470E4A0F4B9A620F4CFA
:1001D000A0470028FCD002200D4B984700200D4B73
:1001E00098470D4B98470248024B984710BD00BFF7
:1001F00000A3E111991A400079124000CD1240008D
:10020000DD124000013F182000060E40ED124000B4
:10021000DD114000151240008D19400010B5044654
:10022000104B984780232360636843F001036360A9
:10023000636843F010036360636823F080036360C6
:1002400000212046084B9847636823F0020363604F
:10025000636823F00403636000212046034B984742
:1002600010BD00BF111640003D164000531640005F
:100270002DE9F04104460D46164615491846154B22
:100280009847074601231A4629682046DFF85C8014
:10029000C0470022296820460F4B9847FAB22968C8
:1002A00020460E4B98470822296820460C4B984759
:1002B0007208296820460B4B984786F0010202F02D
:1002C000010229682046084B9847BDE8F08100BF2D
:1002D00080D1F0082F1740001B1740004517400041
:1002E000D516400099164000B71640006D17400023
:1002F00008B5436813F0040F06D009680F2900D928
:1003000008BD064B984708BD09680329F8D80123A2
:1003100003FA01F1C943014B9847F1E73D1640004C
:100320001AB110B40C46114406E00020704714F8CE
:10033000013BC360A1420CD043F69923026912F03D
:10034000020FF4D1013BF9D16FF002005DF8044BCC
:1003500070470020FAE73AB170B415460C460D44D8
:10036000FF2640F2012112E000207047C66043F6EC
:100370009923026931EA020204D0013BF9D16FF0FE
:1003800002000EE0836804F8013BA5420BD043F65F
:100390009923026912F0020FE8D1013BF9D16FF005
:1003A000020070BC70470020FBE700002DE9F0411F
:1003B00080B90C469046002A0FDD8F18084E094D73
:1003C000306821462B6898470134BC42F8D140463A
:1003D000BDE8F0814FF0FF38F9E78046F7E700BF4E
:1003E000600E4020580E40200138022815D82DE913
:1003F000F0410E4614469AB10D46DFF838800C4F96
:10040000D8F8000015F8011B3B68984700280ADB64
:10041000A81B013CF4D1BDE8F0814FF0FF307047DC
:100420001046BDE8F0814FF0FF30BDE8F08100BF1D
:100430005C0E4020600E40202DE9F0414FF4004258
:100440009E4B5A60BFF34F8FBFF36F8F9C4B0022C0
:10045000C3F850225A6942F400325A61BFF34F8FF9
:10046000BFF36F8FD3F88070C7F34E3607F00700E5
:100470000430C7F3C907B7FA87FE0EF01F0EBFF3AB
:100480004F8F4FF0FF3404FA00FC06FA00F004FA34
:100490000EF407FA0EFE1D463A46734640EA030183
:1004A000C5F86012013A2344B2F1FF3FF6D1013E94
:1004B0006044B6F1FF3FEFD1BFF34F8F804B5A69D5
:1004C00042F480325A61BFF34F8FBFF36F8F7D4A82
:1004D0007D495160A1F580715160BFF34F8FBFF32B
:1004E0006F8FD3F8902222F00102C3F89022D3F844
:1004F000942222F00102C3F89422BFF34F8FBFF37E
:100500006F8F0A20714CA0470B20A0470C20A047FA
:100510001020A0471120A0476D4E4FF48078C6F8F8
:100520001080C6F8A080C6F830806A4C4FF4006591
:100530006561C4F8A0506566C4F890506565256291
:10054000C4F88450236F23F400632367636F23F49C
:1005500000636367C4F8C050C4F8D450C4F8B05006
:100560004FF400132366C4F8903063656362C4F8E7
:100570008030226F22F400122267626F22F4001290
:1005800062676360544AD2F8143143F01003C2F832
:10059000143102F5B22210231366C2F8903053656D
:1005A0005362C2F88030116F19431167516F1943BC
:1005B0005167536008222266C4F890206265626227
:1005C000C4F88020216F21F008012167616F21F0BC
:1005D0000801616762602366C4F8903063656362F6
:1005E000C4F88030226F22F010022267626F22F07E
:1005F00010026267636000234FF400524FF06051B5
:100600003046364FB84700234FF080424FF06051DC
:100610003046B8470123FF224FF000613046B8470B
:1006200001233F224FF000612D48B84701234FF4CA
:10063000C0324FF000612046B847012342464FF0D8
:1006400000613046B84701232A464FF0006130462A
:10065000B84701234FF400224FF000612148B8470A
:1006600000234FF400724FF080513046B8474FF4EA
:10067000007130461C4B98474FF0805174201B4C42
:10068000A0474FF080517520A0474FF08051762051
:10069000A0474FF080517B20A0474FF060511820B9
:1006A000A0474FF060510620A0474FF06051532003
:1006B000A04753200E4B9847BDE8F08150180E40DC
:1006C00000ED00E0000C0E400C08005AFD12400046
:1006D00000120E40000E0E4000800840810E4000C7
:1006E00000160E4000140E40890D4000890F400096
:1006F000510F400030B40468B4F5A07F02D340F23B
:100700003F1404601468B4F5A07F02D340F23F1494
:1007100014600C68B4F5F07F02D340F2DF140C6073
:100720001C68B4F5F07F02D340F2DF141C6004684B
:100730001568AC4201D9056014600A6818688242E5
:1007400001D908601A6030BC7047000010B582B053
:1007500006200A4B9847002303222C210848094C05
:10076000A04700230193019BFE2B05D8019B013379
:100770000193019BFE2BF9D902B010BD6D0F400013
:10078000008000406516400070B582B005460E46F8
:1007900014460620144B9847002303222946134889
:1007A000134DA84700230193019BFE2B05D8019B05
:1007B00001330193019BFE2BF9D90CB902B070BD36
:1007C00006200C4B98472246314608480A4B98476A
:1007D00000230193019B5E2BF0D8019B0133019311
:1007E000019B5E2BF9D9E9E76D0F400000800040C6
:1007F00065164000510F40002103400030B583B022
:1008000004460D4606200A4B98472A4621460948C9
:10081000094B984700230193019BFE2B05D8019BB0
:1008200001330193019BFE2BF9D903B030BD00BF0A
:10083000510F40000080004021034000014630B1CC
:10084000034A044B013BFDD19142FAD870477047EF
:10085000A1860100A086010000B583B058B94823E5
:100860008DF8073001220DF107013620044B98471F
:1008700003B05DF804FBE8238DF80730F2E700BF12
:100880008907400010B584B0ADF80E00013A02446B
:10089000ADF80C20ADF80A10013B1944ADF8081072
:1008A000030A8DF804308DF80500C2F307238DF894
:1008B00006308DF8072004220DEB02012A20104C8F
:1008C000A047002211461046A0479DF80B308DF836
:1008D00004309DF80A308DF805309DF809308DF808
:1008E00006309DF808308DF8073004220DEB020128
:1008F0002B20A047002211461046A04704B010BD8F
:100900008907400008B5002211462920014B98476D
:1009100008BD00BF8907400010B4C0F30744C0F30E
:100920000721064B03F570721C70597098700333E1
:100930009342F9D15DF8044B704700BFDC094020B9
:1009400010B584B0ADF80600ADF80410030A8DF8B8
:100950000C30C0B28DF80D008DF80E308DF80F0000
:10096000042203A92A200E4CA0470022114610465B
:10097000A0479DF805208DF80C209DF804308DF8D7
:100980000D308DF80E208DF80F30042203A92B2096
:10099000A047002211461046A04704B010BD00BF7A
:1009A000890740002DE9F04387B08146032706AE52
:1009B00046F8087D5D4D28465D4B9847002400941D
:1009C0005C4B3A4631462846DFF89881C0472246BC
:1009D00039462846584B984731462846574B984742
:1009E00001202860686122462146554EB047C82044
:1009F000544DA847224621461120B047C820A84799
:100A000081238DF80A308DF80B4010264FF0010835
:100A10004B4F254642460DF10A01FB20B8479DF891
:100A20000A3001338DF80A300395039BFE2B05D85D
:100A3000039B01330393039BFE2BF9D92A462946D6
:100A4000D320B8470620404B984742460DF1090194
:100A500036483E4B98470395039BFE2B05D8039BD6
:100A600001330393039BFE2BF9D99DF80930B34062
:100A70001C4342460DF10B01FB20B8470395039A36
:100A800040F6FE739A4206D81A46039B013303933D
:100A9000039B9342F9D9083E16F1080FBAD149F2E7
:100AA00088439C4203D0012007B0BDE8F08306AD27
:100AB000482305F8013D012229463620204EB04743
:100AC0006420204CA04704238DF8173001222946CA
:100AD000CF20B0476420A04706238DF817300122AD
:100AE00029463A20B0476420A0470022114613202F
:100AF000B0476420A047164B98476420A0470020C9
:100B0000144B98476420A047B9F80430B9F8002086
:100B100000210846104CA047D9F808000F4B984711
:100B2000002108460E4B98470020BDE7008000409A
:100B30001D024000002D3101D5164000F102400099
:100B4000890740003D084000510F40005703400016
:100B50000509400059084000850840001909400077
:100B60004109400071024000B0F5A07F0FD2B1F5FD
:100B7000F07F0CD208B589B280B2064B9847064B7D
:100B8000984703210548064B9847002008BD0120DF
:100B9000704700BF410940004D074000DC0940207C
:100BA000FD0740002DE9F04184B0039002910192CD
:100BB00004AA42F8103D134601AA02A903A8224C38
:100BC000A047BDF80C00BDF80810009B01335B1A6C
:100BD000019A0132121A9BB292B21C4CA0471C4BD4
:100BE00098470399019D691A009D0135029BED1AF2
:100BF00001FB0555174BA3FB05231B0A63B15C1EC4
:100C0000DFF858804FF47077134E39464046B047AE
:100C1000013CB4F1FF3FF8D10E49A1FB0531090AAF
:100C200001EB8101A5EB811101EB41010B480A4B5E
:100C300098474FF4F0734FF4A07200210846034C1C
:100C4000A04704B0BDE8F081F506400085084000EB
:100C50004D074000CDCCCCCCFD074000DC09402046
:100C60002DE9F04F85B0039002921378002B48D005
:100C70008B460190DFF8948033E00BF1100B039B5F
:100C8000019329E0013CB4F1FF3F09D02B782341C7
:100C900013F0010FF6D0AAEB04013046C047F1E78C
:100CA00007240BF10F0902E0013C012C09D07B78ED
:100CB000234113F0010FF7D0A9EB04013046C047E0
:100CC000F2E702350136009BB34202D007242F46DB
:100CD000DCE7019B0C330193029A12F8013F029268
:100CE0007BB10A2BC9D003EB8303074D05EB8303CC
:100CF000A3F52075019E33460A3300930BF1070AD2
:100D0000E4E705B0BDE8F08FC4834000690B400004
:100D100010B584B003900291013A10440190013B58
:100D2000194404AB43F8101D01AA02A903A8134CEF
:100D3000A047BDF80C00BDF80810009B01335B1AFA
:100D4000019A0132121A9BB292B20D4CA04703993C
:100D5000019A511A029A009B9A1A02FB01F202EBC5
:100D6000420206992C20074B98474FF4F0734FF43A
:100D7000A07200210846A04704B010BDF50640004F
:100D80008508400089074000016370474163704750
:100D90004264B1F1C05F3AD013D8B1F1006F25D0F1
:100DA000B1F1805F0AD1036F13430367436F416F53
:100DB0000B4023EA02034367426070470029FBD1DE
:100DC0007047B1F1205F21D009D8B1F1005FF3D1B4
:100DD000036F13430367436F13434367ECE7B1F1BA
:100DE000405F13D0B1F1605F10D0E5E710B4016F40
:100DF000046FD34321401C4619400167436F416F84
:100E00000B402340436742605DF8044B7047036F1B
:100E1000016F0B4023EA02030367436F13434367E9
:100E2000CAE7416412F0010F0DD1016612F00A0FFA
:100E30000BD0016212F0020F09D112F0080F08D096
:100E4000C0F8841005E04166F0E74162F2E7C0F8BF
:100E5000801041610160704710B4019C41644CB93D
:100E600001664BB101654AB94163016101605DF8FA
:100E7000044B70474166F4E74165F4E70163F4E72A
:100E800070B582B0054616461C46B1F1005F14D01D
:100E90000AD9B1F1405F24D0B1F1605F21D0B1F146
:100EA000205F17D000201AE0B1F1805F05D0B1F1CA
:100EB000C05F02D0B1F1006FF4D132462846114B29
:100EC000984714F0010F02D12E66012007E06E66EC
:100ED000012004E01A4631460B4B9847012002B02E
:100EE00070BD04F001030093C4F38003B1F1605FAF
:100EF00014BF0022012231462846044CA04701209D
:100F0000EDE700BF910D4000230E4000590E400058
:100F100012F0100F12D0C0F8B01012F0200F07D04E
:100F2000C0F8D41012F0400F05D0C0F8C0107047C0
:100F3000C0F8D010F6E7C0F8C4107047C0F8B4107D
:100F4000704701647047C06C7047806C7047000048
:100F5000054B03EB50135B0200F01F00012202FA65
:100F600000F01863704700BF07072000054B03EB34
:100F700050135B0200F01F00012202FA00F05863D8
:100F8000704700BF0707200070B582B00D46464C81
:100F900004EB5014640201F0F043B3F1005F59D048
:100FA0000AD8B3F1805F2FD0B3F1C05F3FD0B3F167
:100FB000006F16D0002012E0B3F1405F5DD0B3F1B6
:100FC000605F5AD0B3F1205FF4D100F01F01012619
:100FD0002A4606FA01F12046344B9847304602B0C3
:100FE00070BD00F01F000126864032464FF00061C0
:100FF00020462F4B984715F0010F02D1266601209D
:10100000EDE766660120EAE700F01F000126864052
:1010100032464FF080512046254B984715F0010F7E
:1010200002D126660120DAE766660120D7E700F0E4
:101030001F000126864032464FF0C05120461C4B0F
:10104000984715F0010F02D126660120C7E76666B2
:101050000120C4E700F01F000126864032464FF011
:1010600000512046124B984715F0010F02D1266619
:101070000120B4E766660120B1E705F0605200F098
:101080001F01012605EA06030093C5F38003B2F1B0
:10109000605F14BF0022012206FA01F12046054CD0
:1010A000A04730469BE700BF07072000230E400003
:1010B000910D4000590E40002DE9F041044688464C
:1010C0000E4B9847054620460D4B9847054013D0D8
:1010D0000C4C04F1600603E0B4420DD010345DB155
:1010E00020684045F8D161682942F5D0E368984707
:1010F000636825EA0305EFE7BDE8F081470F40008C
:101100004B0F40009C0D4020F8B5184C2668062E69
:101110002AD84FF0000C6446154F04E00134E4B2C5
:10112000A446A64209D3A64625017D598D42F5D194
:1011300007EB04156D689542F0D10D4D4FEA0E1E78
:1011400005EB0E0445F80E106260A3600699E1609D
:101150000136664505D011461A46064B98470020D1
:10116000F8BD02490E60F6E70120F8BD0C0E4020E4
:101170009C0D4020110F400008B50A210148024B88
:10118000984708BD000E0E40B910400008B50B216D
:101190000148024B984708BD00100E40B9104000AE
:1011A00008B50C210148024B984708BD00120E40BB
:1011B000B910400008B510210148024B984708BDFE
:1011C00000140E40B910400008B511210148024B2F
:1011D000984708BD00160E40B9104000032811D0F2
:1011E000042812D002280CBF4FF480710021084A55
:1011F000136B23F440730B431363936E13F0080FC8
:10120000FBD070474FF44071F1E74FF40071EEE707
:1012100000060E40174A136B23F070031843106347
:10122000936E13F0080F0AD14FF4805311498A6E60
:1012300012F0080F03D1013BF9D1012070470D4A8C
:10124000136B23F0030343F002031363936E13F055
:10125000080F0AD14FF4805306498A6E12F0080F26
:1012600005D1013BF9D101207047002070470020D3
:10127000704700BF00060E40A0B90E48036A09027D
:1012800089B20D4A1A400D4B1343194301620246BD
:10129000936E13F0010FFBD0064A116A084B0B4303
:1012A0001362704703490B6A064A1A40064B134300
:1012B0000B62704700060E40FCFFC8FF01003700BC
:1012C00000003701FCFFC8FE02003701024B986E98
:1012D00000F48030704700BF00060E404FF000520F
:1012E000014B9A62704700BF00060E40024B986E99
:1012F00000F00200704700BF00060E403F281ED8D5
:101300001F280CD8114B9A6901238340934318D0AE
:10131000012303FA00F00D4B1861002070472038BC
:101320000A4BD3F808210123834093430BD00123B8
:1013300003FA00F0054BC3F80001002070470120BC
:101340007047002070470020704700BF00060E4025
:1013500070470000104A136F23F4C00343F4800366
:101360001367116A0D4B0B431362936E13F0080F52
:10137000FBD04FF4FA7300BF013BFCD1064A136A5D
:1013800013F0080FFBD0044A136F23F4C00343F497
:1013900080031367704700BF00060E40040037004B
:1013A0002DE9F843431E042B00F20581DFE813F01A
:1013B0000500050013001300F400804A136923F0B0
:1013C0000403136101227E4B1A70BFF35F8F62B674
:1013D00030BFBDE8F883044603280CBF00204FF45B
:1013E0000010784B984772B6BFF35F8F0022744BA2
:1013F0001A700122744B1A70744B1F6A1D6B744A69
:10140000D2F800809E6A734A3A431A6205F00309D3
:10141000B9F1010F40F2898025F0030141F001018B
:1014200019631A46936E13F0080FFBD011F0700F7A
:1014300008D021F07001654B19631A46936E13F0C2
:10144000080FFBD0644B9847604A936E13F4003F3B
:10145000FBD05E4A116A614B0B4043F45C1313628C
:10146000936E13F4803FFBD028F47063584A1360E6
:10147000042C5CD0524C01232370BFF35F8F62B603
:10148000574B984772B6BFF35F8F0023237017F056
:10149000020F55D04D4A136A52491940524B0B4323
:1014A0001362116A514B0B4043F45C131362504BAF
:1014B0003340002B6ED046F00056444B9E62022112
:1014C000B9F1020F04D1414A936E13F0020FFBD021
:1014D0003E4A136B23F0700305F07000034313635F
:1014E000936E13F0080FFBD0394BC3F80080A3F5BF
:1014F000C0631D631A46936E13F0080FFBD0334A86
:10150000936E0B42FCD000222F4B1A70394B1B6894
:101510001BB198470022374B1A600122284B1A70E2
:10152000BFF35F8F62B6BDE8F88329467EE7A2F578
:10153000C062116A304B0B4043F45C13136299E7AD
:1015400017F0010FB3D0214B1B6A13F0010F0BD121
:101550001E490B6A294A1A40294B13430B620A465B
:10156000936E13F0010FFBD0184B1B6A13F0807FB2
:1015700008D1164A116A234B0B431362936E13F47E
:10158000803FFBD0114A116A184B0B4043F45C13A7
:1015900013628CE7002193E7084A136943F00403C0
:1015A0001361194A194B1A600122054B1A70BFF3D7
:1015B0005F8F62B630BFBDE8F88300BF00ED00E08A
:1015C0000A00402051134000100E402000060E403B
:1015D000000C0E4008003700DD124000FFFFC8FE7F
:1015E00055134000FCFFC8FE0200370187FFC8FF0B
:1015F0000000FF07140E4020FEFFC8FFFCFFC8FFDD
:101600000100370000003701040000A510180E404B
:1016100008B5074B984203D0064B984204D008BD4A
:101620001520054B984708BD2A20034B9847F6E73D
:101630000080004000800540FD124000436823F414
:10164000702343604368090401F470211943416029
:101650007047436823F07F434360436843EA016176
:101660004160704730B443F69924056915F0020FC4
:1016700003D1013CF9D101200CE0446814F0020FC1
:1016800006D0120402F4702211430BB141F08071B4
:10169000C160002030BC704732B900EB8100036BA1
:1016A00023F001030363704700EB8100036B43F0F9
:1016B00001030363704732B900EB8100036B23F031
:1016C00002030363704700EB8100036B43F00203E6
:1016D00003637047042A03D06AB1082A16D0704702
:1016E00000EB8100036B23F008030363036B43F0FB
:1016F00004030363704700EB8100036B23F00803CE
:101700000363036B23F004030363704700EB810062
:10171000036B43F008030363E1E700EB81010B6B0C
:1017200023F0F0030B630B6B1A430A637047431EED
:101730001944B1FBF0F0431EFE2B94BF00B24FF0F2
:10174000FF3070477AB110B4144600EB81010B6B87
:1017500023F47F430B630A6B42EA04220A630020EE
:101760005DF8044B70474FF0FF30704710B400EB4A
:101770008101086B80B208630C6B44EA036343EA9F
:1017800002430B635DF8044B7047436913F0020F8B
:1017900002D0C1610020704701207047436913F0F7
:1017A000010F03D083690B70002070470120704740
:1017B00010B40B01934214D9C9004B0803EBC202C9
:1017C000B2FBF1F2D3085C1E4FF6FE718C4201D9D8
:1017D000012017E0416841F4002141600CE0012044
:1017E00010E0590801EBC202B2FBF3F2D3085C1E11
:1017F0004FF6FE718C42F2D8120402F4E0221A4332
:10180000026200205DF8044B70470000084BC0F8EE
:10181000E43000234360436283628823036024230F
:1018200003604FF4807303604FF40023036070473C
:101830000041535570B505460C4616460F4B984768
:1018400000220F4B1A60A4B13246216828460D4B86
:101850009847024678B96368A1680B4321690B4336
:10186000E1680B4306490B6069680B436B601046E7
:1018700070BD0122FBE70122F9E700BF0D1840000F
:10188000180E4020B117400040230360704710231A
:1018900003607047436913F0020F04D0C1F30801DD
:1018A000C1610020704701207047436913F0010FA8
:1018B00005D08369C3F308030B6000207047012043
:1018C0007047FEE700B583B0254B264A9A4210D0F8
:1018D000254B234A9A420CD2013B9B1A23F0030367
:1018E000043313441F4951F8040B42F8040B9A4285
:1018F000F9D11E4B1E4A9A420AD2013B9B1A23F091
:10190000030304331344002142F8041B9342FBD128
:10191000184A194B23F07F039360EFF31083B3FA57
:1019200083F35B09019372B6BFF35F8F0022134B01
:101930001A700199124A136843F470031360BFF3DD
:101940004F8FBFF36F8F29B101220C4B1A70BFF379
:101950005F8F62B60B4B98470B4B9847FEE700BF73
:1019600000004020C4704200C00940209C0E40206E
:10197000C009402000ED00E0000040000A004020C7
:1019800088ED00E0791F4000191D40003B4B1B6BA8
:1019900003F00303012B1DD083B1022B36D0374B4C
:1019A0001B6B03F07003702B5FD0344B1A6B344900
:1019B000C2F302120B68D3400B607047314B5B6976
:1019C00013F0800F14BF4FF400424FF4FA422C4B37
:1019D0001A60E4E7294B1B6A13F0807F03D02A4A80
:1019E000274B1A60DBE7294A254B1A60234B1B6AF9
:1019F00003F07003102B05D0202BD0D1224A204BAE
:101A00001A60CCE7224A1E4B1A60C8E71B4B1B6AC0
:101A100013F0807F16D01C4A194B1A60174B1B6BB2
:101A200003F00303022BBAD1144A916A926A144854
:101A3000C1F30A41036801FB0333D2B2B3FBF2F3F3
:101A40000360ACE7114A0E4B1A600C4B1B6A03F0A3
:101A50007003102B05D0202BE0D10B4A084B1A60E5
:101A6000DCE70B4A064B1A60D8E7054A13680949B8
:101A7000A1FB03135B081360704700BF00060E4014
:101A80000C00402010180E40001BB70000093D005C
:101A900000127A00ABAAAAAA124B984211D9124B93
:101AA000984213D9114B984214D9114B984215D929
:101AB000104B984294BF4FF004220F4A0F4B1A600C
:101AC00070474FF080620D4B1A6070470C4A0B4B09
:101AD0001A6070470B4A094B1A6070470A4A074B55
:101AE0001A607047FF2C3101FF596202FF86930391
:101AF000FFB3C404FFE0F50500050004000C0E4030
:101B00000001000400020004000300040A4B1B68EB
:101B100053B1094B1B681A180849914208DB10465B
:101B2000054A106018467047054A034B1A60F0E7F3
:101B30004FF0FF30704700BF1C0E4020FCFF4520D7
:101B4000A03040204FF0FF3070474FF400534B60FF
:101B50000020704701207047002070470122014B90
:101B60001A707047200E4020F0B583B005460C4631
:101B7000002301932A4B984213D02A4B984218D045
:101B8000294B98421DD0294B9D4222D0284B9D4283
:101B900027D0284B9D422ED0274B9D4235D003B0F5
:101BA000F0BD1F46254E21463846B0470028FAD1E1
:101BB000E9E71F46214E21463846B0470028FAD1B2
:101BC000E4E71F461D4E21463846B0470028FAD1AB
:101BD000DFE71F46194E21463846B0470028FAD1A4
:101BE000DAE71E46164D01A93046A8470028FAD16B
:101BF000019B2370D3E71E46114D01A93046A8472B
:101C00000028FAD1019B2370C9E71E460C4D01A99B
:101C10003046A8470028FAD1019B2370BFE700BFD8
:101C200000080E40000A0E40001A0E40001C0E4034
:101C3000004002400080024000C002409D1740006A
:101C4000AB18400070B50C462A4B984213D02A4B73
:101C5000984219D0294B98421FD0294B984225D041
:101C6000284B98422BD0284B984231D0274B984292
:101C700037D0002070BD1E46254D21463046A8476E
:101C80000028FAD1012070BD1E46214D2146304664
:101C9000A8470028FAD1012070BD1E461C4D2146E0
:101CA0003046A8470028FAD1012070BD1E46184DC5
:101CB00021463046A8470028FAD1012070BD1E46B3
:101CC000144D21463046A8470028FAD1012070BDA6
:101CD0001E46104D21463046A8470028FAD1012063
:101CE00070BD1E460B4D21463046A8470028FAD14C
:101CF000012070BD00080E40000A0E40001A0E4080
:101D0000001C0E40004002400080024000C0024023
:101D10008B174000951840002DE98048C9B0DFF8C6
:101D20004092C8476A4B98470A206A4DA8470B2043
:101D3000A8470C20A8471020A8471120A8470E202C
:101D4000A847654F654B1F60654A664B1A60664A37
:101D5000664B1A604FF4E1330293C02303934FF4B0
:101D6000006604960024059406940E20A847604A55
:101D700002A938465F4B984738465F4B984738462C
:101D80005E4B9847DFF8DC81D8F800302146986830
:101D90005B4FB847D8F8003021465868B8475948D3
:101DA000594B984759484FF4A07303604FF4F073B0
:101DB0004360DFF8B4A1C0F808A0C0F80CA0544BF1
:101DC000984740F2DF1340F23F1221462046514F20
:101DD000B8475148DFF89481C047772340F23F125B
:101DE00021462046B84740F2DF1340F23F124FF43D
:101DF000B4712046B847494B0093812340F23F120B
:101E000032212046DFF868B1D8475046C04740F23B
:101E10003B1340F23F124FF496712046B8472046DC
:101E2000C04740F2E2723E4908A83E4B984708AAD4
:101E30004FF496710A203C4B9847C8474FF4004234
:101E40003A4B5A600C20A847394F23464FF4807212
:101E50004FF040513846DFF81C81C047354D012313
:101E600032464FF020512846C0474FF48071384623
:101E7000314B984731462846304B9847304B0093BA
:101E8000702332460A2128462E4DA8472E4B4FF488
:101E900080621A6083F80A432C4C2D4E01E0002327
:101EA000237002202B4B98472378002BF7D04FF458
:101EB00080713846204B98473046274DA8474FF44D
:101EC00080713846254B98473046A847E7E700BF62
:101ED00039044000FD12400000800240600E4020A6
:101EE000451C40005C0E4020691B4000580E4020FD
:101EF00080D1F00835184000891840008F18400044
:101F0000C1214000846D4200C91F4000640E402082
:101F1000A5094000A50B40004460FC00448B400034
:101F2000D86D420061234000610C400050180E4003
:101F300000120E40000E0E408D0D4000430F400079
:101F40005D1B40000911400000E100E0200E402030
:101F5000252B4D00A113400001004020890D4000B9
:101F6000AD01400010004020FCFCFC0019094000BD
:101F7000110D4000810E400070B50F4E0F4D761BC5
:101F8000B61018BF002405D0013455F8043B98471B
:101F9000A642F9D10A4E0B4D761B25F07DF8B610FE
:101FA00018BF002406D0013455F8043B9847A642D8
:101FB000F9D170BD70BD00BFA4704200A470420092
:101FC000AC704200A47042000FB400B5074983B062
:101FD00004AB086853F8042B8168019301F054FCAA
:101FE00003B05DF804EB04B0704700BF1000402060
:101FF000844641EA000313F003036DD1403A41D314
:1020000051F8043B40F8043B51F8043B40F8043BD2
:1020100051F8043B40F8043B51F8043B40F8043BC2
:1020200051F8043B40F8043B51F8043B40F8043BB2
:1020300051F8043B40F8043B51F8043B40F8043BA2
:1020400051F8043B40F8043B51F8043B40F8043B92
:1020500051F8043B40F8043B51F8043B40F8043B82
:1020600051F8043B40F8043B51F8043B40F8043B72
:1020700051F8043B40F8043B51F8043B40F8043B62
:10208000403ABDD2303211D351F8043B40F8043B02
:1020900051F8043B40F8043B51F8043B40F8043B42
:1020A00051F8043B40F8043B103AEDD20C3205D312
:1020B00051F8043B40F8043B043AF9D2043208D00A
:1020C000D2071CBF11F8013B00F8013B01D30B887C
:1020D00003806046704700BF082A13D38B078DD05A
:1020E00010F003038AD0C3F10403D21ADB071CBF2C
:1020F00011F8013B00F8013B80D331F8023B20F896
:10210000023B7BE7043AD9D3013A11F8013B00F8CE
:10211000013BF9D20B7803704B7843708B78837056
:102120006046704770B4860746D0541E002A41D0DE
:10213000CAB2034602E014F1FF343BD303F8012B8B
:102140009D07F8D1032C2ED9CDB245EA05250F2CD9
:1021500045EA054519D903F110022646103E0F2E17
:1021600042F8105C42F80C5C42F8085C42F8045CEF
:1021700002F11002F2D8A4F1100222F00F0204F0D2
:102180000F041032032C13440DD91E462246043A84
:10219000032A46F8045BFAD8221F22F00302043215
:1021A000134404F003042CB1C9B21C4403F8011B0E
:1021B0009C42FBD170BC704714460346C2E700BF87
:1021C00000290CBF022200224FF4806300F000B807
:1021D0002DE9F043614C256883B004460F469046D4
:1021E0001E4615B1AB6B002B64D0B8F1020F06D0C0
:1021F000B8F1010F00F29F80002EC0F29C80636E48
:10220000D80734D52146284603F09CFA216B41B10A
:1022100004F14003994202D0284603F011FC002348
:102220002363B4F90C300022A26162601A063AD42A
:1022300023F44A6323F00303B8F1020FA3811DD0F6
:1022400001AB6A462146284603F0A6FEA38918433F
:10225000A081002E32D1009E304603F015FF0746C4
:1022600000286BD0A38943F08003A38128E0A389D1
:102270009905C7D4A06D03F08BFEC3E70025616EFE
:10228000002604F1430243F002030120A660CE07BA
:10229000A38122602261606101D498053ED5284661
:1022A00003B0BDE8F0832169284603F0C9FBB4F907
:1022B0000C30BDE7284603F09DFA96E7002FCBD0FF
:1022C000AB6B002B33D0009BB4F90C2027609E42EF
:1022D0001CBF42F40062A281B8F1010F04BF42F0BA
:1022E0000102A28192B212F00803276166610ED04A
:1022F000D1071AD5656E7642002315F00105A66157
:10230000A36009D00025284603B0BDE8F083A36090
:10231000656E15F00105F5D19305C0D4A06D03F0ED
:1023200039FE284603B0BDE8F083A660F0E72846F2
:1023300003F060FAC7E74FF0FF35B0E7DDF8009033
:10234000B14504D0484603F09FFE074620B9B4F9D2
:102350000C304FF0FF3592E74E4683E710004020E7
:102360000EB4F0B59CB021AB0F4953F8042B019388
:1023700005466FF00044086802954FF402774FF667
:10238000FF7602A90695ADF8147004940794ADF891
:10239000166000F00BF8029B00221A701CB0BDE81A
:1023A000F04003B0704700BF100040202DE9F04F0F
:1023B000C3B00C460B9192460F930C9003F0D6FDE0
:1023C00003681A93184604F0FBFEA38919901906B6
:1023D00003D52369002B01F0038000230DF1C80908
:1023E0001393159314932793269318931B93099390
:1023F000CDF89490C846169317939AF80030544637
:10240000E3B1252B02D119E0252B03D014F8013FAD
:10241000002BF9D1A4EB0A0585B1269B279AC8F8B1
:1024200000A001332A44072BC8F8045027922693B2
:102430007FDC08F10808099B2B4409932378002BC3
:102440007FD000231A468DF8773019460D939B46AE
:102450004FF0FF3063780A9004F1010A0AF1010A93
:10246000A3F12000582800F2C183DFE810F0380201
:10247000BF03BF034002BF03BF03BF03BF03BF03CC
:10248000BF0345020302BF035D006B02BF03860268
:102490009D039D039D039D039D039D039D039D033C
:1024A0009D03BF03BF03BF03BF03BF03BF03BF033E
:1024B000BF03BF03BF0337035703BF035703BF0364
:1024C000BF03BF03BF039803BF03BF03AD03BF0335
:1024D000BF03BF03BF03BF035902BF03BF031E03F4
:1024E000BF03BF03BF03BF03BF03BF03BF03BF03DC
:1024F000BF03BF03C602DB025703570357038B0218
:10250000DB02BF03BF039002BF039D02CC01B402F4
:102510000802BF03E101BF037E00BF03BF030D023A
:102520000D980F9340420D904BF0040B9AF8003039
:1025300094E725AA0B990C9804F0B0FE40B9C84660
:1025400079E7279B23B10C980B9925AA04F0A6FEE6
:102550000B9B9B8913F0400F099B18BF4FF0FF3373
:102560000993099843B0BDE8F08F1BF0200F119339
:1025700040F0DD810F9A1BF0100F134640F06E857E
:102580001BF0400F00F06A851488043200250123F7
:102590000F9200278DF877700A994A1C00F0658227
:1025A0002BF08002079254EA050240F06482002971
:1025B00040F03C84002B40F0D7841BF001030E93C5
:1025C00000F0048642AE302306F8413D0A9B0E9A85
:1025D0009342B8BF134608930023129317B1089B88
:1025E00001330893079B13F00203109302D0089B5A
:1025F00002330893079B13F0840540F00E830D9B74
:10260000089AA3EB020BBBF1000F40F30683BBF16A
:10261000100F279C269A29DD43462146A8461027FD
:102620000C9C0B9D06E0ABF1100BBBF1100F03F1FE
:10263000080318DD0132B74826921031072A279186
:1026400083E88100EFDD25AA2946204604F026FE16
:1026500000287FF47DAFABF1100BBBF1100F279971
:10266000269A4B46E6DC45460C4698460132A94B75
:1026700026925C44072A279488E8080800F3988487
:102680009DF8777008F1080877B1269B0133013473
:102690000DF177010122072B2794269388E8060085
:1026A00000F3DB8308F10808109B6BB1269B013314
:1026B00002341EA90222072B2794269388E80600DD
:1026C00000F3D68308F10808802D00F015830A9BDB
:1026D0000E9A9F1A002F36DD102F269B8E4D27DD78
:1026E00042462146B0464FF0100B2E460C9C0B9DE7
:1026F00004E0103F102F02F1080215DD0133103104
:10270000072B2791269382E84008F2DD25AA294667
:10271000204604F0C3FD00287FF41AAF103F102FAD
:102720002799269B4A46E9DC35460C4646469046A4
:1027300001333C44072B2794269388E8A00000F33C
:10274000818308F10808079BDF0500F16882269B5A
:102750000E99C8F8006001330C44072B2794C8F881
:102760000410269300F34D8308F10808079B5B07CC
:102770003AD50D9B089A9D1A002D35DD102D269B0C
:1027800020DD10260C9FDDF82CB004E0103D102D4C
:1027900008F1080816DD01335E4A26931034072B32
:1027A000279488E84400F1DD25AA5946384604F00C
:1027B00075FD00287FF4CCAE103D102D279C269B84
:1027C000C846E8DC0133534A26932C44072B279450
:1027D00088E8240008DD25AA0B990C9804F05EFD1A
:1027E00000287FF4B5AE279C099B0D9A08998A4270
:1027F000ACBF9B185B180993002C40F00D8300239D
:102800002693C846F9E511931BF0200340F0E381BD
:102810001BF0100240F02E841BF0400300F02A84CD
:102820000F9913460A4604320C880F920025B0E631
:102830000F9A1193166800248DF87740151D002E0D
:1028400000F0A7860A9A531C00F0098621463046FC
:1028500003F0EEFE002800F0E186831B0E930A943D
:102860000F95CDF81CB023EAE373089312949DF8FA
:102870007770B3E69AF8003001222B21EEE54BF099
:10288000200B9AF80030E9E51193002A40F0958773
:10289000224B18931BF0200F40F011810F9A1BF070
:1028A000100F134640F0E1831BF0400F00F0DD8372
:1028B000043314880F9300251BF0010F00F00C81E6
:1028C00054EA050300F0088130239DF844208DF878
:1028D00078308DF879204BF0020B022359E69AF8F4
:1028E000003000297FF4BAAD01222021B6E54BF07B
:1028F000010B9AF80030B1E50F9C23680D93184640
:102900000028234603F10403FFF60AAE0F939AF85A
:102910000030A3E5386E4200486E4200186E420057
:102920004BF0100B1BF0200F11933FF423AE0F9DC3
:10293000073525F0070303F10802D3E900450F929C
:10294000012326E69AF800302A2B0AF1010400F050
:102950002787A3F130000928A24600F2AD860023A4
:102960001C461AF8013B04EB840400EB4404A3F179
:1029700030000928F5D90A9472E54BF0800B9AF8DB
:1029800000306BE54BF0400B9AF8003066E59AF8A2
:1029900000306C2B03BF9AF801304BF0200B0AF18A
:1029A000010A4BF0100B59E5002A40F011871BF08B
:1029B000200F40F0F9841BF0100F40F0AC841BF0A6
:1029C000400F00F0A8840F9A136804320F92BDF8EC
:1029D00024201A8011E50F99B34B0C68189330220C
:1029E000782304318DF8793011934BF0020B0F915D
:1029F00000258DF878200223CBE50F9911930A6802
:102A00008DF8A02000230A461F468DF87730043247
:102A100001230893CDF81CB00A9712970F920E93DA
:102A200028AEDFE51193002A40F0EA861BF0200F64
:102A30005DD11BF0100F40F008831BF0400F00F039
:102A400004830F99B1F900400431E51722462B4663
:102A50000F91002A73F1000358DB0A999DF87770F3
:102A60004A1C4FF001037FF49BAD54EA050200F0CD
:102A7000DF81CDF81CB0012B00F07B82022B40F0EF
:102A8000068218984E46230904F00F0143EA0573A5
:102A90002A091C461546435C06F8013D54EA050325
:102AA000F1D1A9EB06030E9390E51193002A40F0B3
:102AB000A3867E4B18931BF0200F3FF4EFAE0F9DC3
:102AC000073525F0070303F108021BF0010F0F92F1
:102AD000D3E900457FF4F4AE02235AE51193002AAE
:102AE00040F086864BF0100B1BF0200FA1D00F9DFD
:102AF000073525F00705D5E90023002A05F108016F
:102B00001D4673F100030F911446A6DA2D27644287
:102B100065EB45058DF8777001233DE51193002A9B
:102B200040F062860F9D073525F0070303F1080288
:102B30000F921A6815925B681493149B159D23F0ED
:102B40000044284621464FF0FF32594B05F074FAF5
:102B5000002840F04A83284621464FF0FF32544B6C
:102B600005F04CFA002840F0408315A80DC81499D0
:102B700005F03AFA002840F030859DF877704D4E08
:102B80004D4B2BF0800007901198032200210892F2
:102B90000A914728D8BF1E460E9212911EE54BF0AF
:102BA000080B9AF8003059E4A3F1300000231C46CA
:102BB0001AF8013B04EB840400EB4404A3F1300059
:102BC0000928F5D90D944BE44BF0100B11931BF031
:102BD00020033FF41DAE0F9D073525F0070303F1D9
:102BE0000802D3E900450F920023D2E41193002A92
:102BF00040F0E785119A002A3FF4A3AC002301219D
:102C00001F4608918DF8A020CDF81CB08DF87730C4
:102C10000A9312930E9128AEE4E4279C34E5119BAD
:102C2000652B40F3A78015A80DC8149905F0D2F9BB
:102C3000002800F05081269B204AC8F8002001336C
:102C400001340122072B27942693C8F8042000F3AF
:102C50006A8308F108081F9B139A279C934203DBA1
:102C6000079BDD077FF582AD269B19991A9AC8F854
:102C7000002001330C44072BC8F804102794269336
:102C800000F39E8308F10808139B5E1E002E7FF759
:102C90006DAD102E269B0A4D40F3F581224610277C
:102CA000DDF830B00B9C13E0186E4200046E420059
:102CB000FFFFEF7FF86D4200F46D4200346E42007A
:102CC000486E420008F10808103E102E40F3DA81E9
:102CD00001331032072B2792269388E8A000F1DDFC
:102CE00025AA2146584604F0D9FA00287FF430ACD2
:102CF000279A269BC846E7E70D9B089A9F1A002F44
:102D00007FF7E5AC102F269BB64D27DD42462146C6
:102D1000B0464FF0100B2E460C9C0B9D04E0103F6C
:102D2000102F02F1080215DD01331031072B279116
:102D3000269382E84008F2DD25AA2946204604F0C1
:102D4000ADFA00287FF404AC103F102F2799269B82
:102D50004A46E9DC35460C464646904601333C443B
:102D6000072B2794269388E8A00000F3328208F10D
:102D70000808ACE4139B269F012B40F3FE8101372A
:102D800001340123072F27942697C8F80060C8F85C
:102D9000043000F3038208F10808199A1A9BC8F856
:102DA000003001371444072F27942697C8F80420D1
:102DB00000F3008208F1080815A80DC8149905F061
:102DC00009F9139B002840F00181013B01370136CE
:102DD0001C44072F26972794C8F80060C8F80430D1
:102DE00000F3278108F108081B9AC8F8042001376E
:102DF000144421AB072F27942697C8F800307FF79B
:102E0000B3AC25AA0B990C9804F048FA00287FF47B
:102E10009FAB279CC846A9E425AA0B990C9804F0FF
:102E20003DFA00283FF4EBACFFF792BBDDF81CB095
:102E3000012B00F03481022B25D1CDF81CB00024E9
:102E400000251EE625AA0B990C9804F027FA002805
:102E50007FF47EAB279CC84675E425AA0B990C9895
:102E600004F01CFA00287FF473AB279CC8461BE4CF
:102E700025AA0B990C9804F011FA00287FF468AB8E
:102E8000279CC84620E4CDF81CB000240025494604
:102E900000E03146E20842EA4572E80804F0070320
:102EA00005461446303354EA050201F8013C01F1AD
:102EB000FF36EED1079AD2077FF5F3AD302B3FF402
:102EC000F0AD0239302306F8013CA9EB01030E9363
:102ED0000E46FFF77BBB1F99002940F32E82129B01
:102EE000139A9342A8BF1346002B1F460DDD269B65
:102EF000C8F8006001333C44072B2794C8F80470DD
:102F0000269300F31F8308F10808129B002FA8BF27
:102F1000DB1B002B1F4640F3D680102F269B314D24
:102F200040F3ED8142462146B0464FF0100B2E464D
:102F30000C9C0B9D04E00832103F102F40F3DB8106
:102F400001331031072B2791269382E84008F2DDE8
:102F500025AA2946204604F0A1F900287FF4F8AA02
:102F60002799269B4A46E7E70A9B0E934E46FFF7B2
:102F70002DBB002D08BF0A2CC0F08F804E46204686
:102F800029460A22002305F095F8303206F8012D73
:102F90002046294600230A2205F08CF804460D46F7
:102FA00054EA0503EBD1A9EB06030E93FFF70EBB22
:102FB00025AA0B990C9804F071F900287FF4C8AA8F
:102FC0009DF87770279CC846FFF75EBB5E1E002EFB
:102FD0007FF70AAF102E034D22DD22464FF0100B73
:102FE0000C9C06E0486E4200103E102E08F10808C6
:102FF00015DD01371032072F2792269788E8200821
:10300000F2DD25AA0B99204604F048F900287FF448
:103010009FAA103E102E279A269FC846E9DC144628
:1030200001373444072F2794269788E860007FF7FC
:10303000D9AE25AA0B990C9804F030F900287FF43A
:1030400087AA279C269FC846CEE60F9A1468134687
:103050000433E5170F9322462B46FAE404321C682A
:103060000F9201230025FFF794BA1C6804330F93D5
:10307000002521E40F990A4604320C680F920025BE
:10308000FFF787BA144601333444072B279426935D
:1030900088E860007FF768ABB3E6DDF81CB0CDF8D8
:1030A0001CB042AE3034012306F8414D0E93FFF7B9
:1030B0008DBA25AA0B990C9804F0F0F800287FF43B
:1030C00047AA279CC8461F9A139B9A4244DB079B3A
:1030D000D90741D4139B12989A1A1D1A9542A8BF7A
:1030E0001546002D0EDD2699C8F80450013106441E
:1030F0002C440729C8F800602794269100F33B82EE
:1031000008F10808002DACBF561B1646002E7FF7AD
:103110002DAB102E269BB04DB5DD22461027DDF8D5
:1031200030B00B9C04E008F10808103E102EA9DD19
:1031300001331032072B2792269388E8A000F2DD96
:1031400025AA2146584604F0A9F800287FF400AAD1
:10315000279A269BC846E8E7269B19981A99C8F82B
:10316000001001330444072B2794C8F80400269369
:1031700000F3F58108F10808ACE7079BDA073FF593
:10318000FEAD013701340123072F27942697C8F895
:103190000060C8F804307FF725AE4AE725AA0B99EE
:1031A0000C9804F07BF800287FF4D2A9279C269F76
:1031B000C846F2E525AA0B990C9804F06FF8002890
:1031C0007FF4C6A9279C269FC846F5E54E46FFF723
:1031D000FDB925AA0B990C9804F060F800287FF43B
:1031E000B7A9279CC846FFF772BA159C224620460D
:1031F000149C2346214604F01FFF002840F08682DD
:103200000A9B0133119B23F020030E9300F0E2810F
:10321000472B00F01E814BF480730793149B1F1EF5
:10322000159B0893BBBF3B4603F1004700232D23AA
:103230001093119B662B00F0BB81462B00F0DF80C2
:103240000E9B089A452B0CBF0A9B0A9D23A820A918
:1032500008BF5D1C049003911FA802213B46029009
:10326000019500910C9801F0A3FA119B672B06467B
:1032700040F0E0811BF0010F00F046827419169AAD
:103280000898179B394604F0A5FE002840F0658198
:10329000239BA34206D230215A1C23921970239BF0
:1032A0009C42F9D89B1B13930E9B472B00F0E9809F
:1032B000119B652B40F3CD81119B662B1F9B1293B5
:1032C00000F09E81139B129A1946914200F38A8165
:1032D0001BF0010F40F0138222EAE2730893672388
:1032E0000E921193109B002B40F0C4800A939DF81E
:1032F0007770FFF773B935460C4646469046013362
:103300003C44072B2794269388E8A0003FF7D1AED2
:1033100008F10808D7E60F9A136804320F92099A49
:103320001A60FFF76AB825AA0B990C9803F0B6FF4C
:1033300000287FF40DA9C8468DE4269B274AC8F8CB
:103340000020013301340122072B27942693C8F86B
:10335000042072DC08F1080829B9139B1BB9079BEC
:10336000D8077FF503AA269B19981A9AC8F8002057
:10337000013302462244072B2792C8F80400269303
:1033800000F38D8108F108080029C0F265811399C6
:10339000C8F8006001338C18072B27942693C8F8CF
:1033A00004107FF7E1A92CE50F9A09991368CD174E
:1033B0000846043229460F92C3E90001FFF71DB801
:1033C00025AA0B990C9803F069FF00287FF4C0A888
:1033D000279CC84658E400BF486E4200346E420045
:1033E00040210C9802F058FE0B9A106010610028E2
:1033F00000F0F2810B9A40235361FEF7EEBF23A841
:1034000020A90A9C049003911FA803210290089A06
:1034100001943B4600910C9801F0CAF925460646F6
:10342000119B462B06EB05047FF429AF3378302B34
:1034300000F078811F9D2C4421E725AA0B990C9858
:1034400003F02CFF00287FF483A81F99279CC8460F
:1034500082E70A9B002B08BF01230A93DBE6304674
:103460000A9403F0ADFE0F950E90CDF81CB0034604
:10347000FFF7F9B92D2700238DF877700A93FFF72E
:10348000AEB81F9B12931A46033304DB0A9B1946FE
:103490009142BFF617AF119B023B11939DF8443048
:1034A0008DF88430129B013B002B1F93BDBF129BF4
:1034B000C3F101032D222B22092B8DF8852040F327
:1034C00016810DF193042046AB4D00E0104685FBBC
:1034D0000312D917C1EBA20101EB8102A3EB420257
:1034E0003032092900F8012C0B4600F1FF32EDDCE7
:1034F00030330238D9B2844202F8011C40F26581AF
:103500000DF18600134601E013F8011B00F8011BC2
:10351000A342F9D101339B1A0DF18602134421AA6B
:103520009B1A139A1B93012A13440E9340F319819B
:103530000E9B199A13440E9323EAE3730893002316
:103540001293CFE625AA0B990C9803F0A7FE00284A
:103550007EF4FEAF279CC846D7E42346A2E625AA00
:103560000B990C9803F09AFE00287EF4F1AF1F9A95
:10357000279CC846AEE525AA0B990C9803F08EFE51
:1035800000287EF4E5AF1F9A139B279C9A1AC84621
:10359000B8E50A9B1296062B28BF06230A963746E3
:1035A00008930F95CDF81CB00E93744EFFF716B824
:1035B00023A820A90A9D049003911FA8032102902B
:1035C000089A01953B4600910C9801F0F1F80646E7
:1035D00044192BE706230A931DE62D278DF87770F3
:1035E000FFF7CDBA199A139B1344129A0E93002A2F
:1035F00040F3B08023EAE37308936723119371E6E5
:10360000002B40F3C3800A9A002A40F099801BF0F7
:10361000010F40F0958008930E9363E60A9B089390
:103620000E930A900F95CDF81CB012909DF877700C
:10363000FEF7D4BF119B472B7FF420AE1BF0010F88
:103640007FF4EEAE239B9B1B13930E9B472B3FF403
:1036500018AF1F9B129321E74F421031484D2FDACC
:103660001024DDF830B004E008F10808103F102FF6
:1036700026DD01331032072B27922693C8F800501D
:10368000C8F80440F0DD25AA0B99584603F006FE61
:1036900000287EF45DAF279A269BC846E6E725AA58
:1036A0000B990C9803F0FAFD00287EF451AF1F9996
:1036B000279A269BC84667E600200A90FEF7D0BEF0
:1036C00001333A44072B88E8A0002792269308F19B
:1036D00008087FF75CAE25AA0B990C9803F0DEFD75
:1036E00000287EF435AF279A269BC8464FE6303334
:1036F00030228DF887308DF8862022AB0FE7129BA1
:10370000199A13440E9375E7239BCBE5149B1D4E2A
:10371000002BB6BF2D279DF877708DF877701A4B68
:10372000FFF72FBA169A0898179B394604F052FCF7
:1037300000287FF47FAEC5F101051F952C449EE55E
:10374000129B199A13440A9A1A4422EAE2730E92BF
:103750000893C7E5129B0E9AC3F101031A4413465E
:10376000D0E71BF0010312937FF4E2AE0E9B23EA35
:10377000E3730893B6E500BF676666662C6E420089
:10378000486E4200006E4200FC6D42000A9B13B975
:103790001BF0010F02D0199B0133D4E701233AE754
:1037A0000F9D9AF80130286840EAE0700A90284698
:1037B0000430A2460F90FEF751BE8DF87710FFF748
:1037C00067B88DF87710FFF715BA0DF18603A6E6F6
:1037D0008DF87710FFF7EBB80C9A0C2313604FF0BD
:1037E000FF330993FEF7BDBE8DF87710FFF79AB946
:1037F0008DF87710FFF776B98DF87710FFF759B984
:103800008DF87710FFF712B92DE9F84F4B6E9C0435
:1038100093462FD59368126853B30E46074602F1BC
:10382000080919E920045FEA9A0817D0043D00242A
:1038300001E0A04510D0324655F8041F384602F08A
:103840007BF8431C04F10104F3D10023CBF80830CA
:10385000CBF80430BDE8F88FDBF808302AF0030A13
:10386000A3EB0A03CBF8083009F10809002BD8D1E3
:103870000020EAE702F0CAF90023CBF80830CBF8C1
:103880000430BDE8F88F00BF2DE9F04FADB01D4604
:103890008B4690460793069018B1836B002B00F07F
:1038A000F380DBF86430BBF90C00DF0781B202D48F
:1038B0008E0540F1FC808C040AD4DBF8643040F4BF
:1038C000005123F40053ABF80C10CBF8643089B2EC
:1038D000080740F1B380DBF81030002B00F0AE8019
:1038E00001F01A030A2B00F0B58000230DF17009D6
:1038F0000B93119310930393CDF83C90CA46CDF8E7
:1039000010B098F800304446FBB1252B02D11CE0E2
:10391000252B03D014F8013F002BF9D1A4EB0805A7
:103920009DB1109B119ACAF8008001332A44072BDD
:10393000CAF80450119210937ADD002A40F0B08446
:10394000039B10922B44CA4603932378002B00F06C
:10395000E08300204FF000038DF8373004F10108B8
:1039600062780546064603464FF0FF3408F1010829
:10397000A2F12001582900F2DE82DFE811F02102D5
:10398000DC02DC022902DC02DC02DC02DC02DC02FA
:10399000DC0289029502DC02A200BD02DC029F016A
:1039A000A401A401A401A401A401A401A401A401EF
:1039B000A401DC02DC02DC02DC02DC02DC02DC0250
:1039C000DC02DC02DC02B201DC02DC02DC02DC0232
:1039D000DC02DC02DC02DC02DC02DC029701DC023D
:1039E000DC02DC02DC02DC029B01DC02DC025302B2
:1039F000DC02DC02DC02DC02DC02DC02DC02DC02D7
:103A0000DC02DC025A021B02DC02DC02DC026E0277
:103A10001B02DC02DC027302DC02F50182010902F6
:103A2000D702DC029A02DC02A700DC02DC022E02D2
:103A30000AF1080A039B2B44039386E7594606982C
:103A400000F0ACFD18BBBBF80C1001F01A030A2BF8
:103A50007FF44BAFBBF90E30002BFFF646AFDBF81F
:103A60006430DB0705D48F0503D4DBF8580002F07F
:103A700091FA2B4642465946069800F04DFD0390B8
:103A800003982DB0BDE8F08F01F0B4FE09E7DBF834
:103A90006430D90704D4BBF80C309A0540F1AA84ED
:103AA0004FF0FF33039303982DB0BDE8F08FDBF8A0
:103AB000580002F06DFABBF90C0081B2FBE67642C9
:103AC000079243F0040398F800204FE708969E06FB
:103AD00000F150840799DD060A4600F1EF8358068D
:103AE00040F1EC830E8804310027012207914FF04A
:103AF00000018DF837100025611C00F0168123F0BD
:103B00008001029156EA070140F01481002C40F038
:103B10005C83002A40F0B78313F00103059300F0A3
:103B200057840DF1B00B30230BF8413D059BA342A8
:103B3000B8BF234601930DB101330193029B13F0EB
:103B40000203099302D0019B02330193029B13F0FD
:103B500084030A9340F01782089B019A9D1A002D56
:103B600040F31182102D40F39084109B119AC44EA3
:103B7000D6461027A2461946069C07E001F1020C22
:103B80000EF1080E0146103D102D11DD481C1032BB
:103B9000072811928EE8C0001090EFDD002A40F057
:103BA000E481103D102D11464FF0010CCE46EDDCA6
:103BB00054466146F2462A4407291192CAF8006029
:103BC000CAF80450109100F3EC829DF837500AF1C6
:103BD000080A481C002D40F0DE81099B002B00F0F4
:103BE000F88102320EA902230728119210908AE868
:103BF0000A0040F3EA81002A40F08C830A9B802B64
:103C00004FF001001146CA4640F0E781089B019D34
:103C10005E1B002E40F3E181102E9A4D40F350843C
:103C2000D4461027A246069C07E001F1020E0CF1D3
:103C3000080C0146103E102E11DD481C10320728DA
:103C400011928CE8A0001090EFDD002A40F09D82D8
:103C5000103E102E4FF0010E1146CC46EDDC5446BE
:103C6000E2463244BEF1070F11928AE86000CDF8B7
:103C700040E000F369830AF1080A0EF10100714681
:103C8000ABE1089613F0200240F08C8313F0100192
:103C900040F01A8313F0400200F0168307980A469A
:103CA0000146043106880791002720E7089643F073
:103CB0001003E7E7089643F0100308E743F080039A
:103CC00098F8002052E6A2F13001002618F8012BE6
:103CD00006EB860601EB4606A2F130010929F5D96B
:103CE00046E60896002840F0088443F010039E063C
:103CF00000F14C83DD0600F1F382580640F1F082BA
:103D0000079DB5F900602A46F71704323046394658
:103D10000792002871F10002C0F25D83611C9DF8DA
:103D200037504FF001027FF4EAAE56EA070100F087
:103D30004D820293012A00F08C82022A40F05C82BC
:103D40000B98CB46330906F00F0143EA07733A0993
:103D50001E461746435C0BF8013D56EA0703F1D1B6
:103D6000A9EB0B030593E1E6002840F0C083990618
:103D700000F16783DA0600F1F1805B0640F1EE8026
:103D8000079A136804320792BDF80C201A80B8E530
:103D900007983D4A08960B92066878223021043035
:103DA0008DF8392043F00203079000278DF8381072
:103DB00002229CE60896002899D08DF8375096E7A5
:103DC00098F80020002D7FF4D1AD01202025CDE50D
:103DD00043F0010398F80020C8E50896002840F059
:103DE000938329490B919F0600F1E8820798DE062C
:103DF000014600F170825D0640F16D820431068853
:103E000007910027D80740F1228256EA070100F007
:103E10001E8230218DF8392043F002038DF83810CE
:103E2000022264E60896002840F06B8317490B9144
:103E3000D9E7079908960A688DF848204FF00000E6
:103E40000A468DF837000432012001900792059050
:103E50000DF1480B0293002470E643F0400398F8FC
:103E6000002083E598F800206C2A03BF98F8012011
:103E700043F0200308F1010843F0100376E500BF8A
:103E8000586E4200686E4200186E4200046E420096
:103E900007990E680A46002E02F10402FFF60FAEE3
:103EA000079298F8002061E598F8002001202B2562
:103EB0005CE507990896D1F800B04FF000028DF844
:103EC00037200E1DBBF1000F00F0E582671C00F0EB
:103ED000C482224600215846019302F0A9FB019BAF
:103EE000002800F0E582A0EB0B02059207960293F2
:103EF0009DF83750002419E698F800202A2A08F186
:103F0000010700F0E982A2F130010929B8464FF01B
:103F100000043FF62DAD18F8012B04EB840401EBEF
:103F20004404A2F130010929F5D921E543F0200329
:103F300098F800201AE50896002840F0DB82002A55
:103F400000F0E78001218DF848204FF00002019138
:103F50008DF8372005910DF1480B7BE7079A136820
:103F600004320792039A1A60CBE40FAA0499204600
:103F7000FFF74AFC002840F039811099119A01F1AD
:103F8000010CCE46FFE51099119A481C9DF8375058
:103F9000002D3FF422AE01320DF137050121072833
:103FA00011921090CAF80050CAF8041040F308812A
:103FB000002A40F0BC81099B002B3FF41FAE0EABE2
:103FC000022208461C931D92CA4601460AF1080ABD
:103FD00001300A9B802B3FF419AE059BE41A002C9C
:103FE0002EDD102CB34D1EDDD6461026069FDDF8C3
:103FF00010A006E0881C0EF1080E1946103C102C8B
:1040000010DD4B1C1032072B11928EE860001093CC
:10401000F0DD002A65D1103C102C4FF00100114654
:10402000CE46EEDCF246224407281192CAF8005030
:10403000CAF80440109000F385800AF1080A0130A4
:104040000599CAF800B00A4407281192CAF804106A
:10405000109040F38280002A40F01881029B109259
:10406000580735D5089B01995C1A002C40F3E7806E
:10407000CA46102C40F3188210998F4E069FDDF827
:1040800010B0102506E0881C0AF1080A1946103CF9
:10409000102C11DD4B1C1032072B1192CAF8006056
:1040A000CAF804501093EEDD42BB103C102C4FF0C8
:1040B00001001146CA46EDDC224407281192CAF8D5
:1040C0000060CAF80440109051DD002A40F09B8146
:1040D000039B089A01998A42ACBF9B185B18039313
:1040E0004EE00FAA51463846FFF78EFB002840F0FD
:1040F0003F811099119A481CCE467FE70FAA594676
:104100003846FFF781FB60B91099119A481CCA46DE
:10411000BDE7119BDDF810B0002B40F0D4810023E7
:104120001093DBF8643013F0010FBBF80C3002D1B0
:104130009A0540F1DE805B063FF5B2AC03982DB0E6
:10414000BDE8F08F002A40F00681059A1D920123F8
:104150001192CDF870B01093CA460AF1080A029B7A
:10416000590704D5089B01995C1A002C81DC039B3C
:10417000089901988142ACBF5B181B18039372BB6E
:1041800000231093CA46FFF7BCBB0FAA0499204630
:10419000FFF73AFB50BB1099119A01F1010ECC4682
:1041A00048E5002A40F040819DF83710002900F0D2
:1041B0001B8101220DF1370110461D921C91CA4648
:1041C00001460AF1080A013007E5029B012A00F0C6
:1041D0009880022A0DD1029300260027B0E50FAA8D
:1041E00004990698FFF710FB0028C9D0DDF810B03D
:1041F00097E7029300260027494600E05946F20857
:1042000042EA4772F80806F00703074616463033BD
:1042100056EA070201F8013C01F1FF3BEED1029A98
:10422000D6077FF59DAD302B3FF49AAD0239302390
:104230000BF8013CA9EB010305938B4676E4039B45
:10424000089A8A42ACBF9B185B18039398E7022236
:104250004DE4002F08BF0A2E52D3CB4630463946D4
:104260000A22002303F026FF30320BF8012D3046DE
:10427000394600230A2203F01DFF06460F4656EA80
:104280000703EBD16CE50594CB464FE40FAA0499E4
:104290000698FFF7B9FA0028A8D1119ACA465EE736
:1042A0000FAA04990698FFF7AFFA00289ED1CA46D4
:1042B000FFF7C0BB686E4200586E420004311668BA
:1042C00007910122002712E407980146043106688D
:1042D000079100270BE40E6804310791002791E550
:1042E00007990E680A46F717043207923046394696
:1042F0000FE5DBF8580001F04DFEBBF80C301AE773
:10430000029B02930DF1B00B303601230BF8416D87
:1043100005930BE40FAA04990698FFF775FA002895
:104320007FF464AF1099119A481CCA4651E60FAA4F
:1043300004990698FFF768FA00287FF457AF1099A0
:10434000119A481CCA4648E4002A40F09180012096
:104350001146CA4641E60FAA04990698FFF754FA97
:1043600000287FF443AF1098119A0130CA4667E6DF
:10437000D346D6E6079E073626F0070202F108016B
:10438000D2E9006707910122FFF7B1BB079E07360C
:1043900026F00706D6E9000106F108020792064654
:1043A0000F46B6E4079E073626F0070202F1080121
:1043B000D2E9006707910022FFF799BB079E0736F5
:1043C00026F0070101F108000790D1E9006719E51F
:1043D000CB46FFF7ABBB2D25764267EB47078DF841
:1043E00037500122FFF788BB099BB3B91146012062
:1043F000CA46F2E5DBF8580001F0CCFD4FF0FF3380
:104400000393FFF750BB0FAA04990698FFF7FCF936
:1044100000287FF4EBAE119AA9E60EAB02221C93A2
:104420001D920120CA46D0E50FAA04990698FFF70D
:10443000EBF900287FF4DAAE1099119A481CCA46AD
:10444000A4E5079A03991368CD1708460432294654
:104450000792C3E90001FFF754BA58460796029342
:1044600002F0AEFE002405909DF83750FFF75EBBCA
:104470000FAA04990698FFF7C7F900287FF4B6AE93
:104480001099119A481CCA46A7E51099119A204E16
:104490000131FFF790BB062C28BF06240594079630
:1044A0000194DFF870B0D5E41098194E013003E69E
:1044B00005949DF83750079602930446FFF736BBE4
:1044C0008646FFF7CEBB06980FAA5946FFF79CF920
:1044D00000283FF424AE24E6079998F801200C68E0
:1044E000043144EAE474B8460791FFF73FBA8DF807
:1044F00037503CE48DF8375021E58DF83750FFF701
:10450000F4BB8DF8375091E48DF8375069E400BF63
:10451000586E42002C6E42002DE9F0410C46ADF57C
:104520008D6D8989666EE589199621F0020106462E
:10453000E069ADF80C1017464FF48061626AADF87F
:104540000E5098461AAD0023079016A809920693BC
:10455000009504950291059101F016FD43463A46F7
:1045600069463046FFF790F9051E07DB304669467D
:1045700001F0E8F8002818BF4FF0FF35BDF80C3007
:104580005B0603D5A38943F04003A381169801F08D
:10459000FDFC28460DF58D6DBDE8F08138B5304B3A
:1045A0001B6805460C4613B19A6B002A38D0B4F943
:1045B0000C2093B218070CD52069A8B113F00102A2
:1045C0001ED0636900225B42A361A260F0B10020AB
:1045D00038BDD9063CD5580726D4206942F00803D7
:1045E000A3819BB20028E9D103F42072B2F5007FC9
:1045F000E4D02846214601F0FDFCA3892069DDE7CF
:10460000990758BF6269A2600028E0D1B4F90C3064
:104610001A06DDD543F04003A3814FF0FF3038BDCB
:10462000184601F0E7F8C2E7216B51B104F14003ED
:10463000994204D0284601F003FAB4F90C20002373
:10464000236300232069636022F024022060C5E711
:1046500042F0400209232B604FF0FF30A28138BDA9
:1046600010004020024B13B1024800F005B870471B
:104670000000000065584000002301461A46184615
:1046800002F030BF02690B69934200F38D802DE97F
:10469000F04F03F1FF3801F1140700F1140B57F844
:1046A00028205BF828304FEA880483B00132B3FB3E
:1046B000F2F90BEB0403009407EB040A0193B9F140
:1046C000000F39D000252E46BC46DE465CF8044B70
:1046D000DEF80030A2B209FB0255220C2C0C09FBBB
:1046E0000242ADB2751B96B2C6EB134615FA83F3C0
:1046F00006EB23469BB243EA0643E2454FEA1245E6
:104700004EF8043B4FEA2646E0D2009B5BF80330AC
:1047100093B9019C231F9B450CD254F8043C4BB920
:10472000A4F1080302E01A68043B1AB99B4508F19A
:10473000FF38F8D3C0F81080044602F037FA00289A
:104740002EDB09F101095D46002357F8041B286898
:104750008AB29A1A0B0C12FA80F2C3EB104303EBE5
:10476000224392B242EA0342BA4545F8042B4FEA8B
:104770002343EAD25BF828200BEB880382B91A1F87
:1047800093450BD253F8042C42B9083B02E01A6857
:10479000043B1AB99B4508F1FF38F8D3C4F81080E0
:1047A000484603B0BDE8F08F0020704700000000CD
:1047B0002DE9F04F016C9BB00446279E92469B4624
:1047C00041B1426C4A60012393408B6002F016F8BD
:1047D00000232364BBF1000F5D4635DB002333600B
:1047E0009D4BAB4315D0504659460022002303F0A1
:1047F000F1FB804600282DD0269A01231360289BC8
:10480000002B00F0BD809548186001381BB0BDE852
:10481000F08F269A42F20F731360BAF1000F0DD198
:10482000C5F3130555B9289B8D48002BEED000F138
:104830000803289A13601BB0BDE8F08F289B8948B5
:10484000002BE3D0C31CF4E701232BF000453360B9
:10485000AB46C5E718AA19AB0192009352465B46D6
:10486000204602F043FA2B0D814671D0CBF31302A0
:1048700042F07F51189FCDF850805046A3F2FF368A
:1048800041F440110022784B02F088FF6CA3D3E979
:10489000002303F037F96CA3D3E9002302F080FF73
:1048A000CDE90201304603F0C7F869A3D3E900233C
:1048B00003F028F902460B46DDE9020102F070FF21
:1048C000CDE9040103F0CEFB002202900023DDE9D4
:1048D000040103F089FB002840F07381029D162D2E
:1048E00000F25D81614B03EBC503D3E90001524641
:1048F0005B4603F097FB002800F0C5816B1E029316
:1049000000230E93BF1B7B1E069300F154810023EE
:104910000893029B002BC0F24581069A0D93114625
:104920001944002306910C93249B092B2AD8052BAC
:1049300040F35B86043B24930025249B023B032B1E
:1049400000F24286DFE813F0D403C902DF036104FA
:10495000189F199E3E4406F23243202B40F38E816D
:10496000C3F1400306F212409D402AFA00F02843AA
:1049700003F052F80123013EA1F1F871149381E78D
:104980003B4843E7002161642046259101F010FF78
:104990004FF0FF330A93259A0F930123049020646C
:1049A00024920B93199B002BC0F2D980029A0E2AF5
:1049B00000F3D5802D4B03EBC203D3E90023CDE9EF
:1049C0000823259B002BC0F2BA83DDE90856504628
:1049D0002A463346594603F0BFF903F043FB8046AD
:1049E00003F02AF82A46334603F08CF80B460246B9
:1049F0005946504602F0D2FE049D08F130032B7058
:104A00000A9B012B06460F4605F1010568D00022DE
:104A1000184B03F077F80022002306460F4603F0F8
:104A2000D9FA002840F08880CDF82C904FF0000A89
:104A3000DFF840B00C94DDE9088928E0AFF300808E
:104A400061436F63A787D23FB3C8608B288AC63F94
:104A5000FB799F501344D33F0000F07F356E420036
:104A6000786E4200846E42000000F83FC06E420043
:104A7000346E42000000244003F044F8002200237A
:104A800006460F4603F0A6FA002840F0C1834246CE
:104A90004B463046394603F05FF903F0E3FA04462B
:104AA00002F0CAFF42464B4603F02CF802460B4682
:104AB0003046394602F072FE04F1300E049E05F8CD
:104AC00001EBA5EB060E0A9EB645CDE9060152465E
:104AD0005B46D1D1A046DDF82C900C9C06460F46D3
:104AE00032463B463046394602F05AFE06460F46ED
:104AF00002460B46DDE9080103F076FA48B9324672
:104B00003B46DDE9080103F065FAA8B118F0010F92
:104B100012D015F8018C049A6B1E04E09A4200F042
:104B2000018413F8018DB8F1390F03F10105F5D0B7
:104B300008F1010883F800804946204601F05EFE36
:104B40000022029B2A70269A01331360289B002BB7
:104B500000F09E8304981D601BB0BDE8F08F0B9A97
:104B6000002A3ED0249A012A40F311830A9B0C9A12
:104B70005F1EBA42C0F28F83D71B0A9B002BC0F284
:104B80008B84089D0A9B089A1A440892069A012170
:104B90001A442046069201F0CBFE064624E001238B
:104BA0000E93AFE6089A029BD21A5B420C93002345
:104BB00008920D93B8E6C7F101030893002306930A
:104BC000A7E6029D284602F037FF02460B46DDE9C4
:104BD000040103F0FFF900287FF480AE6B1E0293FE
:104BE0007CE60C9F089D0B9E002D0CDD069900298C
:104BF0000B4608DDA942089AA8BF2B46D21AED1A27
:104C0000CB1A089206930C9BD3B10B9B002B00F0A0
:104C1000B782002F10DD31463A46204601F024FFCE
:104C20004A4601460646204601F08CFE494680462B
:104C3000204601F0E3FDC1460C9BDA1B40F0A18247
:104C40000121204601F074FE0D9B002B80461CDDE7
:104C500001461A46204601F007FF249B012B80469F
:104C600040F3548200230C93D8F8103008EB8303F0
:104C7000186901F00DFEC0F1200010E0C3F120051D
:104C80000AFA05F074E60E903CE6249B012B40F3F3
:104C9000878200230C930D9B0120002BE4D1069A00
:104CA000104410F01F0000F0A180C0F12003042B7D
:104CB00040F39E84089BC0F11C00034408931346F4
:104CC000034405440693089B002B05DD49461A461C
:104CD000204601F019FF8146069B002B05DD414669
:104CE0001A46204601F010FF80460E9B002B40F034
:104CF00086800A9B002B40F366820B9B002B00F002
:104D00009880002D05DD31462A46204601F0FCFE44
:104D100006460C9B002B40F0378306960A9B049AAC
:104D2000DDF818B0013BD3180B930AF001030C9384
:104D30001746C24651464846FFF7A4FC3146054691
:104D4000484601F033FF5A460A905146204601F08A
:104D500049FFC268804605F13003002A40F02B82EB
:104D600001464846089301F021FF4146069020463F
:104D700001F044FD069A089B32B9249921B90C9A96
:104D8000002A00F0EF83249A0A990029C0F29F823A
:104D900005D1249919B90C99002900F09882002AAC
:104DA00000F306830B9A3B7007F1010897424546D2
:104DB00000F00C83494600230A22204601F028FD1A
:104DC0005E45814631464FF000034FF00A0220460F
:104DD00000F0EB8101F01CFD5946064600230A2233
:104DE000204601F015FD47468346A3E71C20089B9B
:104DF00003440893069B03440544069363E7414636
:104E0000484601F0D3FE0028BFF673AF029F494623
:104E100000230A222046013F029701F0F9FC0B9B78
:104E20008146002B40F0B6830F9B002B40F3BF83DD
:104E30000A93DDF810B00A9F5D4602E001F0E8FC3D
:104E4000814641464846FFF71DFC00F1300A05F84F
:104E500001ABA5EB0B03BB424FF00A024FF000037E
:104E600049462046EADB049B0A9A012AACBF9B18FC
:104E700001331D464FF0000B49460122204601F048
:104E800043FE4146814601F091FE002840F33D82F9
:104E900015F8012C04996B1E04E08B4200F0AE81E2
:104EA00013F8012D392A03F10105F6D001321A70E9
:104EB0004146204601F0A2FC002E3FF43DAEBBF17E
:104EC000000F05D0B34503D05946204601F096FCAB
:104ED0003146204601F092FC2EE600230B93029B04
:104EE000259A13440F930133012B1F461E460A9344
:104EF000B8BF01270021172F61640AD901220423BA
:104F00005B0003F114008742114602F10102F7D25F
:104F10006164204601F04CFC0E2E049020643FF6A4
:104F200041AD002D3FF43EAD02990029CDE910AB13
:104F300040F30282B84B01F00F020D1103EBC203E4
:104F4000E906D3E9006740F1AE81B44B50465946BB
:104F5000D3E9082302F000FFCDE9120105F00F05A7
:104F60004FF0030A8DB1DFF8B482EA0709D5304665
:104F70003946D8E9002302F0C5FD0AF1010A0646C8
:104F80000F466D1008F10808EFD13B463246DDE9C7
:104F9000120102F0E1FE074688460E9B43B1002253
:104FA0009F4B3846414603F01FF8002840F08682A8
:104FB000504602F041FD3A46434602F0A3FD994BAC
:104FC000002202F0EDFB0A9B0546A1F15076002B72
:104FD00000F03E81029B15930A9B12930B9B002BC2
:104FE00000F0FA81129A8C4B8F4903EBC20353E90C
:104FF0000223002002F0B0FE2A46334602F0CEFB28
:1050000082468B463846414603F02CF8054602F0AE
:1050100013FD02460B463846414602F0BFFB3035D1
:105020005FFA85F8049D06460F4685F80080024623
:105030000B4650465946013502F0F4FF002854D182
:1050400032463B460020764902F0A8FB02460B465A
:105050005046594602F0E6FF002840F07082129A4E
:10506000012A00F01181129B049ACDF84890134454
:1050700099460DE000206A4902F090FB52465B46DB
:1050800002F0B2FF002840F058824D4500F0FA804F
:10509000504659460022654B02F034FD0022634B16
:1050A00082468B463046394602F02CFD0F460646B6
:1050B00002F0D8FF804602F0BFFC02460B463046A5
:1050C000394602F06BFB08F130085FFA88F8524667
:1050D0005B4605F8018B06460F4602F085FF324617
:1050E0003B460028C6D0DDF84890159B029323E587
:1050F00000230B93259B002B40F3DC801F461E46AC
:105100000F930A93F6E601230B93F3E7BAF1000F2E
:105110007FF4A8ADCBF31303002B7FF4BAAD2BF0D3
:1051200000473F0D3F05002F00F00D82089B013323
:105130000893069B0133069301230C93ABE50A9B6E
:10514000002B3FF742AC40F021820022384BDDE9D2
:10515000080102F0D7FC52465B4602F059FFDDF829
:1051600028804646002841D0259B049DDB430293BE
:105170004146204601F042FB002E3FF4DDACA7E69D
:105180000C9A4946204601F06FFC814658E5149A76
:10519000002A00F0878103F233430C9F089DF2E45C
:1051A000BAF1000F7FF475ADB4E701F031FB47466B
:1051B00006468346BEE501462046069301F01EFBE7
:1051C0000122069BE0E5249B022B7FF796AD0A9B0C
:1051D000002BC9D141460522204601F019FB0146AA
:1051E0008046484601F0E2FC0028BDDD029A0499A1
:1051F0003123013202920B704D1CB9E7029A013241
:105200000292049A3123137052E601230B9366E64F
:10521000DDF82C900C9C8FE4C06E4200986E42002A
:105220000000F03F00001C400000E03F0000244070
:1052300000001440504602F0FFFB3A46434602F09D
:1052400061FC0022C14B02F0ABFA0546A1F1507699
:1052500041460022BE4B384602F0A0FA2A463346A9
:1052600082468B4602F0DEFE8046002840F0108128
:105270002A4606F100435046594602F0B5FE18B1E1
:10528000464671E7DDF84890DDE910ABFFF78ABBD1
:105290000498FFF7BBBA0C9B0D9A0C97FB1A1A44A3
:1052A0000D92002769E4DDE910234FF0020ACDE9F1
:1052B000122357E60021012361642046259301F063
:1052C00077FA259B049020640A930F9329E6002A1D
:1052D000D046CDF818B09A4611DD49460122204645
:1052E00001F012FC4146814601F060FC002840F3C9
:1052F0004681BAF1390F00F0068105F1310AB34653
:1053000087F800A07D1C069ED2E504D11AF0010F9B
:1053100001D0BDE5154615F8013C302B05F1FF32F3
:10532000F8D0C5E5049930220A70029A15F8018C6C
:1053300001320292FFF7FCBB00F0BB80029B5D4292
:10534000844B05F00F0203EBC203D3E90023DDE930
:10535000100102F0D7FB2D110746884600F02C8182
:105360007D4E4FF0020AEB0709D538464146D6E993
:10537000002302F0C7FB0AF1010A074688466D10B8
:1053800006F10806EFD108E67168204601F010FA30
:10539000336902339A00054606F10C010C30FCF724
:1053A00027FE29460122204601F0AEFB0690B5E417
:1053B000392BCDF818B0D04600F0A58003F1010AD2
:1053C000B34687F800A07D1C069E71E55A46D0467C
:1053D000B3469A4616464FE5129B5E4901EBC30160
:1053E0002A46334651E9020102F08CFBCDE9160151
:1053F0003846414602F036FE054602F01DFB0B46DC
:1054000002464146384602F0C9F9129B0F460499FC
:105410003035012B0D70064601F1010526D0129B97
:10542000049ADFF83CB1CDF8489013444FF0000ADD
:10543000994652465B463046394602F063FB0F46BA
:10544000064602F00FFE804602F0F6FA08F1300838
:1054500002460B463046394602F0A0F905F8018BAA
:105460004D4506460F46E4D1DDF848903B4B0022FF
:10547000DDE9160102F094F932463B4602F0B4FD34
:10548000002846D0159B029315F8018CFFF743BB0B
:105490004FF000084646A9E6089B0A9A9D1A002389
:1054A000FFF771BB189B0C9F089DC3F13603FFF7F4
:1054B0006ABBDDE910784FF0020A6EE50A9B002B0B
:1054C0003FF4B8AE0F9B002B7FF7DEAE0022244BDB
:1054D0003846414602F016FB074688460AF10100AD
:1054E00002F0AAFA3A46434602F00CFB0022174BA0
:1054F00002F056F9029A0F9B1293013A0546A1F168
:10550000507615926AE53922B3463A70069E7D1CA4
:10551000C0E4DDE916230020104902F03FF93246CD
:105520003B4602F07FFD08B9AEE6154615F8013C92
:10553000302B05F1FF32F8D0D7E5DDF84890159B08
:105540000293FFF7E8BA0C97FFF7A5BB00001C40D9
:1055500000001440C06E4200986E42000000E03F20
:1055600000002440392BCDF818B0D046DDF828B023
:105570009A46C8D0BBF1000F3FF7BFAEBFE67FF43D
:10558000BEAE1AF0010F3FF4BAAEB2E64FF000081B
:105590004646E9E5314600230A22204601F038F963
:1055A0000F9B002B06460ADD0A93FFF7AABB249B3C
:1055B000022B23DC0F9B3BE44FF0020AEDE4249B1B
:1055C000022B1BDC0F9BEFE7002565642946204674
:1055D00001F0EEF84FF0FF330A930F93012304908C
:1055E000259520640B93FFF7DDB90125FFF7A5B9D9
:1055F0003FF469ABC0F13C00FFF7F9BB0F9B0A9386
:10560000E5E500BFB1F90C309AB22DE9F0410D4645
:10561000110780463AD46A6843F40063002AAB81DC
:105620006FDDAC6A002C49D000229BB2D8F8006034
:10563000C8F8002013F4805267D02A6D5F0705D5A3
:1056400069682B6B521A0BB1EB6BD21A0023E96914
:105650004046A047441C3CD0B5F90C302A692A606A
:1056600023F400630022AB81DB046A6047D4296B1A
:10567000C8F8006011B305F14003994202D04046DA
:1056800000F0DEF900202863BDE8F0812E69AEB19C
:105690002C682E6091070CBF6B690023A41BAB60C4
:1056A0000AE0234632466F6AE9694046B847002857
:1056B000A4EB0004064404DD002CF2DC0020BDE86D
:1056C000F081AB8943F04003AB814FF0FF30BDE880
:1056D000F081D8F800401D2CF3D8194BE340DB4390
:1056E00013F00103EDD1B5F90C206B6022F40063D7
:1056F0002969AB81DA042960B9D5002CB7D12865B6
:10570000B5E7EA6B002A8CDCD8E70123E96940465B
:10571000A047431C024602D0AB89AC6A8EE7D8F89A
:105720000030002BF8D01D2B01D0162B02D1C8F869
:105730000060C3E7AB8943F04003AB81BDE8F08173
:105740000100402038B50D46044608B1836BBBB15B
:10575000B5F90C0088B16B6EDB0701D4810517D554
:1057600020462946FFF74EFF6B6EDA07044602D447
:10577000AB899B0507D5204638BD0446204638BD79
:1057800000F038F8E4E7A86D00F004FC204638BDCE
:10579000A86D00F0FDFBE3E7014900F0AFBB00BFDF
:1057A0002D76400010B5002304468181C28103603C
:1057B0004360836043660361436183611946082245
:1057C0005C30FCF7AFFC07480749084A084B2062E9
:1057D000E4616162A262E36204F15800BDE8104036
:1057E00000F0D2BB15714000397140007571400066
:1057F0009571400010B50446124800F0C9FBA26B39
:10580000D2B904F53B731048C4F8E8320321C4F858
:10581000E022E063C4F8E41260680421FFF7C2FFED
:1058200001220921A068FFF7BDFF02221221E068D2
:10583000FFF7B8FF0123A3630248BDE8104000F062
:10584000A9BB00BF800E402099574000014800F0DE
:105850009FBB00BF940E4020014800F09BBB00BFDF
:10586000940E402038B50A4C0A4D641BA4100AD08F
:1058700004F18043013B05EB8305013C55F80439F5
:105880009847002CF9D1BDE8384021F00FBC00BF8B
:10589000BC704200B87042002DE9F04782B08046EB
:1058A0008946144600F054FB012836D04A4604F1DC
:1058B0005C0301A9404601F0C7FD421C064625D005
:1058C000A8B39DF804E000250DF1040A09E023685F
:1058D0005A1C226083F800E00135B54227D215F842
:1058E0000AE0A368013B002BA360F0DAA769BB4282
:1058F00071462246404602DBBEF10A0FE7D101F0B5
:105900004BFD431CE8D102B0BDE8F087A38943F00A
:105910004003A38102B0BDE8F08709F1FF33FE2BFD
:10592000C4D85FFA89FE06468DF804E0CBE7484606
:1059300002B0BDE8F08700BF30B5536E13F0010F21
:10594000B2F90C30144683B005469AB201D19005E5
:105950001CD5900406D4626E43F4005342F4005206
:10596000A381626628462246FFF796FF636EDA0738
:10597000054602D4A3899B0502D5284603B030BD55
:10598000A06D00F007FB284603B030BDA06D01916B
:1059900000F0FEFAB4F90C3001999AB2D9E700BFD1
:1059A000F8B5244F0C46064600F0F6FEBB685D686D
:1059B000C4F57E610F3125F00305294421F47F6190
:1059C00021F00F01A1F58054B4F5805F07DB0021C1
:1059D000304601F08DFBBB682B44984204D0304622
:1059E00000F0E0FE0020F8BD6142304601F080FB8F
:1059F00001300DD0104BBA6819682D1B45F0010518
:105A00003046091B5560196000F0CCFE0120F8BD3E
:105A10000021304601F06CFBBA68831A0F2BDEDDE3
:105A2000064C0549246843F00103001B53600860DD
:105A3000D5E700BFB0054020240E4020B809402023
:105A4000002944D02DE9F0410D46804600F0A4FE27
:105A500055F8047C694927F00103A5F10804E21810
:105A60008E685068B24220F003005ED0FE0750609E
:105A70000BD455F8087CE41B01F1080EA5687545A8
:105A80003B446DD0E768EF60BD6015186D68ED07A9
:105A90003ED543F001026260E350B3F5007F17D2B8
:105AA000DB08581C9A104D6851F83070A76001232C
:105AB000934001EBC0022B43083AE2604B6041F88F
:105AC0003040FC604046BDE8F04100F06BBE7047DE
:105AD0005A0A042A52D89A0902F13907FF0002F142
:105AE0003805C819CA59083890424FD0516821F07A
:105AF00003018B4232D292689042F7D1C368A06012
:105B0000E3609C60C4604046BDE8F04100F04ABEDE
:105B100095683B4FBD42034440D0D068E86043F0F5
:105B2000010285606260E350B7E7FF07034407D4D2
:105B300055F8082CA41A1344A068E268C26090606B
:105B4000304A126843F00100934260608C60B9D320
:105B50002D4B40461968FFF723FFB3E71046CDE70A
:105B600011184968C90744D49168D268CA600344CF
:105B700043F0010091606060E350A3E7142A16D857
:105B800002F15C07FF0002F15B05AAE7AA100123FE
:105B90004D6893402B434B600346B0E743F001024E
:105BA0004C610C61E560A5606260E3508AE7542AAD
:105BB00006D81A0B02F16F07FF0002F16E0590E79D
:105BC000B2F5AA7F06D8DA0B02F17807FF0002F1DE
:105BD000770586E740F25450824206D89A0C02F1CB
:105BE0007D07FF0002F17C057BE74FF47E777E2581
:105BF00077E743F001016160136063E7B00540207F
:105C0000B8054020BC094020540E40209368002B6A
:105C100073D02DE9F04F8B8983B00C4619070090A3
:105C2000164626D5226922B313F0020035682CD01F
:105C30004FF00009B04FC846B246B84543464A4601
:105C400028BF3B460098B8F1000F50D0E169666A62
:105C5000B047002858DDDAF808301B1A8144A8EB59
:105C60000008CAF80830002BE7D1002003B0BDE8D7
:105C7000F08F21460098FEF791FC002840F0338118
:105C8000A389356813F00200D2D113F0010945D180
:105C90004F46019637B39A05D4F8088040F18380C7
:105CA0004745C346C0F0AB8013F4906F40F0AC8022
:105CB0002068BA465A46494600F00AFDA2682368A1
:105CC000A2EB08025B44A2602360019A9368A3EBF5
:105CD0000A03D144A7EB0A079360002BC5D0A38920
:105CE000002FD8D1D5F800906F680835D2E7D5F8E5
:105CF0000090D5F8048008359FE7002070472146C2
:105D00000098FFF71FFD70B3B4F90C3043F0400367
:105D10004FF0FF30A38103B0BDE8F08F81463346DA
:105D20004E46A8469A464D464EB380B32068236936
:105D30006269B145CB4628BFB34698425F4604D955
:105D4000A36813449B4500F3A68093454BDB1346A1
:105D5000676AE16900982A46B847071ED4DDB9EBA7
:105D60000709CCD00120DAF80830DB1B3D44F61BD4
:105D7000CAF80830002B3FF478AF002ED5D108F1D7
:105D8000080313E9600098460833002EF9D0324624
:105D90000A21284600F04CFC002800F0A1800130C8
:105DA000A0EB0509C2E720682369984202D863691D
:105DB0009F425DD2B84528BFB8464246494600F0EA
:105DC00087FCA3682268A3EB08034244A360226017
:105DD0000BB1C24679E721460098FFF7B3FC0028D3
:105DE00092D1C24671E75A46294600F071FCA2687A
:105DF0002368A2EB0B025B44A2602360AFE720683C
:105E0000B846BA46BB4655E762692068216902EB8D
:105E10004208A0EB010A08EBD8780AF101004FEA2A
:105E2000680838444045424684BF804642465B0588
:105E300044D51146009800F02FF98346002855D02C
:105E400052462169FCF7D4F8A38923F4906343F008
:105E50008003A3810BEB0A00A8EB0A03C4F810B07F
:105E6000C4F814802060A360B846BA46BB4621E758
:105E70006FF00041B94228BF39464A4691FBF3F121
:105E80000098666A03FB01F3E169B047B0F1000ACC
:105E90003FF71BAF38E71A462946019300F018FC7C
:105EA0002268019B00981A4422602146FFF74AFCB1
:105EB000019B00287FF428AF1F4650E7009800F0B0
:105EC00071FF83460028C5D1009D21692846FFF750
:105ED000B7FDB4F90C300C2223F080032A6015E7DB
:105EE00006F1010922E74FF0FF30BFE6009A0C23CC
:105EF0001360B4F90C3009E700FCFF7F2DE9F8438B
:105F000010F538771FD0884606464FF000097D68A7
:105F1000BC68013D11D4A389012B05F1FF3508D9D7
:105F2000B4F90E3001332146304602D0C04749EA69
:105F300000096B1C04F16804EDD13F68002FE6D125
:105F40004846BDE8F883B9464846BDE8F88300BF37
:105F5000044B054A1B685B6B002B08BF134693F884
:105F6000280170471000402044044020044A054B9B
:105F70001268506B002808BF1846F030704700BF09
:105F80001000402044044020704700BF704700BF0D
:105F9000704700BF704700BF70B50C46B1F90E10D6
:105FA000002990B015461E4614DB01AA01F0A0FBA3
:105FB00000280FDB029A02F47042A2F50052B2FAF6
:105FC00082F252094FF480634FF4006032602B601C
:105FD00010B070BDA289002312F08000336004D09D
:105FE000402218462A6010B070BD4FF480632B60C9
:105FF00010B070BD8A8992070B4606D501F14302A5
:1060000001211A601A6159617047F0B583B001AB84
:106010006A460C460646FFF7BFFF00990546304624
:1060200000F03AF8B4F90C30D8B1019A154F009944
:10603000F76343F08003A3812060206161611AB996
:106040002B43A38103B0F0BD3046B4F90E1001F02C
:1060500063FBA0B1A38923F0030343F001031BB248
:10606000EEE79A05EED423F0030304F1430243F074
:1060700002030121A381226022616161E2E7B4F998
:106080000C30DDE799574000024B0146186800F0DC
:1060900003B800BF100040202DE9F04F01F10B06BE
:1060A000162E83B0054640F29E8036F0070600F1BA
:1060B000BD80B14200F2BA8000F06EFBB6F5FC7F05
:1060C000C0F09382730A00F0B880042B00F279814B
:1060D000B30903F1390003F1380EC300BF4F3B444D
:1060E000A3F108015C68A14206D10CE0002A80F20D
:1060F000AA80E468A14206D0636823F003039A1BD8
:106100000F2AF3DD70463C69DFF8E4E2744500F0E5
:10611000AB81636823F003039A1B0F2A00F390817D
:10612000002AC7F814E0C7F810E080F29D80B3F5AC
:10613000007F80F06181DB0803F1010C99107A681F
:1061400057F83C80C4F8088001238B4007EBCC0152
:1061500013430839E1607B6047F83C40C8F80C40C5
:106160008210012494409C4200F28B801C4206D194
:1061700020F0030064001C4200F10400FAD007EB99
:10618000C009CC468046DCF80C309C4507D16DE157
:10619000002A80F27B81DB689C4500F067815968AA
:1061A00021F003018A1B0F2AF2DDD3F80CC0D3F8CB
:1061B000088000939C19284646F0010642F001052C
:1061C0005E60C8F80CC0CCF808807C613C61C4F803
:1061D0000CE0C4F808E065605A5000F0E3FA009B58
:1061E00003F108041EE0102920D800F0D5FA10268B
:1061F00018230220794F3B44A3F108025C689442C3
:1062000000F03D816368E168A66823F0030323443E
:1062100028465A68F16042F001028E605A6000F030
:10622000C1FA0834204603B0BDE8F08F00240C23E7
:1062300020462B6003B0BDE8F08F40204FF4007380
:106240004FF03F0E4AE72344E1685A68A66842F0DF
:106250000102F16028468E605A6000F0A3FA08340B
:10626000204603B0BDE8F08F234428465A6842F028
:1062700001025A6000F096FA0834204603B0BDE8E7
:10628000F08FBC68636823F00308B04504D3A8EB23
:1062900006030F2B00F38580DFF85891504BD9F897
:1062A00000201B680132334404EB080A00F05581DA
:1062B00003F580530F3323F47F6B2BF00F0B5946FC
:1062C000284600F015FF411C024600F0FC80824584
:1062D00000F2F780434B19685944196000F04D8172
:1062E000D9F8000001301BBFA2EB0A0A5144C9F8DB
:1062F0000020196012F0070100F01581C1F10800BB
:10630000C1F580510244083102EB0B09C9F30B09B6
:10631000A1EB0909494628460193009200F0E8FEE6
:10632000431C9DE80C0000F04381801A484440F073
:1063300001001968BA604944BC425060196017D026
:10634000B8F10F0F40F2FB806068A8F10C0222F058
:10635000070204EB020E00F001004FF0050C1043A1
:106360000F2A6060CEF804C0CEF808C000F2178192
:106370001D4BBC681A68914288BF19601B4B1A6894
:106380009142626888BF196022F003029642A2EB34
:10639000060301D80F2B04DC284600F003FA002482
:1063A00040E7A21943F0010346F001066660284663
:1063B000BA60536000F0F6F90834204603B0BDE837
:1063C000F08F142B71D9542B00F2A380330B03F1FF
:1063D0006F0003F16E0EC30080E600BFB0054020E1
:1063E000540E4020240E40204C0E4020500E4020E1
:1063F000B8054020B80940205A0A042A5BD9142A5B
:1064000000F2AE8002F15C01C9005B3207EB010CC7
:106410007958ACF1080C8C4500F088804A6822F06D
:106420000302934273D289688C45F7D1DCF80C20C3
:106430007B68E260C4F808C09460CCF80C408FE63A
:10644000A11946F0010C42F00106C4F804C0284628
:1064500079613961C1F80CE0C1F808E04E60E250A2
:1064600000F0A0F90834DDE67B6879E608F1010860
:1064700018F0030F0CF1080C7FF485AE2DE0DC68FA
:10648000A34208BF02303FF43EAEBBE619441C46AF
:106490004A68DB6854F8086F42F001024A602846F7
:1064A000F3609E6000F07EF9BCE603F15C0003F14E
:1064B0005B0EC30012E69A0902F13901C9003832B5
:1064C000A4E7BC4254D0BC68626822F003025DE7D6
:1064D00059F80839994540F0868010F0030F00F113
:1064E000FF30F5D17B6823EA04037B6064009C42A3
:1064F0003FF6C7AE002C3FF4C4AE1C4240467FF4CA
:106500003EAE64001C4200F10400FAD037E68C462F
:106510008CE7B3F5AA7F15D8F30B03F1780003F1EC
:10652000770EC300DAE54FF48051EDE67B689210F8
:10653000012101FA02F213437B60624679E70123ED
:10654000536029E740F25452934222D8B30C03F12E
:106550007D0003F17C0EC300C0E503F1100BAEE635
:10656000542A29D81A0B02F16F01C9006E324DE787
:10657000204B196859441960B2E6CAF30B00002891
:106580007FF4AEAE08EB0B03BA6843F0010353602F
:10659000EEE67F204FF47E734FF07E0E9EE504F111
:1065A000080128460093FFF74BFA009B1968DFE6C5
:1065B00001204FF00009BCE6B2F5AA7F05D8DA0B3E
:1065C00002F17801C900773220E740F254518A4243
:1065D00005D89A0C02F17D01C9007C3216E74FF410
:1065E0007E717E2212E77B6880E7F00806F10803DF
:1065F00000E600BF240E402082B049B15AB16BB111
:1066000013780B601278101C18BF012002B070477D
:1066100001A9002AF3D1104602B070476FF00100C3
:10662000F4E700BF000000000000000000000000D0
:1066300001F0FF01102A2BDB10F0070F08D010F833
:10664000013B013A8B422DD010F0070F42B3F6D137
:10665000F0B441EA012141EA014122F007047FF050
:1066600000070023F0E80256083C85EA010586EAA7
:10667000010685FA47F5A3FA87F586FA47F6A5FAE3
:1066800087F68EB9EED1F0BC01F0FF0102F00702EF
:1066900032B110F8013B013A83EA010313B1F8D19A
:1066A0000020704701387047002D06BF354603387B
:1066B000073815F0010F07D1013015F4807F02BFB4
:1066C000013015F4C03F0130F0BC0138704700BF05
:1066D0008842F0B50DD98B1898420AD28418002A46
:1066E00051D0224613F8014D02F8014D9942F9D1DB
:1066F000F0BD0F2A48D941EA00039B0746D100F1BB
:10670000100401F11003154653F8106C44F8106C96
:1067100053F80C6C44F80C6C53F8086C44F8086C93
:10672000103D53F8046C44F8046C0F2D03F1100372
:1067300004F11004E8D8A2F1100323F00F0302F0D3
:106740000F0E1033BEF1030F1944034421D91E1F4D
:106750000D467446043C55F8047B46F8047F032C30
:10676000F8D8AEF1040424F0030404342144234493
:1067700002F0030262B1013B0A4411F8014B03F835
:10678000014F8A42F9D1F0BD0346F3E70346F2E731
:10679000F0BD7246EEE700BF0148FFF7F9BB00BF4E
:1067A000840E40200148FFF7F5BB00BF840E402057
:1067B000C36C70B505460C464BB153F8240080B14C
:1067C000026843F8242000230361C36070BD2122C6
:1067D000042100F0E9FEE86403460028EDD1002022
:1067E00070BD012101FA04F6721D2846920000F0E6
:1067F000DBFE0028F3D044608660E4E731B1C36C6F
:106800004A6853F82200086043F82210704700BF1E
:10681000F0B50C6983B00D46064601F1140E002751
:10682000DEF8000081B202FB0133010C180C02FB00
:1068300001019BB2013703EB0143BC424EF8043B1C
:106840004FEA1143ECDC3BB1AA68944207DA05EB4E
:106850008402013453612C61284603B0F0BD69689D
:10686000019301313046FFF7A3FF2A69023205F197
:106870000C01074692000C30FBF7BAFBF26C69681A
:10688000019B52F82100286042F821503D46DEE786
:10689000020C12040346B2B90304102013F07F4F18
:1068A00004BF1B02083013F0704F04BF1B010430FB
:1068B00013F0404F04BF9B000230002B02DB5B0053
:1068C00003D4202070470020E8E70130704700BF64
:1068D000036813F00702014607D0DA0721D49807AE
:1068E00021D49B080B600220704798B298B11046E3
:1068F00013F0FF0F04BF1B0A08301A0704BF1B095F
:1069000004309A0704BF9B080230DA0707D45B08FB
:1069100004D1202070471B0C1020E9E701300B60E8
:106920007047002070475B080B600120704700BF74
:1069300010B50C460121FFF73BFF012244610261C3
:1069400010BD00BF2DE9F04F0C691569AC4283B052
:106950008B46164604DA2246B3462C460E461546AA
:10696000DBF80830DBF8041004EB05089845C8BFD5
:106970000131FFF71DFF00F1140909EB880AD14529
:10698000009005D24B46002143F8041B9A45FBD8E2
:1069900006F1140C0CEB85030BF1140B9C450BEB6F
:1069A000840E4CD2CDF804A09A46DCF80050AFB269
:1069B000EFB100214D465E460C4656F8042B286880
:1069C00093B281B207FB0313120C010C234407FBA3
:1069D000021101EB13419BB243EA0143B64545F86E
:1069E000043B4FEA1144E8D82C60DCF800502D0C31
:1069F0001DD0D9F8003048461C46594600220E8862
:106A0000240C05FB064422449BB243EA024340F8AF
:106A1000043B51F8043B04681B0CA6B205FB03635E
:106A200003EB12438E454FEA1342E8D803600CF1A2
:106A3000040CE24509F10409B7D8DDF804A0B8F167
:106A4000000F0BDD5AF8043CAAF1040A1BB105E063
:106A50005AF8043D13B9B8F10108F9D10098C0F80B
:106A6000108003B0BDE8F08F12F003032DE9F04170
:106A7000144607462ED10D46A4101CD0BE6C96B30A
:106A8000E3074FF0000806D4641014D03068A8B1B2
:106A90000646E307F8D5324629463846FFF752FF47
:106AA000B5B16A68FB6C641053F82210296043F892
:106AB00022500546EAD12846BDE8F08132463146EB
:106AC0003846FFF73FFF3060C0F800800646E0E739
:106AD0000546D9E75A1E0B4D002355F82220FFF733
:106AE00097FE0546C8E701213846FFF761FE40F2F0
:106AF000712101220023416102610646B8640360EE
:106B0000BEE700BF886F42002DE9F84391460A694D
:106B10008B684FEA691404EB020808F101059D42F5
:106B20000E460746496804DD5B009D4201F1010104
:106B3000FADC3846FFF73CFE002C00F1140306DDBA
:106B400003EB8402002143F8041B9A42FBD1346911
:106B500006F1140119F01F0901EB840E1DD0C9F1D3
:106B6000200C00220C6804FA09F4144343F8044B87
:106B700051F8042B8E4522FA0CF2F3D81A600AB1B0
:106B800008F10205FB6C7268013D53F822100561A3
:106B9000316043F82260BDE8F883043B51F8042BD0
:106BA00043F8042F8E45F9D8ECE700BF30B40B69E9
:106BB00005460069C01A0FD19B00143514311944E1
:106BC0002B4401E09D4207D253F8044D51F8042DA7
:106BD0009442F7D002D3012030BC70474FF0FF3011
:106BE000FAE700BF2DE9F0410F690E4611697F1ADF
:106BF000002F904617D1890006F1140502F1140EFA
:106C00006B18714401E09D425CD253F8042D51F899
:106C1000044DA242F7D05ED233462C464646754616
:106C20009846012705E058DB06F1140508F1140425
:106C300000277168FFF7BCFDD8F810303669C760CF
:106C400004EB830CA64605EB860700F11404002331
:106C50005EF8041B55F8048B8AB213FA88F3090C0A
:106C60009A1AC1EB184303EB224392B242EA034261
:106C7000F44544F8042B4FEA2343E9D8AF4217D92F
:106C8000A446AE465EF8042B13FA82F3191401EB06
:106C900012419BB243EA014277454CF8042B4FEA7C
:106CA0002143EFD8ED432F4427F0030704373C443A
:106CB000043C22B954F8043D013E002BFAD0066191
:106CC000BDE8F0810021FFF773FD0122002302617E
:106CD0004361BDE8F0817446ABE7334606F1140426
:106CE00002F11405164601279846A2E72DE9F04166
:106CF00082B001211C46C3F30A571546089EFFF7D0
:106D000057FDC4F3130480460FB144F4801401947A
:106D10001DB302A840F8085DFFF7DAFD002834D162
:106D20009DE80C00C8F81420002B0CBF01210221A3
:106D3000C8F81830C8F81010DFB908EB8103A0F2CA
:106D4000324030601869FFF7A3FD099BC0EB41108A
:106D50001860404602B0BDE8F08101A8FFF7B8FD19
:106D6000019BC8F8143001212030C8F81010002F02
:106D7000E3D0099BA7F233470744C0F135003760E1
:106D80001860404602B0BDE8F0819DE80A00C0F1FD
:106D9000200203FA02F20A43C3400193C8F8142008
:106DA000C2E700BF002900F095802DE9F04F0D46A5
:106DB000164683B0804606F10B07FFF7EDFC55F849
:106DC00004EC162F2EF00304A5F108093CD810227C
:106DD0001746BE423DD8944243DAC44B996809EB4A
:106DE0000400884200F0B480436823F001010144AC
:106DF0004968C9074CD51EF0010F00F09B80314651
:106E00004046FFF749F9064600283AD055F8043CB9
:106E100023F001034B44A0F108029A4200F02181C3
:106E2000221F242A00F20781132A00F2DB80034686
:106E30002A46116819605168596092689A6029461B
:106E40004046FEF7FDFD1CE027F00707002F3A46FD
:106E5000BFDA00260C233046C8F8003003B0BDE886
:106E6000F08F2E46E31B0F2B1ED8D9F8043003F009
:106E7000010323434C44C9F80430636843F0010321
:106E800063604046FFF78EFC304603B0BDE8F08FEC
:106E900023F00303E11891421FDBC36882682E468A
:106EA000D3600C469A60DDE7D9F8042009EB0701AE
:106EB00002F001024C4443F001031743C9F8047087
:106EC0004B60636843F00103083163604046FEF79E
:106ED000B7FDD6E71146FFF7DFB81EF0010F8ED1E0
:106EE00055F8081CA9EB010ADAF8041021F0030197
:106EF0000B442344934225DBC26881685646CA602E
:106F00009160DAF80C1056F8080F221F242AC1608D
:106F1000886000F29480132A6FD92968CAF8081093
:106F20006968CAF80C101B2A00F2A28008350AF121
:106F3000100263E055F8083CA9EB030ADAF80410E4
:106F400021F0030163189342FFF659AF5646D8E784
:106F5000416821F0030BA34407F11000834556DA82
:106F60001EF0010F7FF44BAF55F8081CA9EB010A86
:106F7000DAF8041021F003018B445845E2DC564650
:106F8000DAF80C1056F8080F221F242AC160886016
:106F900000F28F80132A40F28A802968CAF808100C
:106FA0006968CAF80C101B2A00F28A8008350AF1B9
:106FB00010022968116069685160A96891600AEB44
:106FC0000701ABEB070242F0010299604A60DAF870
:106FD000043003F001031F434046CAF80470FFF772
:106FE000E1FB51E72B6803606B6843601B2A2DD8D7
:106FF00000F1080305F108021BE732462968116019
:1070000069685160A96891601C46D1462AE709EB7E
:107010000701ABEB070B4BF0010299604A6055F892
:10702000043C03F001031F43404645F8047CFFF78E
:10703000B9FB2E4628E72946FFF74AFBFFE629461B
:1070400030461C46D146FFF743FB0BE7AB68836035
:10705000EB68C360242A17D000F1100305F1100279
:10706000E7E650F8043C23F003031C442E46F9E6FF
:10707000A968CAF81010E968CAF81410242A0CD0BC
:1070800010350AF11802B9E72B6903616B69436196
:1070900005F1180200F11803CBE62A69CAF8182096
:1070A0006A69CAF81C2018350AF12002A6E73246A0
:1070B0007FE7294630460193FFF70AFB019B7EE7F5
:1070C000A968CAF81010E968CAF81410242A03D075
:1070D00010350AF118026CE72A69CAF818206A69A3
:1070E000CAF81C2018350AF1200262E7B0054020DA
:1070F00038B5074C0023054608462360FAF706FD1D
:10710000431C00D038BD2368002BFBD02B6038BD5A
:10711000980E402010B50C46B1F90E1000F024FB7B
:10712000002803DB236D0344236510BDA38923F4EA
:107130008053A38110BD00BF2DE9F0411646B1F97F
:107140000C201F46D3050C46054607D50022022316
:10715000B1F90E1000F0F2FAB4F90C20B4F90E10E7
:1071600022F48052A2813B4632462846BDE8F041D7
:1071700000F0A2B910B50C46B1F90E1000F0DEFA1D
:10718000A389421C0EBF23F4805343F4805320652F
:10719000A38110BDB1F90E1000F036BA0000000056
:1071A00000000000000000000000000000000000DF
:1071B00000000000000000000000000000000000CF
:1071C00090F800F06DE9024520F007016FF0000C27
:1071D00010F0070491F820F040F049804FF00004CF
:1071E0006FF00700D1E9002391F840F000F10800AA
:1071F00082FA4CF2A4FA8CF283FA4CF3A2FA8CF3E2
:107200004BBBD1E9022382FA4CF200F10800A4FA48
:107210008CF283FA4CF3A2FA8CF3E3B9D1E904239C
:1072200082FA4CF200F10800A4FA8CF283FA4CF3D3
:10723000A2FA8CF37BB9D1E9062301F1200182FA8D
:107240004CF200F10800A4FA8CF283FA4CF3A2FA93
:107250008CF3002BC6D0002A04BF04301A4612BAA1
:10726000B2FA82F2FDE8024500EBD2007047D1E9A4
:10727000002304F00305C4F100004FEAC50514F033
:10728000040F91F840F00CFA05F562EA05021CBF04
:1072900063EA050362464FF00004A9E72DE9F04FC9
:1072A000936883B09046002B70D082460C461768D6
:1072B0008D68086842E0A38913F4906F2ED0656949
:1072C000216905EB4505A0EB010B05EBD5750BF12D
:1072D00001006D103044A8422A4684BF05462A4664
:1072E0005B0538D511465046FEF7D6FE00283CD047
:1072F0005A4621690190FAF77BFEA289019B22F48C
:10730000906242F08002A281A5EB0B0203EB0B001E
:10731000656123612060A2603546B3465A464946FE
:10732000FFF7D6F9D8F80830A2682068551B5844F2
:107330009E1BA5602060C8F808603EB37E683B468F
:107340000837002EFAD0AE42D3F80090AB46B2D246
:107350003546B346E2E75046FFF724FD03460028D2
:10736000D2D121695046FEF76BFB0C23CAF80030DE
:10737000A389002243F040034FF0FF30A381C8F8F7
:107380000820C8F8042003B0BDE8F08F0020C8F83A
:10739000040003B0BDE8F08FF8B50D46144606466C
:1073A00010B1836B002B4BD0B4F90C20A369A36000
:1073B00091B2080739D52369002B36D0EDB2890484
:1073C0002F4615D522686169D31A8B421CDA013326
:1073D000A168501C0139A1602060157062699A4251
:1073E0001AD0A389DB0701D50A2D15D03846F8BD80
:1073F000616E42F4005221F40051A281226861665C
:107400006169D31A8B42E2DB21463046FEF79AF9D6
:1074100040B922680123DBE721463046FEF792F9A6
:107420000028E3D04FF0FF37E0E721463046FDF774
:10743000B5F80028F6D1B4F90C20236991B2BDE764
:10744000FEF7D8F9B0E700BFF0B5064685B01F4695
:1074500089B1104C104D2468646B002C08BF2C4679
:10746000D4F8E040A047431C03D100228A233A60AD
:10747000336005B0F0BD0C460649074A0968496B00
:10748000002908BF11462246D1F8E04001A9A047D3
:10749000E9E700BF100040204404402021B1FF2A4A
:1074A00004D80A7001207047084670478A23036099
:1074B0004FF0FF30704700BF70B50D46084C1146C5
:1074C00006461A46284600232360F8F78DFF431C22
:1074D00000D070BD2368002BFBD0336070BD00BFAF
:1074E000980E40202DE9F8432C4D06462868984612
:1074F0000F469146FEF74CFD294B1C68D4F84831E5
:10750000002B3ED05A681F2A1CDC02F1010E76B116
:1075100003EB82010124C1F88890D3F888019440DC
:107520002043022EC3F88801C1F8088123D002321B
:10753000C3F804E0286843F82270FEF72BFD002012
:10754000BDE8F883174B0BB34FF4C870FEF79CFDF2
:107550000346D8B1D4F848210260002141600A46B0
:10756000C4F848014FF0010EC0F88811C0F88C1122
:10757000002EDCD0CCE7D3F88C110C43C3F88C413F
:10758000D5E704F5A673C4F84831BBE72868FEF7D1
:1075900001FD4FF0FF30BDE8F88300BF40044020FC
:1075A000F06D42008960400010B502FB01F1FEF76A
:1075B00073FD0446D8B150F8042C22F00302043ABB
:1075C000242A18D8132A14D900231B2A03604360E5
:1075D00016D9242A8360C36011BF00F11002036131
:1075E000436100F11802002313605360936020464A
:1075F00010BD0246F7E70021FAF794FD204610BDC2
:1076000000F10802EFE700BF38B5074C002305463C
:1076100008462360FAF796FA431C00D038BD236869
:10762000002BFBD02B6038BD980E402070B559B1AF
:1076300005460C4610B1836B002B3CD0636ED80717
:1076400005D5B4F90C302BB90026304670BDA3899E
:1076500099053CD521462846FDF7D4FFE36A064646
:1076600033B1E169284698470028B8BF4FF0FF368C
:10767000A3891A0622D4216B41B104F14003994237
:1076800002D02846FEF7DCF900232363616C21B1A8
:107690002846FEF7D5F900236364FEF7D7F8636E3A
:1076A0000022DB07A2810ED5A06DFEF76FFCFEF76E
:1076B000D3F8304670BDFEF79DF8BFE72169284634
:1076C000FEF7BEF9D7E7A06DFEF764FCECE7A06D0E
:1076D000FEF75EFCB4F90C30002BBBD1666E16F0E1
:1076E0000106B1D1A06DFEF755FC304670BD00BF5C
:1076F00038B50B46074C0546114618460023236053
:10770000FAF723FA431C00D038BD2368002BFBD0C6
:107710002B6038BD980E402038B5074C0023054635
:1077200008462360FAF716FA431C00D038BD2368D8
:10773000002BFBD02B6038BD980E402070B50D4655
:10774000084C114606461A46284600232360FAF7DD
:1077500003FA431C00D070BD2368002BFBD03360BC
:1077600070BD00BF980E402070B50D46084C114604
:1077700006461A46284600232360F8F717FE431CE6
:1077800000D070BD2368002BFBD0336070BD00BFFC
:10779000980E402081F0004102E000BF83F00043DA
:1077A00030B54FEA41044FEA430594EA050F08BF9C
:1077B00090EA020F1FBF54EA000C55EA020C7FEA60
:1077C000645C7FEA655C00F0E2804FEA5454D4EBDD
:1077D0005555B8BF6D420CDD2C4480EA020281EAA7
:1077E000030382EA000083EA010180EA020281EADF
:1077F0000303362D88BF30BD11F0004F4FEA013131
:107800004FF4801C4CEA113102D0404261EB41013F
:1078100013F0004F4FEA03334CEA133302D05242C5
:1078200063EB430394EA050F00F0A780A4F1010481
:10783000D5F1200E0DDB02FA0EFC22FA05F28018BB
:1078400041F1000103FA0EF2801843FA05F35941A1
:107850000EE0A5F120050EF1200E012A03FA0EFC20
:1078600028BF4CF0020C43FA05F3C01851EBE3714A
:1078700001F0004507D54FF0000EDCF1000C7EEB67
:1078800000006EEB0101B1F5801F1BD3B1F5001FA5
:107890000CD349085FEA30004FEA3C0C04F10104C4
:1078A0004FEA445212F5800F80F09A80BCF1004FED
:1078B00008BF5FEA500C50F1000041EB045141EA6F
:1078C000050130BD5FEA4C0C404141EB010111F470
:1078D000801FA4F10104E9D191F0000F04BF01461B
:1078E0000020B1FA81F308BF2033A3F10B03B3F1F9
:1078F00020020CDA0C3208DD02F1140CC2F10C0289
:1079000001FA0CF021FA02F10CE002F11402D8BFE6
:10791000C2F1200C01FA02F120FA0CFCDCBF41EAB2
:107920000C019040E41AA2BF01EB0451294330BD81
:107930006FEA04041F3C1CDA0C340EDC04F114045E
:10794000C4F1200220FA04F001FA02F340EA030035
:1079500021FA04F345EA030130BDC4F10C04C4F17B
:10796000200220FA02F001FA04F340EA030029465B
:1079700030BD21FA04F0294630BD94F0000F83F4A5
:10798000801306BF81F480110134013D4EE77FEA88
:10799000645C18BF7FEA655C29D094EA050F08BFD4
:1079A00090EA020F05D054EA000C04BF19461046B5
:1079B00030BD91EA030F1EBF0021002030BD5FEAF9
:1079C000545C05D14000494128BF41F0004130BD21
:1079D00014F580043CBF01F5801130BD01F0004575
:1079E00045F0FE4141F470014FF0000030BD7FEAE8
:1079F000645C1ABF194610467FEA655C1CBF0B46E3
:107A0000024650EA013406BF52EA033591EA030FF9
:107A100041F4002130BD00BF90F0000F04BF0021F1
:107A2000704730B54FF4806404F132044FF0000524
:107A30004FF0000150E700BF90F0000F04BF00219D
:107A4000704730B54FF4806404F1320410F0004503
:107A500048BF40424FF000013EE700BF42004FEAFE
:107A6000E2014FEA31014FEA02701FBF12F07F437B
:107A700093F07F4F81F06051704792F0000F14BF78
:107A800093F07F4F704730B54FF4607401F00045BC
:107A900021F0004120E700BF50EA010208BF704713
:107AA00030B54FF000050AE050EA010208BF704708
:107AB00030B511F0004502D5404261EB41014FF471
:107AC000806404F132045FEA915C3FF4DCAE4FF075
:107AD00003025FEADC0C18BF03325FEADC0C18BF5C
:107AE000033202EBDC02C2F1200300FA03FC20FAAD
:107AF00002F001FA03FE40EA0E0021FA02F11444FA
:107B0000C1E600BF70B54FF0FF0C4CF4E06C1CEA0E
:107B100011541DBF1CEA135594EA0C0F95EA0C0F83
:107B200000F0DEF82C4481EA030621EA4C5123EAF6
:107B30004C5350EA013518BF52EA033541F4801125
:107B400043F4801338D0A0FB02CE4FF00005E1FBD8
:107B500002E506F00042E0FB03E54FF00006E1FB22
:107B600003569CF0000F18BF4EF0010EA4F1FF0465
:107B7000B6F5007F64F5407404D25FEA4E0E6D41A5
:107B800046EB060642EAC62141EA55514FEAC520B6
:107B900040EA5E504FEACE2EB4F1FD0C88BFBCF532
:107BA000E06F1ED8BEF1004F08BF5FEA500E50F1E3
:107BB000000041EB045170BD06F0004646EA0101A9
:107BC00040EA020081EA0301B4EB5C04C2BFD4EBDB
:107BD0000C0541EA045170BD41F480114FF0000ED4
:107BE000013C00F3AB8014F1360FDEBF002001F042
:107BF000004170BDC4F10004203C35DA0C341BDCBC
:107C000004F11404C4F1200500FA05F320FA04F08D
:107C100001FA05F240EA020001F0004221F00041C1
:107C200010EBD37021FA04F642EB06015EEA430E34
:107C300008BF20EAD37070BDC4F10C04C4F1200564
:107C400000FA04F320FA05F001FA04F240EA020017
:107C500001F0004110EBD37041F100015EEA430EE8
:107C600008BF20EAD37070BDC4F1200500FA05F208
:107C70004EEA020E20FA04F301FA05F243EA020387
:107C800021FA04F001F0004121FA04F220EA020096
:107C900000EBD3705EEA430E08BF20EAD37070BDDC
:107CA00094F0000F0FD101F00046400041EB0101BC
:107CB00011F4801F08BF013CF7D041EA060195F09E
:107CC000000F18BF704703F00046520043EB030358
:107CD00013F4801F08BF013DF7D043EA0603704745
:107CE00094EA0C0F0CEA135518BF95EA0C0F0CD050
:107CF00050EA410618BF52EA4306D1D181EA030196
:107D000001F000414FF0000070BD50EA410606BF8F
:107D10001046194652EA430619D094EA0C0F02D1D4
:107D200050EA013613D195EA0C0F05D152EA033619
:107D30001CBF104619460AD181EA030101F0004137
:107D400041F0FE4141F470014FF0000070BD41F080
:107D5000FE4141F4780170BD70B54FF0FF0C4CF45A
:107D6000E06C1CEA11541DBF1CEA135594EA0C0F79
:107D700095EA0C0F00F0A7F8A4EB050481EA030EC6
:107D800052EA03354FEA013100F088804FEA0333AD
:107D90004FF0805545EA131343EA12634FEA02227B
:107DA00045EA111545EA10654FEA00260EF000413C
:107DB0009D4208BF964244F1FD0404F5407402D28E
:107DC0005B084FEA3202B61A65EB03055B084FEA1F
:107DD00032024FF480104FF4002CB6EB020E75EB1C
:107DE000030E22BFB61A754640EA0C005B084FEA44
:107DF0003202B6EB020E75EB030E22BFB61A7546C1
:107E000040EA5C005B084FEA3202B6EB020E75EB0B
:107E1000030E22BFB61A754640EA9C005B084FEA83
:107E20003202B6EB020E75EB030E22BFB61A754690
:107E300040EADC0055EA060E18D04FEA051545EA7F
:107E400016754FEA06164FEAC30343EA52734FEA28
:107E5000C2025FEA1C1CC0D111F4801F0BD141EAA1
:107E600000014FF000004FF0004CB6E711F4801F06
:107E700004BF01430020B4F1FD0C88BFBCF5E06FE6
:107E80003FF6AFAEB5EB030C04BFB6EB020C5FEAF6
:107E9000500C50F1000041EB045170BD0EF0004E4B
:107EA0004EEA113114EB5C04C2BFD4EB0C0541EA7D
:107EB000045170BD41F480114FF0000E013C90E67A
:107EC00045EA060E8DE60CEA135594EA0C0F08BF3E
:107ED00095EA0C0F3FF43BAF94EA0C0F0AD150EA3D
:107EE00001347FF434AF95EA0C0F7FF425AF1046D0
:107EF00019462CE795EA0C0F06D152EA03353FF4F8
:107F0000FDAE1046194622E750EA410618BF52EA74
:107F100043067FF4C5AE50EA41047FF40DAF52EA48
:107F200043057FF4EBAE12E74FF0FF3C06E000BFE5
:107F30004FF0010C02E000BF4FF0010C4DF804CDF2
:107F40004FEA410C7FEA6C5C4FEA430C18BF7FEAB2
:107F50006C5C1BD001B050EA410C0CBF52EA430CE0
:107F600091EA030F02BF90EA020F0020704710F160
:107F7000000F91EA030F58BF994208BF90422CBFEF
:107F8000D8176FEAE37040F0010070474FEA410CE8
:107F90007FEA6C5C02D150EA013C07D14FEA430C06
:107FA0007FEA6C5CD6D152EA033CD3D05DF8040B77
:107FB000704700BF8446104662468C4619466346A9
:107FC00000E000BF01B5FFF7B7FF002848BF10F180
:107FD000000F01BD4DF808EDFFF7F4FF0CBF0120C5
:107FE00000205DF808FB00BF4DF808EDFFF7EAFF41
:107FF00034BF012000205DF808FB00BF4DF808EDFC
:10800000FFF7E0FF94BF012000205DF808FB00BFF0
:108010004DF808EDFFF7CEFF94BF012000205DF87A
:1080200008FB00BF4DF808EDFFF7C4FF34BF012087
:1080300000205DF808FB00BF4FEA410C7FEA6C5C52
:1080400002D150EA013C0AD14FEA430C7FEA6C5C52
:1080500002D152EA033C02D14FF0000070474FF0CA
:10806000010070474FEA410212F5001215D211D5F6
:108070006FF47873B3EB625212D94FEAC12343F025
:10808000004343EA505311F0004F23FA02F018BFA7
:10809000404270474FF00000704750EA013005D170
:1080A00011F0004008BF6FF0004070474FF0000033
:1080B000704700BF53B94AB9002908BF00281CBF48
:1080C0004FF0FF314FF0FF3000F07AB9ADF1080CFE
:1080D0006DE904CE00F006F8DDF804E0DDE90223E6
:1080E00004B070472DE9F0478C460D460446089EC3
:1080F000002B51D18A4217466DD9B2FA82FEBEF1E9
:10810000000F0BD0CEF1200C01FA0EF520FA0CFC7A
:1081100002FA0EF74CEA050C00FA0EF44FEA174A81
:10812000250CBCFBFAF81FFA87F90AFB18CC45EAC4
:108130000C4508FB09F3AB420AD9ED1908F1FF32EF
:1081400080F02381AB4240F22081A8F102083D4437
:10815000ED1AA4B2B5FBFAF00AFB105544EA054447
:1081600000FB09F9A14509D9E41900F1FF3380F0BA
:108170000A81A14540F2078102383C44A4EB09047E
:1081800040EA08400021002E61D024FA0EF40023BA
:1081900034607360BDE8F0878B4207D9002E54D05D
:1081A000002186E821000846BDE8F087B3FA83F194
:1081B000002940F08E80AB4202D3824200F2FA8066
:1081C000841A65EB03050120AC46002E3FD086E8FB
:1081D0001010BDE8F08712B90127B7FBF2F7B7FA24
:1081E00087FEBEF1000F34D1EB1B3A0C1FFA87FC5F
:1081F0000121B3FBF2F8250C02FB183345EA0345D5
:108200000CFB08F3AB4207D9ED1908F1FF3002D29D
:10821000AB4200F2D1808046ED1AA3B2B5FBF2F07A
:1082200002FB105543EA05440CFB00FCA44507D9AA
:10823000E41900F1FF3302D2A44500F2B8801846D9
:10824000A4EB0C0440EA08409DE731463046BDE807
:10825000F087CEF1200405FA0EF307FA0EF720FAA4
:1082600004F83A0C25FA04F448EA0308B4FBF2F1E6
:108270004FEA184502FB11441FFA87FC45EA044502
:1082800001FB0CF3AB4200FA0EF409D9ED1901F130
:10829000FF3080F08A80AB4240F2878002393D4453
:1082A000EB1A1FFA88F5B3FBF2F002FB103345EA34
:1082B000034500FB0CF3AB4207D9ED1900F1FF3881
:1082C0006FD2AB426DD902383D44EB1A40EA01410E
:1082D0008FE7C1F1200722FA07F88B4005FA01F475
:1082E00048EA030320FA07FE4FEA134CFD404EEA2A
:1082F000040EB5FBFCF94FEA1E440CFB19551FFA9E
:1083000083F844EA054509FB08F4AC4202FA01F29D
:1083100000FA01FA08D9ED1809F1FF3043D2AC4256
:1083200041D9A9F102091D442D1B1FFA8EFEB5FB90
:10833000FCF00CFB10554EEA054400FB08F8A04584
:1083400007D9E41800F1FF3529D2A04527D9023812
:108350001C4440EA0940A4EB0804A0FB02894C45F8
:10836000C6464D4615D312D056B1BAEB0E0364EB98
:10837000050404FA07F7CB401F43CC403760746014
:108380000021BDE8F0871846F8E69046E0E6C245D1
:10839000EAD2B8EB020E69EB03050138E4E72846A0
:1083A000D7E7404691E78146BEE7014678E70238C5
:1083B0003C4445E7084608E7A8F102083D442BE79E
:1083C000704700BF00000000000000000000000037
:1083D000000000000000000000000000000000009D
:1083E000FFCCFFCC000000000000000000000000F7
:1083F000F000F00000000000F000F00000000000BD
:108400000CC00CC0FFFCFFFC0CC00CC0FFFCFFFC50
:108410000CC00CC00C601E703F303330FFFCFFFC02
:10842000333033F039E018C06000F00CF03C60F0FD
:1084300003C00F003C18F03CC03C00183CF07FF833
:10844000C31CC78CCFCCDCEC7878303000FC00CC7F
:108450000000000000004400EC00F8007000000084
:1084600000000000000000000FC03FF078786018A6
:10847000C00CC00C0000000000000000C00CC00CCC
:10848000601878783FF00FC0000000000C600EE02C
:1084900007C003803FF83FF8038007C00EE00C6080
:1084A00003000300030003003FF03FF0030003005C
:1084B00003000300004400EC00F80070000000001E
:1084C00000000000000000000300030003000300A0
:1084D0000300030003000300030003000018003C36
:1084E000003C001800000000000000000000000038
:1084F0000000000C003C00F003C00F003C00F00046
:10850000C00000003FF07FF8E0FCC1CCC38CC70C7A
:10851000CE0CFC1C7FF83FF000000000300C700C0B
:10852000FFFCFFFC000C000C00000000300C701C75
:10853000E03CC07CC0ECC1CCC38CE70C7E0C3C0C96
:1085400030307038E01CC00CC00CC30CC30CE31CF2
:108550007FF83CF003C007C00EC01CC038C070C01C
:10856000FFFCFFFC00C000C0FC30FC38CC1CCC0C75
:10857000CC0CCC0CCC0CCE1CC7F8C3F03FF07FF871
:10858000E31CC30CC30CC30CC30CE39C71F830F0A8
:10859000C000C000C000C000C3FCC7FCCE00DC00AF
:1085A000F800F0003CF07FF8E79CC30CC30CC30C50
:1085B000C30CE79C7FF83CF03C007E00E70CC30C4A
:1085C000C31CC338C370E7E07FC03F8000000000D9
:1085D000000018603CF03CF0186000000000000053
:1085E00000000000000018443CEC3CF8187000004B
:1085F000000000000000030007800FC01CE038707E
:108600007038E01CC00C00000CC00CC00CC00CC0CA
:108610000CC00CC00CC00CC00CC00CC00000C00CC6
:10862000E01C703838701CE00FC0078003000000A9
:1086300030007000E000C000C1ECC3ECC300E600F5
:108640007E003C0030F071F8E39CC30CC3FCC3FC1B
:10865000C00CE01C7FF83FF03FFC7FFCE0C0C0C0D6
:10866000C0C0C0C0C0C0E0C07FFC3FFCFFFCFFFC3E
:10867000C30CC30CC30CC30CC30CE79C7FF83CF0C9
:108680003FF07FF8E01CC00CC00CC00CC00CE01C1C
:1086900070383030FFFCFFFCC00CC00CC00CC00CAC
:1086A000C00CE01C7FF83FF0FFFCFFFCC30CC30CC8
:1086B000C30CC30CC30CC30CC00CC00CFFFCFFFCF0
:1086C000C300C300C300C300C300C300C000C00098
:1086D0003FF07FF8E01CC00CC00CC30CC30CE31CC3
:1086E00073F833F0FFFCFFFC0300030003000300FA
:1086F00003000300FFFCFFFC00000000C00CC00CE6
:10870000FFFCFFFCC00CC00C000000000030003873
:10871000C01CC00CC00CC01CFFF8FFF0C000C000A3
:10872000FFFCFFFC078007800FC01CE0387070382A
:10873000E01CC00CFFFCFFFC000C000C000C000C4B
:10874000000C000C000C000CFFFCFFFC700038005B
:108750001F001F0038007000FFFCFFFCFFFCFFFC47
:108760001C000E000700038001C000E0FFFCFFFCBE
:108770003FF07FF8E01CC00CC00CC00CC00CE01C2B
:108780007FF83FF0FFFCFFFCC300C300C300C30041
:10879000C300E7007E003C003FF07FF8E01CC00C07
:1087A000C0CCC0ECC07CE0387FFC3FECFFFCFFFCA1
:1087B000C300C380C380C3C0C3C0E7707E3C3C1C01
:1087C0003C187E1CE70CC30CC30CC30CC30CC39C2D
:1087D000E1F860F0C000C000C000C000FFFCFFFC7A
:1087E000C000C000C000C000FFF0FFF8001C000C7B
:1087F000000C000C000C001CFFF8FFF0FFC0FFE0B5
:1088000000700038001C001C00380070FFE0FFC042
:10881000FFF0FFF8001C003C00F800F8003C001CD2
:10882000FFF8FFF0F03CF87C1CE00FC007800780E9
:108830000FC01CE0F87CF03CFC00FE000700038049
:1088400001FC01FC03800700FE00FC00C03CC07C72
:10885000C0ECC1CCC38CC70CCE0CDC0CF80CF00CFB
:1088600000000000FFFCFFFCC00CC00CC00C0000AE
:1088700000000000300030000C000C00030003007A
:1088800000C000C00030003000000000C00CC00C70
:10889000C00CFFFCFFFC0000000000000C001C00EE
:1088A00038007000E000E000700038001C000C0090
:1088B000000C000C000C000C000C000C000C000C58
:1088C000000C000C00000000C000E0007000380048
:1088D0001800000000000000003006780EFC0CCCF0
:1088E0000CCC0CCC0CCC0ECC07FC03F8FFFCFFFC32
:1088F000030C030C030C030C030C039C01F800F0A5
:1089000003F007F80E1C0C0C0C0C0C0C0C0C0E1CC1
:108910000738033000F001F8039C030C030C030C30
:10892000030C030CFFFCFFFC03F007F80EDC0CCC7F
:108930000CCC0CCC0CCC0EDC07D803900000030050
:108940003FFC7FFCE300E30070003000000000000B
:108950000318079C0FCC0CCC0CCC0CCC0CCC0CDC36
:108960000FF807F0FFFCFFFC030003000300030007
:10897000038001FC00FC000000000000000000007B
:108980001BFC1BFC00000000000000000000003089
:108990000038001C000C000C001CCFF8CFF00000C9
:1089A0000000FFFCFFFC00E001E003F007380E1CB4
:1089B0000C0C000000000000C00CC00CFFFCFFFC11
:1089C000000C000C000000000FFC0FFC0E00070064
:1089D00003C003C007000E000FFC0FFC0FFC0FFCD0
:1089E000030007000E000C000C000E0007FC03FC47
:1089F00003F007F80E1C0C0C0C0C0C0C0C0C0E1CD1
:108A000007F803F00FFC0FFC0CC00CC00CC00CC02E
:108A10000CC00FC007800300030007800FC00CC00C
:108A20000CC00CC00CC00CC00FFC0FFC0FFC0FFCEA
:108A3000038007000E000C000C000E00070003006E
:108A40000318079C0FCC0CCC0CCC0CCC0CCC0CFC25
:108A50000E78063000000C000C00FFF0FFF80C1C34
:108A60000C1C0C380C3000000FF00FF8001C000C30
:108A7000000C000C000C001C0FF80FF00FC00FE0F2
:108A800000700038001C001C003800700FE00FC0A0
:108A90000FF00FF8001C001C00F800F8001C001C70
:108AA0000FF80FF00C0C0E1C073803F001E001E08A
:108AB00003F007380E1C0C0C0C000E00070C039C76
:108AC00001F801F0038007000E000C000C0C0C1CD8
:108AD0000C3C0C7C0CEC0DCC0F8C0F0C0E0C0C0C0D
:108AE0000000030007803FF07CF8E01CC00CC00CC5
:108AF000C00C0000030C030C3FFC7FFCE30CC30C18
:108B0000C00CE00C700C300C0000C00CC00CC00C91
:108B1000E01C7CF83FF0078003000000C000C000AC
:108B2000C000C000C000C000C000C000C000C00045
:108B3000FFFCFFFCFFFCFFFCFFFCFFFCFFFCFFFC5D
:108B4000FFFCFFFCFFFFFFFFFFFFFFFFFFFFFFFF3B
:108B5000FFFFFFFFFFFFFFFFFFFFFFFFFFFFFFFF25
:108B6000FFFFFFFFFFFFFFFFFFFFFFFFFFFFFFFF15
:108B7000FFFFFFFFFFFFFFFFFFFFFFFFFFFFFFFF05
:108B8000FFFFFFFFFFFFFFFFFFFFFFFFFFFFFFFFF5
:10EB3000FFFFFFFEFFFFFDFFFFFEFEFFFEFEFEFFED
:10EB4000FEFCFFFEFCFFFEFDFFFEFDFFFEFFFEFEE6
:10EB5000FFFEFEFEFFFEFDFFFEFEFFFEFFFFFFFFCE
:10EB6000FFFFFFFFFFFFFFFFFFFFFFFFFFFFFFFFB5
:10EB7000FFFFFFFFFFFFFFFFFFFFFFFFFFFFFFFFA5
:10EB8000FFFFFFFFFFFFFFFFFFFFFFFFFFFFFFFF95
:10EB9000FFFFFFFFFFFFFFFFFFFFFFFFFFFFFFFF85
:10EEF000FEFFFCFDFEFCFEFEFEFDFDFEFEFEFBFC3D
:10EF0000FDFBFDFEFDFCFEFCFEFEFEFDFEFEFEFD2D
:10EF1000FDFDFDFDFDFDFEFEFEFFFFFFFFFFFFFF10
:10EF2000FFFFFFFFFFFFFFFFFFFFFFFFFFFFFFFFF1
:10EF3000FFFFFFFFFFFFFFFFFFFFFFFFFFFFFFFFE1
:10EF4000FFFFFFFFFFFFFFFFFFFFFFFFFFFFFFFFD1
:10EF5000FFFFFFFFFFFFFFFFFFFFFFFFFFFFFFFFC1
:10F2A000FFFFFFFFFFFFFFFFFFFFFFFFFCFFFDFB77
:10F2B000FEFCFCFBFBFEFEFEFEFDFFFDFDFFFEFC7B
:10F2C000FFFCFEFFFDFEFFFAFEFFFBFFFFFCFEFE64
:10F2D000FBFEFEFDFEFFFFFFFFFFFFFFFFFFFFFF47
:10F2E000FFFFFFFFFFFFFFFFFFFFFFFFFFFFFFFF2E
:10F2F000FFFFFFFFFFFFFFFFFFFFFFFFFFFFFFFF1E
:10F30000FFFFFFFFFFFFFFFFFFFFFFFFFFFFFFFF0D
:10F31000FFFFFFFFFFFFFFFFFFFFFFFFFFFFFFFFFD
:10F66000FFFFFFFFFFFFFFFFFFFDFEFFFDFEFFFEB1
:10F67000FDFFFDFEFEFDFDFDFEF9F9FAF7F5FDF4D7
:10F68000EFFDF0F1FAFDFCFCFDFEFEFDFEFDFEFED1
:10F69000FEFEFEFFFFFFFFFFFFFFFFFFFFFFFFFF7D
:10F6A000FFFFFFFFFFFFFFFFFFFFFFFFFFFFFFFF6A
:10F6B000FFFFFFFFFFFFFFFFFFFFFFFFFFFFFFFF5A
:10F6C000FFFFFFFFFFFFFFFFFFFFFFFFFFFFFFFF4A
:10F6D000FFFFFFFFFFFFFFFFFFFFFFFFFFFFFFFF3A
:10FA2000FFFFFFFFFFFFFFFEFFFEFDFEFEFDFCFCF4
:10FA3000EDEDF0C0C5E88D9AE16479D65166E170CC
:10FA400085F9DFE0FDFDFCFEFEFEFEFEFBFEFEFC9A
:10FA5000FFFFFFFFFFFFFFFFFFFFFFFFFFFFFFFFB6
:10FA6000FFFFFFFFFFFFFFFFFFFFFFFFFFFFFFFFA6
:10FA7000FFFFFFFFFFFFFFFFFFFFFFFFFFFFFFFF96
:10FA8000FFFFFFFFFFFFFFFFFFFFFFFFFFFFFFFF86
:10FDE000FFFFFFFEFEFEFEFDFBF2CBCEDC677BCE0F
:10FDF0002443CB1033CE0A2EC90C29D0314DF4CF79
:10FE0000D0FFFEFDFDFEFEFEFEFDFEFFFDFFFFFF3F
:10FE1000FFFFFFFFFFFFFFFFFFFFFFFFFFFFFFFFF2
:10FE2000FFFFFFFFFFFFFFFFFFFFFFFFFFFFFFFFE2
:10FE3000FFFFFFFFFFFFFFFFFFFFFFFFFFFFFFFFD2
:10FE4000FFFFFFFFFFFFFFFFFFFFFFFFFFFFFFFFC2
:020000040041B9
:1001A000FEFEFBF5C5CBCD3755CD0A2DD3112FD093
:1001B0001330CC1634CE0B24D6304AF3CFCEFEFE0D
:1001C000FDFBFEFFFDFEFEFDFFFEFFFFFFFFFFFF4D
:1001D000FFFFFFFFFFFFFFFFFFFFFFFFFFFFFFFF2F
:1001E000FFFFFFFFFFFFFFFFFFFFFFFFFFFFFFFF1F
:1001F000FFFFFFFFFFFFFFFFFFFFFFFFFFFFFFFF0F
:10020000FFFFFFFFFFFFFFFFFFFFFFFFFFFFFFFFFE
:10054000FFFFFFFFFFFFFFFFFFFFFFFEFEFCFEFEC2
:10055000FFFCFDFDFDFDFBFCFFFDFBFDFEFAE3E303
:10056000DD4860CB0F2BCF0F32D31133C8112FCC06
:100570000F3AD32F59D8718AF9DDE5FAFEFEF9FE5C
:10058000FEFEFDFEFEFEFFFFFFFFFFFFFFFFFFFF82
:10059000FFFFFFFFFFFFFFFFFFFFFFFFFFFFFFFF6B
:1005A000FFFFFFFFFFFFFFFFFFFFFFFFFFFFFFFF5B
:1005B000FFFFFFFFFFFFFFFFFFFFFFFFFFFFFFFF4B
:1005C000FFFFFFFFFFFFFFFFFFFFFFFFFFFFFFFF3B
:10090000FFFFFFFFFFFFFFFFFFFFFDFEFDFFFEFDFF
:10091000FDFDFEFBFCFEFDFDFBFBEC9CABCB1837AD
:10092000CE152FCD1434CB1335D64C63F4B8C0FE9E
:10093000F3EEFDFAF5FCFFFDFEFDFEFEFCFEFCFD08
:10094000FDFDFFFEFFFFFFFFFFFFFFFFFFFFFFFFBC
:10095000FFFFFFFFFFFFFFFFFFFFFFFFFFFFFFFFA7
:10096000FFFFFFFFFFFFFFFFFFFFFFFFFFFFFFFF97
:10097000FFFFFFFFFFFFFFFFFFFFFFFFFFFFFFFF87
:10098000FFFFFFFFFFFFFFFFFFFFFFFFFFFFFFFF77
:100CC000FFFFFFFFFFFEFEFCFFFEFFFEFDFEFEFE40
:100CD000FCFDFEFDFAF0EFDD5872CD0C2CD1133186
:100CE000CD1133D23151F2C6C8FEFBF9FEFEFBFB3B
:100CF000FDFCFCFFFEFEFEFEFDFBFEFCFEFEFCFF1F
:100D0000FEFFFFFFFFFFFFFFFFFFFFFFFFFFFFFFF4
:100D1000FFFFFFFFFFFFFFFFFFFFFFFFFFFFFFFFE3
:100D2000FFFFFFFFFFFFFFFFFFFFFFFFFFFFFFFFD3
:100D3000FFFFFFFFFFFFFFFFFFFFFFFFFFFFFFFFC3
:100D4000FFFFFFFFFFFFFFFFFFFFFFFFFFFFFFFFB3
:10108000FFFFFEFEFCFFFEFFFEFDFEFDFDFDFEFE82
:10109000FEF9E0E0D12C4ACB0E2BCC1432CF0B3032
:1010A000E16B81FDF3F2FBFEFEFCFEFEFCFEFEFDAD
:1010B000FEFEFEFDFFFEFDFEFDFEFEFDFFFEFFFF50
:1010C000FFFFFFFFFFFFFFFFFFFFFFFFFFFFFFFF30
:1010D000FFFFFFFFFFFFFFFFFFFFFFFFFFFFFFFF20
:1010E000FFFFFFFFFFFFFFFFFFFFFFFFFFFFFFFF10
:1010F000FFFFFFFFFFFFFFFFFFFFFFFFFFFFFFFF00
:10143000FFFFFFFFFFFFFFFFFFFFFFFFFFFFFFFEBD
:10144000FFFDFEFCFDFDFDFDFDFDFDFFFDFEF5C903
:10145000CBCE1536CF1331CB1433CD0F32E58D9B68
:10146000FEFDFBFCFBFFFEF9FEFEFCFEFCFCFEFBB2
:10147000FEFEFDFEFEFEFEFFFEFEFFFFFFFFFFFF86
:10148000FFFFFFFFFFFFFFFFFFFFFFFFFFFFFFFF6C
:10149000FFFFFFFFFFFFFFFFFFFFFFFFFFFFFFFF5C
:1014A000FFFFFFFFFFFFFFFFFFFFFFFFFFFFFFFF4C
:1014B000FFFFFFFFFFFFFFFFFFFFFFFFFFFFFFFF3C
:1017F000FFFFFFFFFFFFFFFFFFFFFFFFFDFFFCFEFF
:10180000FDFEFCFDFCFDFEFDFFFBFFEDB0B6CB0DCC
:101810002DCE1232CC1436CE0E31EA9CA5FDFEFB45
:10182000FBFEFFFAFEFEFDFEFDFFFEFEFEFEFEFCE1
:10183000FEFEFBFDFFFDFEFFFFFFFFFFFFFFFFFFC3
:10184000FFFFFFFFFFFFFFFFFFFFFFFFFFFFFFFFA8
:10185000FFFFFFFFFFFFFFFFFFFFFFFFFFFFFFFF98
:10186000FFFFFFFFFFFFFFFFFFFFFFFFFFFFFFFF88
:10187000FFFFFFFFFFFFFFFFFFFFFFFFFFFFFFFF78
:10188000FFFFFFFFFFFFFFFFFFFFFFFFFFFFFFFF68
:10189000FFFFFFFFFFFFFFFFFFFFFFFFFFFFFFFF58
:1018A000FFFFFFFFFFFFFFFFFFFFFFFFFFFFFFFF48
:1018B000FFFFFFFFFFFFFFFFFFFFFFFFFFFFFFFF38
:1018C000FFFFFFFFFFFFFFFFFFFFFFFFFFFFFFFF28
:1018D000FFFFFFFFFFFFFFFFFFFFFFFFFFFFFFFF18
:1018E000FFFFFFFFFFFFFFFFFFFFFFFFFFFFFFFF08
:1018F000FFFFFFFFFFFFFFFFFFFFFFFFFFFFFFFFF8
:10190000FFFFFFFFFFFFFFFFFFFFFFFFFFFFFFFFE7
:10191000FFFFFFFFFFFFFFFFFFFFFFFFFFFFFFFFD7
:10192000FFFFFFFFFFFFFFFFFFFFFFFFFFFFFFFFC7
:10193000FFFFFFFFFFFFFFFFFFFFFFFFFFFFFFFFB7
:10194000FFFFFFFFFFFFFFFFFFFFFFFFFFFFFFFFA7
:10195000FFFFFFFFFFFFFFFFFFFFFFFFFFFFFFFF97
:10196000FFFFFFFFFFFFFFFFFFFFFFFFFFFFFFFF87
:10197000FFFFFFFFFFFFFFFFFFFFFFFFFFFFFFFF77
:10198000FFFFFFFFFFFFFFFFFFFFFFFFFFFFFFFF67
:10199000FFFFFFFFFFFFFFFFFFFFFFFFFFFFFFFF57
:1019A000FEFEFEFEFEFEFFFFFFFEFEFEFEFEFEFE54
:1019B000FEFEFEFEFEFEFEFEFEFEFEFEFEFEFDFD49
:1019C000FDFFFFFFFFFFFFFDFDFDFEFEFEFEFEFE35
:1019D000FEFEFEFEFEFEFFFFFFFFFFFFFFFFFFFD1F
:1019E000FDFDFFFFFFFFFFFFFEFEFEFEFEFEFFFF11
:1019F000FFFFFFFFFFFFFFFFFFFFFFFFFFFFFFFFF7
:101A0000FFFFFFFFFFFFFFFFFFFFFFFFFFFFFFFFE6
:101A1000FFFFFFFFFFFFFFFFFFFFFFFFFFFFFFFFD6
:101A2000FFFFFFFFFFFFFFFFFFFFFFFFFFFFFFFFC6
:101A3000FFFFFFFFFFFFFFFFFFFFFFFFFFFFFFFFB6
:101A4000FFFFFFFFFFFFFFFFFFFFFFFFFFFFFFFFA6
:101A5000FFFFFFFFFFFFFFFFFFFFFFFFFFFFFFFF96
:101A6000FFFFFFFFFFFFFFFFFFFFFFFFFFFFFFFF86
:101A7000FFFFFFFFFFFFFFFFFFFFFFFFFFFFFFFF76
:101A8000FFFFFFFFFFFFFFFFFFFFFFFFFFFFFFFF66
:101A9000FFFFFFFFFFFFFFFFFFFFFFFFFFFFFFFF56
:101AA000FFFFFFFFFFFFFFFFFFFFFFFFFFFFFFFF46
:101AB000FFFFFFFFFFFFFFFFFFFFFFFFFFFFFFFF36
:101AC000FFFFFFFFFFFFFFFFFFFFFFFFFFFFFFFF26
:101AD000FFFFFFFFFFFFFFFFFFFFFFFFFFFFFFFF16
:101AE000FFFFFFFFFFFFFFFFFFFFFFFFFFFFFFFF06
:101AF000FFFFFFFFFFFFFFFFFFFFFFFFFFFFFFFFF6
:101B0000FFFFFFFFFFFFFFFFFFFFFFFFFFFFFFFFE5
:101B1000FFFFFFFFFFFFFFFFFFFFFFFFFFFFFFFFD5
:101B2000FFFFFFFFFFFFFFFFFFFFFFFFFFFFFFFFC5
:101B3000FFFFFFFFFFFFFFFFFFFFFFFFFFFFFFFFB5
:101B4000FFFFFFFFFFFFFFFFFFFFFFFFFFFFFFFFA5
:101B5000FFFFFFFFFFFFFFFFFFFFFFFFFFFFFFFF95
:101B6000FFFFFFFFFFFFFFFFFFFFFFFFFFFFFFFF85
:101B7000FFFFFFFFFFFFFFFFFFFFFFFFFFFFFFFF75
:101B8000FFFFFFFFFFFFFFFFFFFFFFFFFFFFFFFF65
:101B9000FFFFFFFFFFFFFFFFFFFFFFFFFFFFFFFF55
:101BA000FFFFFFFFFFFFFFFFFFFFFFFFFFFFFFFF45
:101BB000FFFFFFFFFFFFFFFFFFFEFFFCFEFEFEFC3F
:101BC000FDFDFDFEFEFEFEFFEDA7AFCB0C2DCE1200
:101BD00033D01234C91131EDA1ACFDFEFDFCFFFE86
:101BE000FCFFFEFEFEFEFFFEFDFFFEFEFFFEFFFF12
:101BF000FEFFFFFEFFFEFEFEFFFFFFFFFFFFFFFFFA
:101C0000FFFEFEFEFEFEFEFEFEFEFEFEFEFDFDFDF6
:101C1000FFFFFFFFFFFFFFFFFFFFFFFFFFFFFFFED5
:101C2000FEFEFEFEFEFEFEFEFEFEFEFEFEFEFEFED4
:101C3000FEFEFEFEFCFCFCFEFEFEFEFEFEFFFFFFC7
:101C4000FEFEFEFEFEFEFEFEFEFEFEFEFEFEFEFEB4
:101C5000FEFEFEFEFEFEFEFEFDFDFDFEFEFEFEFEA7
:101C6000FEFFFFFFFFFFFFFEFEFEFEFEFEFFFFFF8B
:101C7000FFFFFFFDFDFDFEFEFEFEFEFEFEFEFEFE84
:101C8000FEFEFEFEFEFEFEFEFEFEFEFFFFFFFFFF6F
:101C9000FFFFFFFFFFFFFFFFFFFFFFFFFFFFFFFF54
:101CA000FFFFFFFFFFFFFFFFFFFFFFFFFFFFFFFF44
:101CB000FFFFFFFFFFFFFFFFFFFFFFFFFFFFFFFF34
:101CC000FFFFFFFFFFFFFFFFFFFFFFFFFFFFFFFF24
:101CD000FFFFFFFFFFFFFFFFFFFFFFFFFFFFFFFF14
:101CE000FFFFFFFFFFFFFFFFFFFFFFFFFFFFFFFF04
:101CF000FFFFFFFFFFFFFFFFFFFFFFFFFFFFFFFFF4
:101D0000FFFFFFFFFFFFFFFFFFFFFFFFFFFFFFFFE3
:101D1000FFFFFFFFFFFFFFFFFFFFFFFFFFFFFFFFD3
:101D2000FFFFFFFFFFFFFFFFFFFFFFFFFFFFFFFFC3
:101D3000FFFFFFFFFFFFFFFFFFFFFFFFFFFFFFFFB3
:101D4000FFFFFFFFFFFFFFFFFFFFFFFFFFFFFFFFA3
:101D5000FFFFFFFFFFFFFFFFFFFFFFFFFFFEFEFE96
:101D6000FCFCFCFEFEFEFEFEFEFEFEFEFEFEFEFE99
:101D7000FEFEFEFEFEFEFEFEFEFEFEFEFEFEFEFE83
:101D8000FEFDFDFDFEFEFEFEFEFEFEFEFEFEFEFE76
:101D9000FEFEFEFEFEFEFFFFFFFEFEFEFEFEFEFE60
:101DA000FEFEFCFCFCFDFDFDFEFEFEFFFFFFFFFF57
:101DB000FFFFFFFFFFFFFFFFFFFFFFFFFFFFFFFF33
:101DC000FFFFFFFFFFFFFFFFFFFFFFFFFFFFFFFF23
:101DD000FFFFFFFFFFFFFFFFFFFFFFFFFFFFFFFF13
:101DE000FFFFFFFFFFFFFFFFFFFFFFFFFFFFFFFF03
:101DF000FFFFFFFFFFFFFFFFFFFFFFFFFFFFFFFFF3
:101E0000FFFFFFFFFFFFFFFFFFFFFFFFFFFFFFFFE2
:101E1000FFFFFFFFFFFFFFFFFFFFFFFFFFFFFFFFD2
:101E2000FFFFFFFFFFFFFFFFFFFFFFFFFFFFFFFFC2
:101E3000FFFFFFFFFFFFFFFFFFFFFFFFFFFFFFFFB2
:101E4000FFFFFFFFFFFFFFFFFFFFFFFFFFFFFFFFA2
:101E5000FFFFFFFFFFFFFFFFFFFFFFFFFFFFFFFF92
:101E6000FFFFFFFFFFFFFFFFFFFFFFFFFFFFFFFF82
:101E7000FFFFFFFFFFFFFFFFFFFFFFFFFFFFFFFF72
:101E8000FFFFFFFFFFFFFFFFFFFFFFFFFFFFFFFF62
:101E9000FFFFFFFFFFFFFFFFFFFFFFFFFFFFFFFF52
:101EA000FFFFFFFFFFFFFFFFFFFFFFFFFFFFFFFF42
:101EB000FFFFFFFFFFFFFFFFFFFFFFFFFFFFFFFF32
:101EC000FFFFFFFFFFFFFFFFFFFFFFFFFFFFFFFF22
:101ED000FFFFFFFFFFFFFFFFFFFFFFFFFFFFFFFF12
:101EE000FFFFFFFFFFFFFFFFFFFFFFFFFFFFFFFF02
:101EF000FFFFFFFFFFFFFFFFFFFFFFFFFFFFFFFFF2
:101F0000FFFFFFFFFFFFFFFFFFFFFFFFFFFFFFFFE1
:101F1000FFFFFFFFFFFFFFFFFFFFFFFFFFFFFFFFD1
:101F2000FFFFFFFFFFFFFFFFFFFFFFFFFFFFFFFFC1
:101F3000FFFFFFFFFFFFFFFFFFFFFFFFFFFFFFFFB1
:101F4000FFFFFFFFFFFFFFFFFFFFFFFFFFFFFFFFA1
:101F5000FFFFFFFFFFFFFFFFFFFFFFFFFFFFFFFF91
:101F6000FFFFFFFFFFFFFFFFFFFFFFFFFFFFFFFF81
:101F7000FFFFFFFFFFFFFFFFFDFEFEFFFDFDFFFD7B
:101F8000FFFFFEFFFFEEA6AFCB0B2ECF1233D0121A
:101F900031CA1131EBA3AFFEFEFDFEFFFDFFFFFFD7
:101FA000FFFFFFFFFFFFFFFFFFFFFFFFFFFFFFFF41
:101FB000FFFFFEFEFEFEFEFEFDFDFDFEFEFEFEFE42
:101FC000FEFEFEFEFDFDFDFDFDFDFEFEFEFFFFFF34
:101FD000FFFFFFFFFFFFFFFFFFFEFEFEFEFEFEFE18
:101FE000FEFEFEFEFEFDFDFDFEFEFEFEFEFEFEFE14
:101FF000FEFDFDFDFEFEFEFEFEFEFDFDFDFEFEFE07
:10200000FEFEFEFEFEFEFDFDFDFEFEFEFCFCFCFEF9
:10201000FEFEFEFEFEFEFEFEFDFDFDFEFEFEFDFDE5
:10202000FDFFFFFFFEFEFEFDFDFDFEFEFEFEFEFED1
:10203000FEFEFEFEFEFEFEFEFEFEFEFEFEFEFEFEC0
:10204000FEFEFEFEFEFEFEFEFFFFFFFFFFFFFFFFA8
:10205000FFFFFFFFFFFFFFFFFFFFFFFFFFFFFFFF90
:10206000FFFFFFFFFFFFFFFFFFFFFFFFFFFFFFFF80
:10207000FFFFFFFFFFFFFFFFFFFFFFFFFFFFFFFF70
:10208000FFFFFFFFFFFFFFFFFFFFFFFFFFFFFFFF60
:10209000FFFFFFFFFFFFFFFFFFFFFFFFFFFFFFFF50
:1020A000FFFFFFFFFFFFFFFFFFFFFFFFFFFFFFFF40
:1020B000FFFFFFFFFFFFFFFFFFFFFFFFFFFFFFFF30
:1020C000FFFFFFFFFFFFFFFFFFFFFFFFFFFFFFFF20
:1020D000FFFFFFFFFFFFFFFFFFFFFFFFFFFFFFFF10
:1020E000FFFFFFFFFFFFFFFFFFFFFFFFFFFFFFFF00
:1020F000FFFFFFFFFFFFFFFFFFFFFFFFFFFFFFFFF0
:10210000FFFFFFFFFFFFFFFFFFFFFFFFFFFFFFFFDF
:10211000FFFFFFFFFFFFFFFEFEFEFEFEFEFEFEFED8
:10212000FEFEFEF9F9F9F6F6F6F7F7F7F8F8F8F724
:10213000F7F7F6F6F6F8F8F8F6F6F6F5F5F5F8F836
:10214000F8F7F7F7F5F5F5F7F7F7F7F7F7F5F5F52A
:10215000F8F8F8F8F8F8F7F7F7F7F7F7F5F5F5FE08
:10216000FEFEFEFEFEFEFEFEFFFFFFFFFFFFFFFF87
:10217000FFFFFFFFFFFFFFFFFFFFFFFFFFFFFFFF6F
:10218000FFFFFFFFFFFFFFFFFFFFFFFFFFFFFFFF5F
:10219000FFFFFFFFFFFFFFFFFFFFFFFFFFFFFFFF4F
:1021A000FFFFFFFFFFFFFFFFFFFFFFFFFFFFFFFF3F
:1021B000FFFFFFFFFFFFFFFFFFFFFFFFFFFFFFFF2F
:1021C000FFFFFFFFFFFFFFFFFFFFFFFFFFFFFFFF1F
:1021D000FFFFFFFFFFFFFFFFFFFFFFFFFFFFFFFF0F
:1021E000FFFFFFFFFFFFFFFFFFFFFFFFFFFFFFFFFF
:1021F000FFFFFFFFFFFFFFFFFFFFFFFFFFFFFFFFEF
:10220000FFFFFFFFFFFFFFFFFFFFFFFFFFFFFFFFDE
:10221000FFFFFFFFFFFFFFFFFFFFFFFFFFFFFFFFCE
:10222000FFFFFFFFFFFFFFFFFFFFFFFFFFFFFFFFBE
:10223000FFFFFFFFFFFFFFFFFFFFFFFFFFFFFFFFAE
:10224000FFFFFFFFFFFFFFFFFFFFFFFFFFFFFFFF9E
:10225000FFFFFFFFFFFFFFFFFFFFFFFFFFFFFFFF8E
:10226000FFFFFFFFFFFFFFFFFFFFFFFFFFFFFFFF7E
:10227000FFFFFFFFFFFFFFFFFFFFFFFFFFFFFFFF6E
:10228000FFFFFFFFFFFFFFFFFFFFFFFFFFFFFFFF5E
:10229000FFFFFFFFFFFFFFFFFFFFFFFFFFFFFFFF4E
:1022A000FFFFFFFFFFFFFFFFFFFFFFFFFFFFFFFF3E
:1022B000FFFFFFFFFFFFFFFFFFFFFFFFFFFFFFFF2E
:1022C000FFFFFFFFFFFFFFFFFFFFFFFFFFFFFFFF1E
:1022D000FFFFFFFFFFFFFFFFFFFFFFFFFFFFFFFF0E
:1022E000FFFFFFFFFFFFFFFFFFFFFFFFFFFFFFFFFE
:1022F000FFFFFFFFFFFFFFFFFFFFFFFFFFFFFFFFEE
:10230000FFFFFFFFFFFFFFFFFFFFFFFFFFFFFFFFDD
:10231000FFFFFFFFFFFFFFFFFFFFFFFFFFFFFFFFCD
:10232000FFFFFFFFFFFFFFFFFFFFFFFFFFFFFFFFBD
:10233000FFFFFFFFFFFDFEFEFFFDFDFFFDFFFFFEB8
:10234000FFFFEEA6AFCB0B2ECF1233D01231CA1146
:1023500031EBA3AFFEFEFDFEFFFDFFFFFFFFFFFF22
:10236000FFFFFFFFFFFFFFFFFFFFFFFFFBFBFBF791
:10237000F7F7FEFEFEFCFCFCFDFDFDFEFEFEFDFD96
:10238000FDFEFEFEFEFEFEFEFEFEFEFEFEFEFEFE6E
:10239000FEFEFEFEFEFEFFFFFFFEFEFEFEFEFEFE5A
:1023A000FEFEFFFFFFFEFEFEFDFDFDFDFDFDFEFE50
:1023B000FEF9F9F9FCFCFCFEFEFEFDFDFDFEFEFE55
:1023C000FEFEFEFEFEFEFBFBFBFEFEFEFEFEFEFE36
:1023D000FEFEFEFEFEFEFEFEFEFEFEFEFEFEFEFE1D
:1023E000FEFCFCFCFEFEFEFDFDFDFDFDFDFEFEFE19
:1023F000FEFEFEFEFEFEFEFEFEFEFEFEFEFEFEFDFE
:10240000FDFDFCFCFCFEFEFEFFFFFFFFFFFFFFFFEC
:10241000FFFFFFFFFFFFFFFFFFFFFFFFFFFFFFFFCC
:10242000FFFFFFFFFFFFFFFFFFFFFFFFFFFFFFFFBC
:10243000FFFFFFFFFFFFFFFFFFFFFFFFFFFFFFFFAC
:10244000FFFFFFFFFFFFFFFFFFFFFFFFFFFFFFFF9C
:10245000FFFFFFFFFFFFFFFFFFFFFFFFFFFFFFFF8C
:10246000FFFFFFFFFFFFFFFFFFFFFFFFFFFFFFFF7C
:10247000FFFFFFFFFFFFFFFFFFFFFFFFFFFFFFFF6C
:10248000FFFFFFFFFFFFFFFFFFFFFFFFFFFFFFFF5C
:10249000FFFFFFFFFFFFFFFFFFFFFFFFFFFFFFFF4C
:1024A000FFFFFFFFFFFFFFFFFFFFFFFFFFFFFFFF3C
:1024B000FFFFFFFFFFFFFFFFFFFFFFFFFFFFFFFF2C
:1024C000FFFFFFFFFFFFFFFFFFFFFFFFFFFFFFFF1C
:1024D000FFFFFFFFFEFEFEFEFEFEFEFEFEF9F9F927
:1024E0008B8B8B4040404040403F3F3F3F3F3F4011
:1024F00040403F3F3F4141414040403E3E3E3E3EE6
:102500003E4040404040403F3F3F3F3F3F3F3F3FD6
:102510003F3F3F404040404040757575FCFCFCFE2D
:10252000FEFEFEFEFEFFFFFFFFFFFFFFFFFFFFFFC0
:10253000FFFFFFFFFFFFFFFFFFFFFFFFFFFFFFFFAB
:10254000FFFFFFFFFFFFFFFFFFFFFFFFFFFFFFFF9B
:10255000FFFFFFFFFFFFFFFFFFFFFFFFFFFFFFFF8B
:10256000FFFFFFFFFFFFFFFFFFFFFFFFFFFFFFFF7B
:10257000FFFFFFFFFFFFFFFFFFFFFFFFFFFFFFFF6B
:10258000FFFFFFFFFFFFFFFFFFFFFFFFFFFFFFFF5B
:10259000FFFFFFFFFFFFFFFFFFFFFFFFFFFFFFFF4B
:1025A000FFFFFFFFFFFFFFFFFFFFFFFFFFFFFFFF3B
:1025B000FFFFFFFFFFFFFFFFFFFFFFFFFFFFFFFF2B
:1025C000FFFFFFFFFFFFFFFFFFFFFFFFFFFFFFFF1B
:1025D000FFFFFFFFFFFFFFFFFFFFFFFFFFFFFFFF0B
:1025E000FFFFFFFFFFFFFFFFFFFFFFFFFFFFFFFFFB
:1025F000FFFFFFFFFFFFFFFFFFFFFFFFFFFFFFFFEB
:10260000FFFFFFFFFFFFFFFFFFFFFFFFFFFFFFFFDA
:10261000FFFFFFFFFFFFFFFFFFFFFFFFFFFFFFFFCA
:10262000FFFFFFFFFFFFFFFFFFFFFFFFFFFFFFFFBA
:10263000FFFFFFFFFFFFFFFFFFFFFFFFFFFFFFFFAA
:10264000FFFFFFFFFFFFFFFFFFFFFFFFFFFFFFFF9A
:10265000FFFFFFFFFFFFFFFFFFFFFFFFFFFFFFFF8A
:10266000FFFFFFFFFFFFFFFFFFFFFFFFFFFFFFFF7A
:10267000FFFFFFFFFFFFFFFFFFFFFFFFFFFFFFFF6A
:10268000FFFFFFFFFFFFFFFFFFFFFFFFFFFFFFFF5A
:10269000FFFFFFFFFFFFFFFFFFFFFFFFFFFFFFFF4A
:1026A000FFFFFFFFFFFFFFFFFFFFFFFFFFFFFFFF3A
:1026B000FFFFFFFFFFFFFFFFFFFFFFFFFFFFFFFF2A
:1026C000FFFFFFFFFFFFFFFFFFFFFFFFFFFFFFFF1A
:1026D000FFFFFFFFFFFFFFFFFFFFFFFFFFFFFFFF0A
:1026E000FFFFFFFFFFFFFFFFFFFFFFFFFFFFFFFFFA
:1026F000FFFFFDFEFEFFFDFDFFFDFFFFFEFFFFEE06
:10270000A6AFCB0B2ECF1233D01231CA1131EBA3AF
:10271000AFFEFEFDFEFFFDFFFFFFFFFFFFFFFFFF20
:10272000FFFFFFFFFFFFFFFFFFB1B1B16D6D6DFC5C
:10273000FCFCFEFEFEFCFCFCFCFCFCFEFEFEFEFEC9
:10274000FEFEFEFEFEFEFEFEFEFEFDFDFDFDFDFDAF
:10275000FDFDFDFEFEFEFEFEFEFEFEFEFDFDFDE2BB
:10276000E2E2DBDBDBFDFDFDFDFDFDFBFBFB8D8D1B
:102770008DAFAFAFFDFDFDFEFEFEE2E2E2E1E1E185
:10278000FCFCFCFEFEFEFDFDFDFEFEFEFEFEFEFE72
:10279000FEFEFEFEFEFEFEFEFFFFFFFEFEFEF6F666
:1027A000F6D5D5D5F1F1F1FCFCFCFEFEFEFEFEFEF9
:1027B000FDFDFDFEFEFEFEFEFEFDFDFDFEFEFEFE3F
:1027C000FEFEFDFDFDFFFFFFFFFFFFFFFFFFFFFF21
:1027D000FFFFFFFFFFFFFFFFFFFFFFFFFFFFFFFF09
:1027E000FFFFFFFFFFFFFFFFFFFFFFFFFFFFFFFFF9
:1027F000FFFFFFFFFFFFFFFFFFFFFFFFFFFFFFFFE9
:10280000FFFFFFFFFFFFFFFFFFFFFFFFFFFFFFFFD8
:10281000FFFFFFFFFFFFFFFFFFFFFFFFFFFFFFFFC8
:10282000FFFFFFFFFFFFFFFFFFFFFFFFFFFFFFFFB8
:10283000FFFFFFFFFFFFFFFFFFFFFFFFFFFFFFFFA8
:10284000FFFFFFFFFFFFFFFFFFFFFFFFFFFFFFFF98
:10285000FFFFFFFFFFFFFFFFFFFFFFFFFFFFFFFF88
:10286000FFFFFFFFFFFFFFFFFFFFFFFFFFFFFFFF78
:10287000FFFFFFFFFFFFFFFFFFFFFFFFFFFFFFFF68
:10288000FFFFFFFFFFFFFFFFFFFFFFFFFFFFFFFF58
:10289000FFFEFEFEFEFEFEFEFEFEF5F5F55A5A5A5E
:1028A0000000000000000101010000000000000124
:1028B0000101010101000000010101000000000010
:1028C0000000000000000000000000000000000008
:1028D000000000000000333333FAFAFAFEFEFEFE79
:1028E000FEFEFFFFFFFFFFFFFFFFFFFFFFFFFFFFFA
:1028F000FFFFFFFFFFFFFFFFFFFFFFFFFFFFFFFFE8
:10290000FFFFFFFFFFFFFFFFFFFFFFFFFFFFFFFFD7
:10291000FFFFFFFFFFFFFFFFFFFFFFFFFFFFFFFFC7
:10292000FFFFFFFFFFFFFFFFFFFFFFFFFFFFFFFFB7
:10293000FFFFFFFFFFFFFFFFFFFFFFFFFFFFFFFFA7
:10294000FFFFFFFFFFFFFFFFFFFFFFFFFFFFFFFF97
:10295000FFFFFFFFFFFFFFFFFFFFFFFFFFFFFFFF87
:10296000FFFFFFFFFFFFFFFFFFFFFFFFFFFFFFFF77
:10297000FFFFFFFFFFFFFFFFFFFFFFFFFFFFFFFF67
:10298000FFFFFFFFFFFFFFFFFFFFFFFFFFFFFFFF57
:10299000FFFFFFFFFFFFFFFFFFFFFFFFFFFFFFFF47
:1029A000FFFFFFFFFFFFFFFFFFFFFFFFFFFFFFFF37
:1029B000FFFFFFFFFFFFFFFFFFFFFFFFFFFFFFFF27
:1029C000FFFFFFFFFFFFFFFFFFFFFFFFFFFFFFFF17
:1029D000FFFFFFFFFFFFFFFFFFFFFFFFFFFFFFFF07
:1029E000FFFFFFFFFFFFFFFFFFFFFFFFFFFFFFFFF7
:1029F000FFFFFFFFFFFFFFFFFFFFFFFFFFFFFFFFE7
:102A0000FFFFFFFFFFFFFFFFFFFFFFFFFFFFFFFFD6
:102A1000FFFFFFFFFFFFFFFFFFFFFFFFFFFFFFFFC6
:102A2000FFFFFFFFFFFFFFFFFFFFFFFFFFFFFFFFB6
:102A3000FFFFFFFFFFFFFFFFFFFFFFFFFFFFFFFFA6
:102A4000FFFFFFFFFFFFFFFFFFFFFFFFFFFFFFFF96
:102A5000FFFFFFFFFFFFFFFFFFFFFFFFFFFFFFFF86
:102A6000FFFFFFFFFFFFFFFFFFFFFFFFFFFFFFFF76
:102A7000FFFFFFFFFFFFFFFFFFFFFFFFFFFFFFFF66
:102A8000FFFFFFFFFFFFFFFFFFFFFFFFFFFFFFFF56
:102A9000FFFFFFFFFFFFFFFFFFFFFFFFFFFFFFFF46
:102AA000FFFFFFFFFFFFFFFFFFFFFFFFFFFFFFFD38
:102AB000FEFEFFFDFDFFFDFFFFFEFFFFEEA6AFCB1D
:102AC0000B2ECF1233D01231CA1131EBA3AFFEFE61
:102AD000FDFEFFFDFFFFFFFFFFFFFFFFFFFFFFFF0B
:102AE000FFFFFFFFFFFF898989202020FCFCFCFD00
:102AF000FDFDFDFDFDFEFEFEFDFDFDFEFEFEFEFEFE
:102B0000FEFDFDFDFEFEFEFDFDFDFEFEFEFEFEFEEB
:102B1000FEFEFEFDFDFDFEFEFEFEFEFE80808066EA
:102B20006666FCFCFCFEFEFEFAFAFAA5A5A5BEBE92
:102B3000BEFCFCFCFBFBFB8A8A8A838383F4F4F4EF
:102B4000FDFDFDFEFEFEFEFEFEFEFEFEFEFEFEFEA8
:102B5000FEFEFEFEFEFEFEFEFEFEFED8D8D84F4F65
:102B60004FC8C8C8FEFEFEFEFEFEFEFEFEFEFEFED6
:102B7000FEFEFEFEFEFEFFFFFFFDFDFDFEFEFEFF74
:102B8000FFFFFFFFFFFFFFFFFFFFFFFFFFFFFFFF55
:102B9000FFFFFFFFFFFFFFFFFFFFFFFFFFFFFFFF45
:102BA000FFFFFFFFFFFFFFFFFFFFFFFFFFFFFFFF35
:102BB000FFFFFFFFFFFFFFFFFFFFFFFFFFFFFFFF25
:102BC000FFFFFFFFFFFFFFFFFFFFFFFFFFFFFFFF15
:102BD000FFFFFFFFFFFFFFFFFFFFFFFFFFFFFFFF05
:102BE000FFFFFFFFFFFFFFFFFFFFFFFFFFFFFFFFF5
:102BF000FFFFFFFFFFFFFFFFFFFFFFFFFFFFFFFFE5
:102C0000FFFFFFFFFFFFFFFFFFFFFFFFFFFFFFFFD4
:102C1000FFFFFFFFFFFFFFFFFFFFFFFFFFFFFFFFC4
:102C2000FFFFFFFFFFFFFFFFFFFFFFFFFFFFFFFFB4
:102C3000FFFFFFFFFFFFFFFFFFFFFFFFFFFFFFFFA4
:102C4000FFFFFFFFFFFFFFFFFFFFFFFFFFFFFFFF94
:102C5000FFFDFDFDFEFEFEFBFBFBABABAB6B6B6B51
:102C60005454542C2C2C0B0B0B01010101010100BD
:102C7000000000000000000002020200000000004E
:102C8000000000000000000303032F2F2F535353B5
:102C90006969699C9C9CFDFDFDFDFDFDFEFEFEFF3E
:102CA000FFFFFFFFFFFFFFFFFFFFFFFFFFFFFFFF34
:102CB000FFFFFFFFFFFFFFFFFFFFFFFFFFFFFFFF24
:102CC000FFFFFFFFFFFFFFFFFFFFFFFFFFFFFFFF14
:102CD000FFFFFFFFFFFFFFFFFFFFFFFFFFFFFFFF04
:102CE000FFFFFFFFFFFFFFFFFFFFFFFFFFFFFFFFF4
:102CF000FFFFFFFFFFFFFFFFFFFFFFFFFFFFFFFFE4
:102D0000FFFFFFFFFFFFFFFFFFFFFFFFFFFFFFFFD3
:102D1000FFFFFFFFFFFFFFFFFFFFFFFFFFFFFFFFC3
:102D2000FFFFFFFFFFFFFFFFFFFFFFFFFFFFFFFFB3
:102D3000FFFFFFFFFFFFFFFFFFFFFFFFFFFFFFFFA3
:102D4000FFFFFFFFFFFFFFFFFFFFFFFFFFFFFFFF93
:102D5000FFFFFFFFFFFFFFFFFFFFFFFFFFFFFFFF83
:102D6000FFFFFFFFFFFFFFFFFFFFFFFFFFFFFFFF73
:102D7000FFFFFFFFFFFFFFFFFFFFFFFFFFFFFFFF63
:102D8000FFFFFFFFFFFFFFFFFFFFFFFFFFFFFFFF53
:102D9000FFFFFFFFFFFFFFFFFFFFFFFFFFFFFFFF43
:102DA000FFFFFFFFFFFFFFFFFFFFFFFFFFFFFFFF33
:102DB000FFFFFFFFFFFFFFFFFFFFFFFFFFFFFFFF23
:102DC000FFFFFFFFFFFFFFFFFFFFFFFFFFFFFFFF13
:102DD000FFFFFFFFFFFFFFFFFFFFFFFFFFFFFFFF03
:102DE000FFFFFFFFFFFFFFFFFFFFFFFFFFFFFFFFF3
:102DF000FFFFFFFFFFFFFFFFFFFFFFFFFFFFFFFFE3
:102E0000FFFFFFFFFFFFFFFFFFFFFFFFFFFFFFFFD2
:102E1000FFFFFFFFFFFFFFFFFFFFFFFFFFFFFFFFC2
:102E2000FFFFFFFFFFFFFFFFFFFFFFFFFFFFFFFFB2
:102E3000FFFFFFFFFFFFFFFFFFFFFFFFFFFFFFFFA2
:102E4000FFFFFFFFFFFFFFFFFFFFFFFFFFFFFFFF92
:102E5000FFFFFFFFFFFFFFFFFFFFFFFFFFFFFFFF82
:102E6000FFFFFFFFFFFFFFFFFFFFFFFFFDFEFEFF76
:102E7000FDFDFFFDFFFFFEFFFFEEA6AFCB0B2ECF4C
:102E80001233D01231CA1131EBA3AFFEFEFDFEFFAB
:102E9000FDFFFFFFFFFFFFFFFFFFFFFFFFFFFFFF44
:102EA000FFFFFF8D8D8D2A2A2AFDFDFDFDFDFDFE14
:102EB000FEFEFEFEFEFDFDFDFCFCFCFCFCFCFDFD43
:102EC000FDFEFEFEFEFEFEFDFDFDFEFEFEFCFCFC2C
:102ED000FEFEFEFEFEFEFBFBFB757575505050FDC1
:102EE000FDFDFEFEFEFEFEFEF9F9F9FBFBFBFEFE1C
:102EF000FEFBFBFB808080777777F6F6F6FEFEFE22
:102F0000FEFEFEFCFCFCFEFEFEFEFEFEFCFCFCFDEE
:102F1000FDFDFEFEFEFEFEFED5D5D5393939C2C215
:102F2000C2FBFBFBFEFEFEFDFDFDFEFEFEFBFBFB12
:102F3000FEFEFEFEFEFEFDFDFDFEFEFEFEFEFEFFB3
:102F4000FFFFFFFFFFFFFFFFFFFFFFFFFFFFFFFF91
:102F5000FFFFFFFFFFFFFFFFFFFFFFFFFFFFFFFF81
:102F6000FFFFFFFFFFFFFFFFFFFFFFFFFFFFFFFF71
:102F7000FFFFFFFFFFFFFFFFFFFFFFFFFFFFFFFF61
:102F8000FFFFFFFFFFFFFFFFFFFFFFFFFFFFFFFF51
:102F9000FFFFFFFFFFFFFFFFFFFFFFFFFFFFFFFF41
:102FA000FFFFFFFFFFFFFFFFFFFFFFFFFFFFFFFF31
:102FB000FFFFFFFFFFFFFFFFFFFFFFFFFFFFFFFF21
:102FC000FFFFFFFFFFFFFFFFFFFFFFFFFFFFFFFF11
:102FD000FFFFFFFFFFFFFFFFFFFFFFFFFFFFFFFF01
:102FE000FFFFFFFFFFFFFFFFFFFFFFFFFFFFFFFFF1
:102FF000FFFFFFFFFFFFFFFFFFFFFFFFFFFFFFFFE1
:10300000FFFFFFFFFFFFFFFFFFFFFFFEFEFEFEFED5
:10301000FEFCFCFCFFFFFFFEFEFEFCFCFCFEFEFED9
:10302000FCFCFCCCCCCC4A4A4A0404040202020058
:103030000000000000000000000000020202040482
:10304000044D4D4DD3D3D3FEFEFEFEFEFEFEFEFE2E
:10305000FEFEFEFDFDFDFEFEFEFFFFFFFFFFFFFF8C
:10306000FFFFFFFFFFFFFFFFFFFFFFFFFFFFFFFF70
:10307000FFFFFFFFFFFFFFFFFFFFFFFFFFFFFFFF60
:10308000FFFFFFFFFFFFFFFFFFFFFFFFFFFFFFFF50
:10309000FFFFFFFFFFFFFFFFFFFFFFFFFFFFFFFF40
:1030A000FFFFFFFFFFFFFFFFFFFFFFFFFFFFFFFF30
:1030B000FFFFFFFFFFFFFFFFFFFFFFFFFFFFFFFF20
:1030C000FFFFFFFFFFFFFFFFFFFFFFFFFFFFFFFF10
:1030D000FFFFFFFFFFFFFFFFFFFFFFFFFFFFFFFF00
:1030E000FFFFFFFFFFFFFFFFFFFFFFFFFFFFFFFFF0
:1030F000FFFFFEFEFEFEFEFEFFFFFFFEFEFEFEFEEB
:10310000FEFFFFFFFEFEFEFEFEFEFFFFFFFFFFFFD6
:10311000FEFEFEFFFFFFFFFFFFFFFFFFFEFEFEFEC6
:10312000FEFEFEFEFEFEFEFEFEFEFEFEFEFEFFFFBD
:10313000FFFFFFFFFFFFFFFFFFFFFFFFFFFFFFFF9F
:10314000FFFFFFFFFFFFFFFFFFFFFFFFFFFFFFFF8F
:10315000FFFFFFFFFFFFFFFFFFFFFFFFFFFFFFFF7F
:10316000FFFFFFFFFFFFFFFFFFFFFFFFFFFFFFFF6F
:10317000FFFFFFFFFFFFFFFFFFFFFFFFFFFFFFFF5F
:10318000FFFFFFFFFFFFFFFFFFFFFFFFFFFFFFFF4F
:10319000FFFFFFFFFFFFFFFFFFFFFFFFFFFFFFFF3F
:1031A000FFFFFFFFFFFFFFFFFFFFFFFFFFFFFFFF2F
:1031B000FFFFFFFFFFFFFFFFFFFFFFFFFFFFFFFF1F
:1031C000FFFFFFFFFFFFFFFFFFFFFFFFFFFFFFFF0F
:1031D000FFFFFFFFFFFFFFFFFFFFFFFFFFFFFFFFFF
:1031E000FFFFFFFFFFFFFFFFFFFFFFFFFFFFFFFFEF
:1031F000FFFFFFFFFFFFFFFFFFFFFFFFFFFFFFFFDF
:10320000FFFFFFFFFFFFFFFFFFFFFFFFFFFFFFFFCE
:10321000FFFFFFFFFFFFFFFFFFFFFFFFFFFFFFFFBE
:10322000FFFFFFFFFFFFFFFFFFFDFEFEFFFDFDFFB6
:10323000FDFFFFFEFFFFEEA6AFCB0B2ECF1233D06C
:103240001231CA1131EBA3AFFEFEFDFEFFFDFFFF01
:10325000FFFFFFFFFFFFFFFFFFFFFFFFFFFFFFFF7E
:103260008D8D8D262626FFFFFFDDDDDDA5A5A5CEF4
:10327000CECE565656494949B9B9B9FBFBFBFDFDBF
:10328000FDEAEAEA848484353535585858CACACAF2
:10329000F7F7F7969696333333262626787878CB49
:1032A000CBCBF8F8F8AFAFAFC7C7C7FDFDFD8E8E2B
:1032B0008E3B3B3B363636727272C7C7C7EAEAEAC4
:1032C000A4A4A4DDDDDDFFFFFFF6F6F6B2B2B2CBBB
:1032D000CBCBF1F1F16464641A1A1A5B5B5B7E7EFE
:1032E0007EECECECF1F1F18F8F8F3636364B4B4B99
:1032F000BBBBBBFAFAFAFEFEFEFEFEFEFFFFFFFFBF
:10330000FFFFFFFFFFFFFFFFFFFFFFFFFFFFFFFFCD
:10331000FFFFFFFFFFFFFFFFFFFFFFFFFFFFFFFFBD
:10332000FFFFFFFFFFFFFFFFFFFFFFFFFFFFFFFFAD
:10333000FFFFFFFFFFFFFFFFFFFFFFFFFFFFFFFF9D
:10334000FFFFFFFFFFFFFFFFFFFFFFFFFFFFFFFF8D
:10335000FFFFFFFFFFFFFFFFFFFFFFFFFFFFFFFF7D
:10336000FFFFFFFFFFFFFFFFFFFFFFFFFFFFFFFF6D
:10337000FFFFFFFFFFFFFFFFFFFFFFFFFFFFFFFF5D
:10338000FFFFFFFFFFFFFFFFFFFFFFFFFFFFFFFF4D
:10339000FFFFFFFFFFFFFFFFFFFFFFFFFFFFFFFF3D
:1033A000FFFFFFFFFFFFFFFFFFFFFFFFFFFFFFFF2D
:1033B000FFFFFFFFFFFFFFFFFFFFFFFFFFFFFFFF1D
:1033C000FFFFFFFFFFFFFFFFFFFFFFFFFFFFFFFF0D
:1033D000FFFFFFFFFFFFFFFFFFFFFFFFFFFEFEFE00
:1033E000FEFEFEE3E3E33E3E3E0000000000000080
:1033F00000000101010000000101014F4F4FE4E412
:10340000E4FEFEFEFFFFFFFFFFFFFFFFFFFFFFFFEA
:10341000FFFFFFFFFFFFFFFFFFFFFFFFFFFFFFFFBC
:10342000FFFFFFFFFFFFFFFFFFFFFFFFFFFFFFFFAC
:10343000FFFFFFFFFFFFFFFFFFFFFFFFFFFFFFFF9C
:10344000FFFFFFFFFFFFFFFFFFFFFFFFFFFFFFFF8C
:10345000FFFFFFFFFFFFFFFFFFFFFFFFFFFFFFFF7C
:10346000FFFFFFFFFFFFFFFFFFFFFFFFFFFFFFFF6C
:10347000FFFFFFFFFFFFFFFFFFFFFFFFFFFFFFFF5C
:10348000FFFFFFFFFFFFFFFFFFFFFFFFFFFFFFFF4C
:10349000FFFFFFFFFFFFFFFFFFFFFFFFFFFFFFFF3C
:1034A000FFFFFFFFFFFFFFFFFFFFFFFFFFFFFFFE2D
:1034B000FEFEFEFEFEFEFEFEFEFEFEFEFEFEFEFE2C
:1034C000FEFEFEFEFEFEFEFFFFFFFEFEFEFEFEFE19
:1034D000FFFFFFFEFEFEFEFEFEFCFCFCFEFEFEFE0F
:1034E000FEFEFEFEFEFEFEFEFEFEFEFFFFFFFFFFF7
:1034F000FFFFFFFFFFFFFFFFFFFFFFFFFFFFFFFFDC
:10350000FFFFFFFFFFFFFFFFFFFFFFFFFFFFFFFFCB
:10351000FFFFFFFFFFFFFFFFFFFFFFFFFFFFFFFFBB
:10352000FFFFFFFFFFFFFFFFFFFFFFFFFFFFFFFFAB
:10353000FFFFFFFFFFFFFFFFFFFFFFFFFFFFFFFF9B
:10354000FFFFFFFFFFFFFFFFFFFFFFFFFFFFFFFF8B
:10355000FFFFFFFFFFFFFFFFFFFFFFFFFFFFFFFF7B
:10356000FFFFFFFFFFFFFFFFFFFFFFFFFFFFFFFF6B
:10357000FFFFFFFFFFFFFFFFFFFFFFFFFFFFFFFF5B
:10358000FFFFFFFFFFFFFFFFFFFFFFFFFFFFFFFF4B
:10359000FFFFFFFFFFFFFFFFFFFFFFFFFFFFFFFF3B
:1035A000FFFFFFFFFFFFFFFFFFFFFFFFFFFFFFFF2B
:1035B000FFFFFFFFFFFFFFFFFFFFFFFFFFFFFFFF1B
:1035C000FFFFFFFFFFFFFFFFFFFFFFFFFFFFFFFF0B
:1035D000FFFFFFFFFFFFFFFFFFFFFFFFFFFFFFFFFB
:1035E000FFFFFFFFFFFFFDFEFEFFFDFDFFFDFFFFF5
:1035F000FEFFFFEEA6AFCB0B2ECF1233D01231CA97
:103600001131EBA3AFFEFEFDFEFFFDFFFFFFFFFF4D
:10361000FFFFFFFFFFFFFFFFFFFFFFFFFF8C8C8C13
:10362000292929FEFEFEB9B9B91717173B3B3B8282
:103630008282717171383838DDDDDDF8F8F879791A
:10364000794040408E8E8E707070484848CBCBCB0E
:103650008D8D8D2C2C2C212121696969C3C3C3F95F
:10366000F9F9505050868686FCFCFC828282343404
:1036700034303030666666C1C1C1D4D4D4343434F9
:10368000BBBBBBFEFEFEECECEC5D5D5D909090F193
:10369000F1F1595959171717505050696969E4E405
:1036A000E472727239393992929276767634343481
:1036B000B0B0B0FDFDFDFEFEFEFFFFFFFFFFFFFF10
:1036C000FFFFFFFFFFFFFFFFFFFFFFFFFFFFFFFF0A
:1036D000FFFFFFFFFFFFFFFFFFFFFFFFFFFFFFFFFA
:1036E000FFFFFFFFFFFFFFFFFFFFFFFFFFFFFFFFEA
:1036F000FFFFFFFFFFFFFFFFFFFFFFFFFFFFFFFFDA
:10370000FFFFFFFFFFFFFFFFFFFFFFFFFFFFFFFFC9
:10371000FFFFFFFFFFFFFFFFFFFFFFFFFFFFFFFFB9
:10372000FFFFFFFFFFFFFFFFFFFFFFFFFFFFFFFFA9
:10373000FFFFFFFFFFFFFFFFFFFFFFFFFFFFFFFF99
:10374000FFFFFFFFFFFFFFFFFFFFFFFFFFFFFFFF89
:10375000FFFFFFFFFFFFFFFFFFFFFFFFFFFFFFFF79
:10376000FFFFFFFFFFFFFFFFFFFFFFFFFFFFFFFF69
:10377000FFFFFFFFFFFFFFFFFFFFFFFFFFFFFFFF59
:10378000FFFFFFFFFFFFFFFFFFFFFFFFFFFFFFFF49
:10379000FFFFFFFFFFFFFFFFFFFFFEFEFEFEFEFE3F
:1037A000FBFBFB8A8A8A000000000000000000008A
:1037B00000000000000A0A0A909090FCFCFCFEFE4B
:1037C000FEFFFFFFFFFFFFFFFFFFFFFFFFFFFFFF0A
:1037D000FFFFFFFFFFFFFFFFFFFFFFFFFFFFFFFFF9
:1037E000FFFFFFFFFFFFFFFFFFFFFFFFFFFFFFFFE9
:1037F000FFFFFFFFFFFFFFFFFFFFFFFFFFFFFFFFD9
:10380000FFFFFFFFFFFFFFFFFFFFFFFFFFFFFFFFC8
:10381000FFFFFFFFFFFFFFFFFFFFFFFFFFFFFFFFB8
:10382000FFFFFFFFFFFFFFFFFFFFFFFFFFFFFFFFA8
:10383000FFFFFFFFFFFFFFFFFFFFFFFFFFFFFFFF98
:10384000FFFFFFFFFFFFFFFFFFFFFFFFFFFFFFFF88
:10385000FFFFFFFFFFFFFFFFFFFFFFFFFFFFFFFF78
:10386000FFFFFFFFFFFFFFFFFFFFFFFFFEFEFEFE6C
:10387000FEFEFEFEFEFEFEFEFFFFFFFEFEFEFEFE65
:10388000FEFEFEFEFEFEFEFEFEFEFEFEFEFFFFFF55
:10389000FEFEFEFDFDFDFEFEFEFEFEFEFEFEFEFE4B
:1038A000FEFEFEFEFEFFFFFFFFFFFFFFFFFFFFFF2D
:1038B000FFFFFFFFFFFFFFFFFFFFFFFFFFFFFFFF18
:1038C000FFFFFFFFFFFFFFFFFFFFFFFFFFFFFFFF08
:1038D000FFFFFFFFFFFFFFFFFFFFFFFFFFFFFFFFF8
:1038E000FFFFFFFFFFFFFFFFFFFFFFFFFFFFFFFFE8
:1038F000FFFFFFFFFFFFFFFFFFFFFFFFFFFFFFFFD8
:10390000FFFFFFFFFFFFFFFFFFFFFFFFFFFFFFFFC7
:10391000FFFFFFFFFFFFFFFFFFFFFFFFFFFFFFFFB7
:10392000FFFFFFFFFFFFFFFFFFFFFFFFFFFFFFFFA7
:10393000FFFFFFFFFFFFFFFFFFFFFFFFFFFFFFFF97
:10394000FFFFFFFFFFFFFFFFFFFFFFFFFFFFFFFF87
:10395000FFFFFFFFFFFFFFFFFFFFFFFFFFFFFFFF77
:10396000FFFFFFFFFFFFFFFFFFFFFFFFFFFFFFFF67
:10397000FFFFFFFFFFFFFFFFFFFFFFFFFFFFFFFF57
:10398000FFFFFFFFFFFFFFFFFFFFFFFFFFFFFFFF47
:10399000FFFFFFFFFFFFFFFFFFFFFFFFFFFFFFFF37
:1039A000FFFFFFFDFEFEFFFDFDFFFDFFFFFEFFFF32
:1039B000EEA6AFCB0B2ECF1233D01231CA1131EBA2
:1039C000A3AFFEFEFDFEFFFDFFFFFFFFFFFFFFFFBA
:1039D000FFFFFFFFFFFFFFFFFFFF8D8D8D292929CF
:1039E000FEFEFEB9B9B92F2F2FBDBDBDFCFCFCD228
:1039F000D2D2363636CBCBCBF2F2F246464696964C
:103A000096FEFEFEFAFAFAC9C9C9EAEAEAFDFDFD28
:103A1000727272515151FCFCFCFEFEFEF9F9F9592B
:103A20005959888888FCFCFCFBFBFB7B7B7B727212
:103A300072F5F5F5FEFEFED8D8D8393939BDBDBDD1
:103A4000FEFEFEEDEDED5F5F5F8E8E8EFEFEFED51F
:103A5000D5D5393939C4C4C4FDFDFDCACACA33330A
:103A600033BCBCBCFCFCFCF6F6F67D7D7D515151AF
:103A7000F9F9F9FFFFFFFFFFFFFFFFFFFFFFFFFF68
:103A8000FFFFFFFFFFFFFFFFFFFFFFFFFFFFFFFF46
:103A9000FFFFFFFFFFFFFFFFFFFFFFFFFFFFFFFF36
:103AA000FFFFFFFFFFFFFFFFFFFFFFFFFFFFFFFF26
:103AB000FFFFFFFFFFFFFFFFFFFFFFFFFFFFFFFF16
:103AC000FFFFFFFFFFFFFFFFFFFFFFFFFFFFFFFF06
:103AD000FFFFFFFFFFFFFFFFFFFFFFFFFFFFFFFFF6
:103AE000FFFFFFFFFFFFFFFFFFFFFFFFFFFFFFFFE6
:103AF000FFFFFFFFFFFFFFFFFFFFFFFFFFFFFFFFD6
:103B0000FFFFFFFFFFFFFFFFFFFFFFFFFFFFFFFFC5
:103B1000FFFFFFFFFFFFFFFFFFFFFFFFFFFFFFFFB5
:103B2000FFFFFFFFFFFFFFFFFFFFFFFFFFFFFFFFA5
:103B3000FFFFFFFFFFFFFFFFFFFFFFFFFFFFFFFF95
:103B4000FFFFFFFFFFFFFFFFFFFFFFFFFFFFFFFF85
:103B5000FFFFFFFFFFFFFFFEFEFEFFFFFFFEFEFE7B
:103B6000A8A8A8000000000000000000010101005A
:103B70000000131313A6A6A6FEFEFEFEFEFEFFFF28
:103B8000FFFFFFFFFFFFFFFFFFFFFFFFFFFFFFFF45
:103B9000FFFFFFFFFFFFFFFFFFFFFFFFFFFFFFFF35
:103BA000FFFFFFFFFFFFFFFFFFFFFFFFFFFFFFFF25
:103BB000FFFFFFFFFFFFFFFFFFFFFFFFFFFFFFFF15
:103BC000FFFFFFFFFFFFFFFFFFFFFFFFFFFFFFFF05
:103BD000FFFFFFFFFFFFFFFFFFFFFFFFFFFFFFFFF5
:103BE000FFFFFFFFFFFFFFFFFFFFFFFFFFFFFFFFE5
:103BF000FFFFFFFFFFFFFFFFFFFFFFFFFFFFFFFFD5
:103C0000FFFFFFFFFFFFFFFFFFFFFFFFFFFFFFFFC4
:103C1000FFFFFFFFFFFFFFFFFFFFFFFFFFFFFFFFB4
:103C2000FFFFFFFFFFFFFFFFFFFEFEFEFDFDFDFEAE
:103C3000FEFEFEFEFEFEFEFEFEFEFEFEFEFEFEFEA4
:103C4000FEFEFEFEFFFFFFFDFDFDFEFEFEFEFEFE94
:103C5000FEFEFEF4F4F4DDDDDDDBDBDBFBFBFBFE77
:103C6000FEFEFEFEFEFFFFFFFFFFFFFFFFFFFFFF69
:103C7000FFFFFFFFFFFFFFFFFFFFFFFFFFFFFFFF54
:103C8000FFFFFFFFFFFFFFFFFFFFFFFFFFFFFFFF44
:103C9000FFFFFFFFFFFFFFFFFFFFFFFFFFFFFFFF34
:103CA000FFFFFFFFFFFFFFFFFFFFFFFFFFFFFFFF24
:103CB000FFFFFFFFFFFFFFFFFFFFFFFFFFFFFFFF14
:103CC000FFFFFFFFFFFFFFFFFFFFFFFFFFFFFFFF04
:103CD000FFFFFFFFFFFFFFFFFFFFFFFFFFFFFFFFF4
:103CE000FFFFFFFFFFFFFFFFFFFFFFFFFFFFFFFFE4
:103CF000FFFFFFFFFFFFFFFFFFFFFFFFFFFFFFFFD4
:103D0000FFFFFFFFFFFFFFFFFFFFFFFFFFFFFFFFC3
:103D1000FFFFFFFFFFFFFFFFFFFFFFFFFFFFFFFFB3
:103D2000FFFFFFFFFFFFFFFFFFFFFFFFFFFFFFFFA3
:103D3000FFFFFFFFFFFFFFFFFFFFFFFFFFFFFFFF93
:103D4000FFFFFFFFFFFFFFFFFFFFFFFFFFFFFFFF83
:103D5000FFFFFFFFFFFFFFFFFFFFFFFFFFFFFFFF73
:103D6000FDFEFEFFFDFDFFFDFFFFFEFFFFEEA6AF28
:103D7000CB0B2ECF1233D01231CA1131EBA3AFFED1
:103D8000FEFDFEFFFDFFFFFFFFFFFFFFFFFFFFFF49
:103D9000FFFFFFFFFFFFFF8E8E8E282828FEFEFE0E
:103DA000B8B8B83C3C3CDCDCDCFEFEFED6D6D638EF
:103DB0003838C5C5C5F9F9F97A7A7A2F2F2F9C9C26
:103DC0009CEBEBEBFDFDFDFDFDFDFDFDFD6E6E6E67
:103DD000515151FCFCFCFEFEFEF9F9F9565656888D
:103DE0008888FCFCFCFBFBFB797979707070F3F33D
:103DF000F3FEFEFED7D7D73A3A3ABBBBBBFCFCFC7E
:103E0000EEEEEE5E5E5E8E8E8EFEFEFED5D5D53873
:103E10003838C2C2C2FEFEFEB0B0B0464646DFDF52
:103E2000DFFEFEFEFEFEFEABABAB282828F9F9F95B
:103E3000FDFDFDFFFFFFFFFFFFFFFFFFFFFFFFFF98
:103E4000FFFFFFFFFFFFFFFFFFFFFFFFFFFFFFFF82
:103E5000FFFFFFFFFFFFFFFFFFFFFFFFFFFFFFFF72
:103E6000FFFFFFFFFFFFFFFFFFFFFFFFFFFFFFFF62
:103E7000FFFFFFFFFFFFFFFFFFFFFFFFFFFFFFFF52
:103E8000FFFFFFFFFFFFFFFFFFFFFFFFFFFFFFFF42
:103E9000FFFFFFFFFFFFFFFFFFFFFFFFFFFFFFFF32
:103EA000FFFFFFFFFFFFFFFFFFFFFFFFFFFFFFFF22
:103EB000FFFFFFFFFFFFFFFFFFFFFFFFFFFFFFFF12
:103EC000FFFFFFFFFFFFFFFFFFFFFFFFFFFFFFFF02
:103ED000FFFFFFFFFFFFFFFFFFFFFFFFFFFFFFFFF2
:103EE000FFFFFFFFFFFFFFFFFFFFFFFFFFFFFFFFE2
:103EF000FFFFFFFFFFFFFFFFFFFFFFFFFFFFFFFFD2
:103F0000FFFFFFFFFFFFFFFFFFFFFFFFFFFFFFFFC1
:103F1000FFFFFFFFFEFEFEFEFEFEFEFEFEB0B0B0A7
:103F20000303030000000000000000000000001474
:103F30001414A9A9A9FEFEFEFFFFFFFFFFFFFFFF6C
:103F4000FFFFFFFFFFFFFFFFFFFFFFFFFFFFFFFF81
:103F5000FFFFFFFFFFFFFFFFFFFFFFFFFFFFFFFF71
:103F6000FFFFFFFFFFFFFFFFFFFFFFFFFFFFFFFF61
:103F7000FFFFFFFFFFFFFFFFFFFFFFFFFFFFFFFF51
:103F8000FFFFFFFFFFFFFFFFFFFFFFFFFFFFFFFF41
:103F9000FFFFFFFFFFFFFFFFFFFFFFFFFFFFFFFF31
:103FA000FFFFFFFFFFFFFFFFFFFFFFFFFFFFFFFF21
:103FB000FFFFFFFFFFFFFFFFFFFFFFFFFFFFFFFF11
:103FC000FFFFFFFFFFFFFFFFFFFFFFFFFFFFFFFF01
:103FD000FFFFFFFFFFFFFFFFFFFFFFFFFFFFFFFFF1
:103FE000FFFFFFFFFFFFFEFEFEFEFEFEFEFEFEFEEB
:103FF000FEFEFFFFFFFEFEFEFDFDFDFDFDFDF9F9EE
:10400000F9F1F1F1D1D1D19D9D9D666666393939BD
:10401000161616010101444444DFDFDFFEFEFEFEFA
:10402000FEFEFFFFFFFFFFFFFFFFFFFFFFFFFFFFA2
:10403000FFFFFFFFFFFFFFFFFFFFFFFFFFFFFFFF90
:10404000FFFFFFFFFFFFFFFFFFFFFFFFFFFFFFFF80
:10405000FFFFFFFFFFFFFFFFFFFFFFFFFFFFFFFF70
:10406000FFFFFFFFFFFFFFFFFFFFFFFFFFFFFFFF60
:10407000FFFFFFFFFFFFFFFFFFFFFFFFFFFFFFFF50
:10408000FFFFFFFFFFFFFFFFFFFFFFFFFFFFFFFF40
:10409000FFFFFFFFFFFFFFFFFFFFFFFFFFFFFFFF30
:1040A000FFFFFFFFFFFFFFFFFFFFFFFFFFFFFFFF20
:1040B000FFFFFFFFFFFFFFFFFFFFFFFFFFFFFFFF10
:1040C000FFFFFFFFFFFFFFFFFFFFFFFFFFFFFFFF00
:1040D000FFFFFFFFFFFFFFFFFFFFFFFFFFFFFFFFF0
:1040E000FFFFFFFFFFFFFFFFFFFFFFFFFFFFFFFFE0
:1040F000FFFFFFFFFFFFFFFFFFFFFFFFFFFFFFFFD0
:10410000FFFFFFFFFFFFFFFFFFFFFFFFFFFFFFFFBF
:10411000FFFFFFFFFFFFFFFFFFFFFFFFFFFDFEFEB3
:10412000FFFDFDFFFDFFFFFEFFFFEEA6AFCB0B2E59
:10413000CF1233D01231CA1131EBA3AFFEFEFDFE18
:10414000FFFDFFFFFFFFFFFFFFFFFFFFFFFFFFFF81
:10415000FFFFFFFF8D8D8D292929FCFCFCB7B7B728
:104160003A3A3ADEDEDEFDFDFDD5D5D5393939C620
:10417000C6C6FDFDFDEDEDED8585851313130D0D13
:104180000D8B8B8BF5F5F5FEFEFE6F6F6F4E4E4E71
:10419000FCFCFCFCFCFCF9F9F9595959888888FCAD
:1041A000FCFCFAFAFA7C7C7C707070F5F5F5FCFC8E
:1041B000FCD8D8D83A3A3ABBBBBBFEFEFEEEEEEED8
:1041C0005E5E5E8E8E8EFDFDFDD4D4D4373737C44F
:1041D000C4C4FEFEFEA3A3A3505050E6E6E6FEFED6
:1041E000FEFEFEFEB9B9B9252525F2F2F2FFFFFF6A
:1041F000FFFFFFFFFFFFFFFFFFFFFFFFFFFFFFFFCF
:10420000FFFFFFFFFFFFFFFFFFFFFFFFFFFFFFFFBE
:10421000FFFFFFFFFFFFFFFFFFFFFFFFFFFFFFFFAE
:10422000FFFFFFFFFFFFFFFFFFFFFFFFFFFFFFFF9E
:10423000FFFFFFFFFFFFFFFFFFFFFFFFFFFFFFFF8E
:10424000FFFFFFFFFFFFFFFFFFFFFFFFFFFFFFFF7E
:10425000FFFFFFFFFFFFFFFFFFFFFFFFFFFFFFFF6E
:10426000FFFFFFFFFFFFFFFFFFFFFFFFFFFFFFFF5E
:10427000FFFFFFFFFFFFFFFFFFFFFFFFFFFFFFFF4E
:10428000FFFFFFFFFFFFFFFFFFFFFFFFFFFFFFFF3E
:10429000FFFFFFFFFFFFFFFFFFFFFFFFFFFFFFFF2E
:1042A000FFFFFFFFFFFFFFFFFFFFFFFFFFFFFFFF1E
:1042B000FFFFFFFFFFFFFFFFFFFFFFFFFFFFFFFF0E
:1042C000FFFFFFFFFFFFFFFFFFFFFFFFFFFFFFFFFE
:1042D000FFFEFEFEFEFEFEFDFDFDACACAC000000F0
:1042E000000000000000000000000000151515A6E9
:1042F000A6A6FDFDFDFFFFFFFFFFFFFFFFFFFFFF86
:10430000FFFFFFFFFFFFFFFFFFFFFFFFFFFFFFFFBD
:10431000FFFFFFFFFFFFFFFFFFFFFFFFFFFFFFFFAD
:10432000FFFFFFFFFFFFFFFFFFFFFFFFFFFFFFFF9D
:10433000FFFFFFFFFFFFFFFFFFFFFFFFFFFFFFFF8D
:10434000FFFFFFFFFFFFFFFFFFFFFFFFFFFFFFFF7D
:10435000FFFFFFFFFFFFFFFFFFFFFFFFFFFFFFFF6D
:10436000FFFFFFFFFFFFFFFFFFFFFFFFFFFFFFFF5D
:10437000FFFFFFFFFFFFFFFFFFFFFFFFFFFFFFFF4D
:10438000FFFFFFFFFFFFFFFFFFFFFFFFFFFFFFFF3D
:10439000FFFFFFFFFFFFFFFFFFFFFFFFFFFFFFFF2D
:1043A000FFFFFFFEFEFEFEFEFEFEFEFEFCFCFCF836
:1043B000F8F8E0E0E0C4C4C48C8C8C58585823232F
:1043C00023040404000000010101010101000000B8
:1043D000000000404040E3E3E3FDFDFDFFFFFFFF81
:1043E000FFFFFFFFFFFFFFFFFFFFFFFFFFFFFFFFDD
:1043F000FFFFFFFFFFFFFFFFFFFFFFFFFFFFFFFFCD
:10440000FFFFFFFFFFFFFFFFFFFFFFFFFFFFFFFFBC
:10441000FFFFFFFFFFFFFFFFFFFFFFFFFFFFFFFFAC
:10442000FFFFFFFFFFFFFFFFFFFFFFFFFFFFFFFF9C
:10443000FFFFFFFFFFFFFFFFFFFFFFFFFFFFFFFF8C
:10444000FFFFFFFFFFFFFFFFFFFFFFFFFFFFFFFF7C
:10445000FFFFFFFFFFFFFFFFFFFFFFFFFFFFFFFF6C
:10446000FFFFFFFFFFFFFFFFFFFFFFFFFFFFFFFF5C
:10447000FFFFFFFFFFFFFFFFFFFFFFFFFFFFFFFF4C
:10448000FFFFFFFFFFFFFFFFFFFFFFFFFFFFFFFF3C
:10449000FFFFFFFFFFFFFFFFFFFFFFFFFFFFFFFF2C
:1044A000FFFFFFFFFFFFFFFFFFFFFFFFFFFFFFFF1C
:1044B000FFFFFFFFFFFFFFFFFFFFFFFFFFFFFFFF0C
:1044C000FFFFFFFFFFFFFFFFFFFFFFFFFFFFFFFFFC
:1044D000FFFFFFFFFFFFFFFFFFFFFDFEFEFFFDFDF4
:1044E000FFFDFFFFFEFFFFEEA6AFCB0B2ECF12337B
:1044F000D01231CA1131EBA3AFFEFEFDFEFFFDFF6E
:10450000FFFFFFFFFFFFFFFFFFFFFFFFFFFFFFFFBB
:10451000FF8D8D8D282828FFFFFFB8B8B83B3B3BA7
:10452000DCDCDCFEFEFED6D6D6373737C8C8C8FE80
:10453000FEFEFEFEFEFCFCFCEEEEEE9B9B9B2A2AA2
:104540002AA3A3A3FCFCFC6C6C6C525252FCFCFC36
:10455000FEFEFEF8F8F8565656888888FCFCFCFBF0
:10456000FBFB7979796F6F6FF4F4F4FDFDFDD6D61E
:10457000D6383838BEBEBEFEFEFEEFEFEF61616199
:104580008F8F8FFEFEFED5D5D5373737C3C3C3FC1B
:10459000FCFCB0B0B0444444DFDFDFFEFEFEFDFDB6
:1045A000FDAAAAAA2B2B2BF7F7F7FFFFFFFFFFFFB0
:1045B000FFFFFFFFFFFFFFFFFFFFFFFFFFFFFFFF0B
:1045C000FFFFFFFFFFFFFFFFFFFFFFFFFFFFFFFFFB
:1045D000FFFFFFFFFFFFFFFFFFFFFFFFFFFFFFFFEB
:1045E000FFFFFFFFFFFFFFFFFFFFFFFFFFFFFFFFDB
:1045F000FFFFFFFFFFFFFFFFFFFFFFFFFFFFFFFFCB
:10460000FFFFFFFFFFFFFFFFFFFFFFFFFFFFFFFFBA
:10461000FFFFFFFFFFFFFFFFFFFFFFFFFFFFFFFFAA
:10462000FFFFFFFFFFFFFFFFFFFFFFFFFFFFFFFF9A
:10463000FFFFFFFFFFFFFFFFFFFFFFFFFFFFFFFF8A
:10464000FFFFFFFFFFFFFFFFFFFFFFFFFFFFFFFF7A
:10465000FFFFFFFFFFFFFFFFFFFFFFFFFFFFFFFF6A
:10466000FFFFFFFFFFFFFFFFFFFFFFFFFFFFFFFF5A
:10467000FFFFFFFFFFFFFFFFFFFFFFFFFFFFFFFF4A
:10468000FFFFFFFFFFFFFFFFFFFFFFFFFFFFFEFE3C
:10469000FEFEFEFEFFFFFFADADAD0000000101011B
:1046A000000000000000000000141414A8A8A8FDD9
:1046B000FDFDFEFEFEFFFFFFFFFFFFFFFFFFFFFF11
:1046C000FFFFFFFFFFFFFFFFFFFFFFFFFFFFFFFFFA
:1046D000FFFFFFFFFFFFFFFFFFFFFFFFFFFFFFFFEA
:1046E000FFFFFFFFFFFFFFFFFFFFFFFFFFFFFFFFDA
:1046F000FFFFFFFFFFFFFFFFFFFFFFFFFFFFFFFFCA
:10470000FFFFFFFFFFFFFFFFFFFFFFFFFFFFFFFFB9
:10471000FFFFFFFFFFFFFFFFFFFFFFFFFFFFFFFFA9
:10472000FFFFFFFFFFFFFFFFFFFFFFFFFFFFFFFF99
:10473000FFFFFFFFFFFFFFFFFFFFFFFFFFFFFFFF89
:10474000FFFFFFFFFFFFFFFFFFFFFFFFFFFFFFFF79
:10475000FFFFFFFFFFFFFFFFFFFFFFFFFFFFFFFF69
:10476000FEFEFEFEFEFEFCFCFCCBCBCB8282824535
:1047700045451717170808081C1C1C28282814145E
:10478000140101010101010000000101010000000C
:10479000404040E2E2E2FEFEFEFFFFFFFFFFFFFFC0
:1047A000FFFFFFFFFFFFFFFFFFFFFFFFFFFFFFFF19
:1047B000FFFFFFFFFFFFFFFFFFFFFFFFFFFFFFFF09
:1047C000FFFFFFFFFFFFFFFFFFFFFFFFFFFFFFFFF9
:1047D000FFFFFFFFFFFFFFFFFFFFFFFFFFFFFFFFE9
:1047E000FFFFFFFFFFFFFFFFFFFFFFFFFFFFFFFFD9
:1047F000FFFFFFFFFFFFFFFFFFFFFFFFFFFFFFFFC9
:10480000FFFFFFFFFFFFFFFFFFFFFFFFFFFFFFFFB8
:10481000FFFFFFFFFFFFFFFFFFFFFFFFFFFFFFFFA8
:10482000FFFFFFFFFFFFFFFFFFFFFFFFFFFFFFFF98
:10483000FFFFFFFFFFFFFFFFFFFFFFFFFFFFFFFF88
:10484000FFFFFFFFFFFFFFFFFFFFFFFFFFFFFFFF78
:10485000FFFFFFFFFFFFFFFFFFFFFFFFFFFFFFFF68
:10486000FFFFFFFFFFFFFFFFFFFFFFFFFFFFFFFF58
:10487000FFFFFFFFFFFFFFFFFFFFFFFFFFFFFFFF48
:10488000FFFFFFFFFFFFFFFFFFFFFFFFFFFFFFFF38
:10489000FFFFFFFFFFFFFFFDFEFEFFFDFDFFFDFF32
:1048A000FFFEFFFFEEA6AFCB0B2ECF1233D012319F
:1048B000CA1131EBA3AFFEFEFDFEFFFDFFFFFFFFC0
:1048C000FFFFFFFFFFFFFFFFFFFFFFFFFFFF8D8DDC
:1048D0008D292929FEFEFEB9B9B93B3B3BDDDDDD63
:1048E000FEFEFED5D5D5383838C6C6C6F6F6F6A6CD
:1048F000A6A6DEDEDEFEFEFEF6F6F65858588989DC
:1049000089FCFCFC6F6F6F4F4F4FFDFDFDFEFEFEFF
:10491000F8F8F8595959888888FDFDFDFBFBFB79AB
:104920007979737373F5F5F5FEFEFED9D9D93F3F5A
:104930003FB5B5B5FCFCFCE0E0E04646468E8E8E09
:10494000FEFEFED4D4D4373737C3C3C3FEFEFECC3D
:10495000CCCC333333BDBDBDFEFEFEF6F6F67C7C1B
:104960007C525252FBFBFBFEFEFEFFFFFFFFFFFFF0
:10497000FFFFFFFFFFFFFFFFFFFFFFFFFFFFFFFF47
:10498000FFFFFFFFFFFFFFFFFFFFFFFFFFFFFFFF37
:10499000FFFFFFFFFFFFFFFFFFFFFFFFFFFFFFFF27
:1049A000FFFFFFFFFFFFFFFFFFFFFFFFFFFFFFFF17
:1049B000FFFFFFFFFFFFFFFFFFFFFFFFFFFFFFFF07
:1049C000FFFFFFFFFFFFFFFFFFFFFFFFFFFFFFFFF7
:1049D000FFFFFFFFFFFFFFFFFFFFFFFFFFFFFFFFE7
:1049E000FFFFFFFFFFFFFFFFFFFFFFFFFFFFFFFFD7
:1049F000FFFFFFFFFFFFFFFFFFFFFFFFFFFFFFFFC7
:104A0000FFFFFFFFFFFFFFFFFFFFFFFFFFFFFFFFB6
:104A1000FFFFFFFFFFFFFFFFFFFFFFFFFFFFFFFFA6
:104A2000FFFFFFFFFFFFFFFFFFFFFFFFFFFFFFFF96
:104A3000FFFFFFFFFFFFFFFFFFFFFFFFFFFFFFFF86
:104A4000FFFFFFFFFFFFFFFFFFFFFFFEFEFEFEFE7B
:104A5000FEFFFFFFADADAD00000000000000000054
:104A6000000000000000141414A9A9A9FEFEFEFE17
:104A7000FEFEFFFFFFFFFFFFFFFFFFFFFFFFFFFF48
:104A8000FFFFFFFFFFFFFFFEFEFEFEFEFEFEFEFE3F
:104A9000FFFFFFFEFEFEFFFFFFFFFFFFFDFDFDFE30
:104AA000FEFEFEFEFEFEFEFEFEFEFEFEFEFEFEFE26
:104AB000FEFEFEFEFFFFFFFFFFFFFEFEFEFEFEFE10
:104AC000FEFEFEFFFFFFFFFFFFFFFFFFFFFFFFFFF9
:104AD000FFFFFFFFFFFFFFFFFFFFFFFFFFFFFFFFE6
:104AE000FFFFFFFFFFFFFFFFFFFFFFFFFFFFFFFFD6
:104AF000FFFFFFFFFFFFFFFFFFFFFFFFFEFEFEFECA
:104B0000FEFEFFFFFFFEFEFEFEFEFEFEFEFEFEFEC2
:104B1000FEFFFFFFFDFDFDFEFEFEFEFEFEFEFEFEB5
:104B2000E6E6E67777772323230A0A0A2727277BF7
:104B30007B7BB7B7B7CFCFCFD4D4D4C0C0C00C0C19
:104B40000C0000000000000000000000003F3F3F9C
:104B5000E1E1E1FFFFFFFEFEFEFEFEFEFFFFFFFFC5
:104B6000FFFFFFFFFFFFFFFFFFFFFFFEFEFEFFFF58
:104B7000FFFFFFFFFFFFFFFFFFFFFEFEFEFFFFFF48
:104B8000FFFFFFFFFFFFFFFFFFFFFFFFFFFFFFFF35
:104B9000FFFFFFFFFFFFFFFFFFFFFFFFFFFFFFFF25
:104BA000FFFFFFFFFFFFFFFFFFFFFFFFFFFFFFFF15
:104BB000FFFFFFFEFEFEFFFFFFFFFFFFFEFEFEFE0C
:104BC000FEFEFFFFFFFEFEFEFFFFFFFFFFFFFEFEFC
:104BD000FEFFFFFFFFFFFFFFFFFFFFFFFFFEFEFEE9
:104BE000FEFEFEFEFEFEFDFDFDFFFFFFFEFEFEFEE5
:104BF000FEFEFFFFFFFFFFFFFFFFFFFFFFFFFEFEC9
:104C0000FEFFFFFFFFFFFFFFFFFFFEFEFEFEFEFEBB
:104C1000FEFEFEFEFEFEFEFEFEFFFFFFFEFEFEFEB1
:104C2000FEFEFFFFFFFDFDFDFFFFFFFFFFFFFEFE9E
:104C3000FEFFFFFFFFFFFFFFFFFFFEFEFEFFFFFF88
:104C4000FFFFFFFFFFFFFFFFFFFFFFFFFFFFFFFF74
:104C5000FFFFFFFFFDFEFEFFFDFDFFFDFFFFFEFF6F
:104C6000FFEEA6AFCB0B2ECF1233D01231CA1131CB
:104C7000EBA3AFFEFEFDFEFFFDFFFFFFFFFFFFFF0B
:104C8000FFFFFFFFFFFFFFFFFFFFFF8686861C1C65
:104C90001CFEFEFEB5B5B5303030DBDBDBFEFEFEC4
:104CA000D3D3D3343434C6C6C6F2F2F2575757467C
:104CB0004646919191797979363636BDBDBDFEFE75
:104CC000FE8F8F8F2828288E8E8ED5D5D5F9F9F9AD
:104CD000515151858585FBFBFBFDFDFD8F8F8F3885
:104CE00038388F8F8FCFCFCFEEEEEE5F5F5F4646C7
:104CF000469999994848481212128B8B8BFEFEFEFA
:104D0000DEDEDE4343436868689A9A9AE5E5E5711A
:104D100071713636369595957777772E2E2EB1B1FF
:104D2000B1FEFEFEFDFDFDFFFFFFFFFFFFFFFFFFEA
:104D3000FFFFFFFFFFFFFFFFFFFFFFFFFFFFFFFF83
:104D4000FFFFFFFFFFFFFFFFFFFFFFFFFFFFFFFF73
:104D5000FFFFFFFFFFFFFFFFFFFFFFFFFFFFFFFF63
:104D6000FFFFFFFFFFFFFFFFFFFFFFFFFFFFFFFF53
:104D7000FFFFFFFFFFFFFFFFFFFFFFFFFFFFFFFF43
:104D8000FFFFFFFFFFFFFFFFFFFFFFFFFFFFFFFF33
:104D9000FFFFFFFFFFFFFFFFFFFFFFFFFFFFFFFF23
:104DA000FFFFFFFFFFFFFFFFFFFFFFFFFFFFFFFF13
:104DB000FFFFFFFFFFFFFFFFFFFFFFFFFFFFFFFF03
:104DC000FFFFFFFFFFFFFFFFFFFFFFFFFFFFFFFFF3
:104DD000FFFFFFFFFFFFFFFFFFFFFFFFFFFFFFFFE3
:104DE000FFFFFFFFFFFFFFFFFFFFFFFFFFFFFFFFD3
:104DF000FFFFFFFFFFFFFFFFFFFFFFFFFFFFFFFFC3
:104E0000FFFFFFFFFFFFFFFFFFFFFFFFFFFFFFFFB2
:104E1000FFACACAC0000000000000000000000008F
:104E2000000000141414A9A9A9FFFFFFFFFFFFFF52
:104E3000FFFFFFFFFFFFFFFFFFFFFFFFFFFFFFFF82
:104E4000FFFEFEFEFDFDFDFFFFFFFFFFFFFFFFFF7B
:104E5000FEFEFEFEFEFEFEFEFEFEFEFEFEFEFEFC74
:104E6000FCFCFDFDFDFEFEFEFEFEFEFEFEFEFFFF67
:104E7000FFFEFEFEFEFEFEFEFEFEFDFDFDFDFDFD57
:104E8000FEFEFEFEFEFEFDFDFDFEFEFEFEFEFEFF44
:104E9000FFFFFFFFFFFFFFFFFFFFFFFFFFFFFFFF22
:104EA000FFFFFFFFFFFFFFFFFFFFFFFFFFFFFFFF12
:104EB000FFFFFFFEFEFEFDFDFDFEFEFEFEFEFEFE12
:104EC000FEFEFDFDFDFEFEFEFDFDFDFEFEFEFDFD0A
:104ED000FDFEFEFEFEFEFEFDFDFDD4D4D43D3D3DB7
:104EE000010101111111848484EBEBEBFEFEFEFC49
:104EF000FCFCFEFEFEFEFEFEFBFBFB22222201016D
:104F0000010000000000000000003E3E3EE0E0E046
:104F1000FEFEFEFFFFFFFEFEFEFEFEFEFDFDFDFEB1
:104F2000FEFEFEFEFEFEFEFEFEFEFEFDFDFDFEFEA4
:104F3000FEFEFEFEFEFEFEFEFEFEFFFFFFFFFFFF8B
:104F4000FFFFFFFFFFFFFFFFFFFFFFFFFFFFFFFF71
:104F5000FFFFFFFFFFFFFFFFFFFFFFFFFFFFFFFF61
:104F6000FFFFFFFFFEFEFEFEFEFEFDFDFDFEFEFE60
:104F7000FEFEFEFEFEFEFEFEFEFEFEFEFEFEFEFF50
:104F8000FFFFFEFEFEFEFEFEFEFEFEFFFFFFFFFF3A
:104F9000FFFFFFFFFEFEFEFEFEFEFEFEFEFEFEFE2D
:104FA000FEFEFEFEFEFEFDFDFDFEFEFEFEFEFEFE24
:104FB000FEFEFEFEFEFEFEFEFEFEFEFFFFFFFEFE0E
:104FC000FEFEFEFEFDFDFDFEFEFEFEFEFEFEFEFE04
:104FD000FEFEFEFEFEFEFDFDFDFFFFFFFEFEFEFEF1
:104FE000FEFEFEFEFEFEFEFEFDFDFDFEFEFEFDFDE6
:104FF000FDFDFDFDFEFEFEFEFEFEFDFDFDFFFFFFD5
:10500000FFFFFFFFFFFFFFFFFFFFFFFFFFFFFFFFB0
:10501000FFFDFEFEFFFDFDFFFDFFFFFEFFFFEEA615
:10502000AFCB0B2ECF1233D01231CA1131EBA3AF5D
:10503000FEFEFDFEFFFDFFFFFFFFFFFFFFFFFFFF87
:10504000FFFFFFFFFFFFFFFFC6C6C6959595FDFD5D
:10505000FDDBDBDB9D9D9DEEEEEEFEFEFEEAEAEA69
:105060009D9D9DE2E2E2FEFEFEE5E5E57E7E7E336D
:105070003333434343BBBBBBFEFEFEFCFCFCF1F100
:10508000F1616161353535BCBCBCFAFAFAABABAB4A
:10509000C5C5C5FDFDFDFFFFFFE0E0E05F5F5F35DB
:1050A0003535B7B7B7FFFFFFD3D3D3565656333393
:1050B00033A4A4A4B3B3B3C4C4C4FEFEFEFBFBFB81
:1050C000AFAFAF3B3B3B464646E9E9E9F2F2F28A35
:1050D0008A8A2A2A2A434343BABABAFCFCFCFBFB5D
:1050E000FBFEFEFEFFFFFFFFFFFFFFFFFFFFFFFFD7
:1050F000FFFFFFFFFFFFFFFFFFFFFFFFFFFFFFFFC0
:10510000FFFFFFFFFFFFFFFFFFFFFFFFFFFFFFFFAF
:10511000FFFFFFFFFFFFFFFFFFFFFFFFFFFFFFFF9F
:10512000FFFFFFFFFFFFFFFFFFFFFFFFFFFFFFFF8F
:10513000FFFFFFFFFFFFFFFFFFFFFFFFFFFFFFFF7F
:10514000FFFFFFFFFFFFFFFFFFFFFFFFFFFFFFFF6F
:10515000FFFFFFFFFFFFFFFFFFFFFFFFFFFFFFFF5F
:10516000FFFFFFFFFFFFFFFFFFFFFFFFFFFFFFFF4F
:10517000FFFFFFFFFFFFFFFFFFFFFFFFFFFFFFFF3F
:10518000FFFFFFFFFFFFFFFFFFFFFFFFFFFFFFFF2F
:10519000FFFFFFFFFFFFFFFFFFFFFFFFFFFFFFFF1F
:1051A000FFFFFFFFFFFFFFFFFFFFFFFFFFFFFFFF0F
:1051B000FFFFFFFFFFFFFFFFFFFFFFFFFFFFFFFFFF
:1051C000FFFFFFFFFFFFFFFFFFFFFFFFFFFFACAC95
:1051D000AC00000000000000000000000000000023
:1051E000141414A9A9A9FFFFFFFFFFFFFFFFFFFF92
:1051F000FFFFFFFFFFFFFFFFFFFFFFFFFFFFFEFEC1
:10520000FEFDFDFDFFFFFFFFFFFFFFFFFFFEFEFEB8
:10521000FEFEFEFCFCFCFEFEFEFCFCFCFEFEFEFDBB
:10522000FDFDFEFEFEFEFEFEFEFEFEFEFEFEFEFEA0
:10523000FEFEFEFEFEFEFEFEFEFEFEFEFEFFFFFF8B
:10524000FDFDFDFEFEFEFEFEFEFCFCFCFFFFFFFF83
:10525000FFFFFFFFFFFFFFFFFFFFFFFFFFFFFFFF5E
:10526000FFFFFFFFFFFFFFFFFFFFFFFFFFFFFFFF4E
:10527000FEFEFEFEFEFEFEFEFEFEFEFEFEFEFEFE4E
:10528000FEFEFEFEFEFEFEFEFEFEFEFFFFFFFFFF39
:10529000FFFEFEFECFCFCF3C3C3C02020233333355
:1052A000C1C1C1FDFDFDFEFEFEFDFDFDFEFEFEFEDB
:1052B000FEFEFEFEFEFDFDFD232323000000000098
:1052C000000000000000003C3C3CDEDEDEFEFEFE96
:1052D000FEFEFEFEFEFEFEFEFEFEFEFEFEFEFEFEEE
:1052E000FEFEFEFEFEFDFDFDFEFEFEFEFEFEFEFEE1
:1052F000FEFEFEFEFDFDFDFFFFFFFFFFFFFFFFFFC8
:10530000FFFFFFFFFFFFFFFFFFFFFFFFFFFFFFFFAD
:10531000FFFFFFFFFFFFFFFFFFFFFFFFFFFFFFFF9D
:10532000FFFDFDFDFDFDFDFEFEFEFEFEFEFEFEFEA2
:10533000FEFEFEFEFEFEFEFEFEFEFEFEFFFFFFFE8A
:10534000FEFEFEFEFEFEFEFEFEFEFEFFFFFFFEFE7A
:10535000FEFEFEFEFEFEFEFEFEFEFEFEFEFEFEFE6D
:10536000FEFEFEFEFEFEFEFEFEFDFDFDFEFEFEFE60
:10537000FEFEFEFEFEFEFEFEFEFEFEFEFEFEFEFE4D
:10538000FEFEFEFEFEFEFEFEFEFEFEFEFEFEFEFE3D
:10539000FEFEFEFEFEFEFEFEFEFEFEFEFEFEFEFE2D
:1053A000FEFEFEFEFEFEFEFEFFFFFFFDFDFDFDFD1F
:1053B000FDFDFDFDFBFBFBFEFEFEFFFFFFFFFFFF14
:1053C000FFFFFFFFFFFFFFFFFFFFFFFFFFFFFDFEF0
:1053D000FEFFFDFDFFFDFFFFFEFFFFEEA6AFCB0BC7
:1053E0002ECF1233D01231CA1131EBA3AFFEFEFD26
:1053F000FEFFFDFFFFFFFFFFFFFFFFFFFFFFFFFFC0
:10540000FFFFFFFFFFFEFEFEFBFBFBFEFEFEFDFDC2
:10541000FDFCFCFCFEFEFEFDFDFDFCFCFCFCFCFCC2
:10542000FEFEFEFEFEFEFEFEFEFCFCFCFCFCFCFEA8
:10543000FEFEFEFEFEFDFDFDFEFEFEFEFEFEFDFD91
:10544000FDFCFCFCFCFCFCFEFEFEFDFDFDFDFDFD8F
:10545000FEFEFEFEFEFEFEFEFEFDFDFDFEFEFEFE6F
:10546000FEFEFEFEFEFEFEFEFCFCFCFEFEFEFEFE62
:10547000FEFCFCFCFEFEFEFDFDFDFDFDFDFEFEFE58
:10548000FEFEFEFCFCFCFEFEFEFDFDFDFEFEFEFE45
:10549000FEFEFEFEFEFDFDFDFDFDFDFDFDFDFCFC39
:1054A000FCFFFFFFFFFFFFFFFFFFFFFFFFFFFFFF0F
:1054B000FFFFFFFFFFFFFFFFFFFFFFFFFFFFFFFFFC
:1054C000FFFFFFFFFFFFFFFFFFFFFFFFFFFFFFFFEC
:1054D000FFFFFFFFFFFFFFFFFFFFFFFFFFFFFFFFDC
:1054E000FFFFFFFFFFFFFFFFFFFFFFFFFFFFFFFFCC
:1054F000FFFFFFFFFFFFFFFFFFFFFFFFFFFFFFFFBC
:10550000FFFFFFFFFFFFFFFFFFFFFFFFFFFFFFFFAB
:10551000FFFFFFFFFFFFFFFFFFFFFFFFFFFFFFFF9B
:10552000FFFFFFFFFFFFFFFFFFFFFFFFFFFFFFFF8B
:10553000FFFFFFFFFFFFFFFFFFFFFFFFFFFFFFFF7B
:10554000FFFFFFFFFFFFFFFFFFFFFFFFFFFFFFFF6B
:10555000FFFFFFFFFFFFFFFFFFFFFFFFFFFFFFFF5B
:10556000FFFFFFFFFFFFFFFFFFFFFFFFFFFFFFFF4B
:10557000FFFFFFFFFFFFFFFFFFFFFFFFFFFFFFFF3B
:10558000FFFFFFFFFFFFFFFFFFFFFFACACAC000022
:1055900000000000000000000000000000141414CF
:1055A000A9A9A9FFFFFFFFFFFFFFFFFFFFFFFFFF0D
:1055B000FFFFFFFFFFFFFFFFFFFFFFFEFEFEFEFE00
:1055C000FEFEFEFEFEFEFEFEFEFEFEFEFEFEFEFEFB
:1055D000FDFDFDFDFDFDFEFEFEFEFEFEFEFEFEFEF1
:1055E000FEFEFDFDFDFEFEFEFEFEFEFEFEFEFEFEDE
:1055F000FEFEFEFEFEFEFEFEFEFEFFFFFFFEFEFEC8
:10560000FEFEFEFEFEFEFEFEFEFFFFFFFFFFFFFFB3
:10561000FFFFFFFFFFFFFFFFFFFFFFFFFFFFFFFF9A
:10562000FFFFFFFFFFFFFFFFFFFFFFFFFFFEFEFE8D
:10563000FEFEFEFEFEFEFEFEFEFDFDFDFDFDFDFE90
:10564000FEFEFEFEFEFEFEFEFEFEFEFEFEFEE0E0B6
:10565000E03D3D3D000000373737CCCCCCFEFEFEB0
:10566000FCFCFCFDFDFDFEFEFEFEFEFEFEFEFEFE63
:10567000FEFEFCFCFC2323230000000000000000D1
:10568000000000003B3B3BDDDDDDFFFFFFFEFEFEDB
:10569000FEFEFEFFFFFFFEFEFEFEFEFEFFFFFFFE24
:1056A000FEFEFEFEFEFEFEFEFEFEFEFDFDFDFEFE1D
:1056B000FEFEFEFEFFFFFFFFFFFFFFFFFFFFFFFFFE
:1056C000FFFFFFFFFFFFFFFFFFFFFFFFFFFFFFFFEA
:1056D000FFFFFFFFFFFFFFFFFFFFFFFEFEFEFEFEDF
:1056E000FEFEFEFEFDFDFDFDFDFDFEFEFEFEFEFEE0
:1056F000FDFDFDFEFEFEFDFDFDFFFFFFFFFFFFFECA
:10570000FEFEFEFEFEFEFEFEFFFFFFFEFEFEFEFEB6
:10571000FEFEFEFEFEFEFEFEFEFEFFFFFFFEFEFEA6
:10572000FEFEFEFEFEFEFEFEFEFDFDFDFEFEFEFE9C
:10573000FEFEFEFEFEFEFEFEFFFFFFFFFFFFFFFF81
:10574000FFFDFDFDFFFFFFFEFEFEFDFDFDFEFEFE7B
:10575000FEFEFEFEFEFEFEFEFEFDFDFDFEFEFEFE6C
:10576000FEFEFEFEFEFDFDFDFEFEFEFCFCFCFEFE62
:10577000FEFEFEFEFDFDFDFFFFFFFFFFFFFFFFFF43
:10578000FFFFFFFFFFFFFFFFFFFFFFFDFEFEFFFD2F
:10579000FDFFFDFFFFFEFFFFEEA6AFCB0B2ECF12EE
:1057A00033D01231CA1131EBA3AFFEFEFDFEFFFD77
:1057B000FFFFFFFFFFFFFFFFFFFFFFFFFFFFFFFFF9
:1057C000FFFFFEFEFEFEFEFEFEFEFEFEFEFEFEFEF7
:1057D000FEFDFDFDFEFEFEFEFEFEFDFDFDFEFEFEEF
:1057E000FEFEFEFDFDFDFFFFFFFDFDFDFEFEFEFEDC
:1057F000FEFEFEFEFEFEFEFEFEFEFEFDFDFDFEFECC
:10580000FEFCFCFCFDFDFDFEFEFEFEFEFEFEFEFEC1
:10581000FEFEFEFDFDFDFEFEFEFDFDFDFDFDFDFDB2
:10582000FDFDFEFEFEFEFEFEFEFEFEFEFEFEFEFE9A
:10583000FEFDFDFDFEFEFEFEFEFEFDFDFDFEFEFE8E
:10584000FDFDFDFEFEFEFDFDFDFEFEFEFDFDFDFE81
:10585000FEFEFDFDFDFEFEFEFDFDFDFDFDFDFFFF6F
:10586000FFFFFFFFFFFFFFFFFFFFFFFFFFFFFFFF48
:10587000FFFFFFFFFFFFFFFFFFFFFFFFFFFFFFFF38
:10588000FFFFFFFFFFFFFFFFFFFFFFFFFFFFFFFF28
:10589000FFFFFFFFFFFFFFFFFFFFFFFFFFFFFFFF18
:1058A000FFFFFFFFFFFFFFFFFFFFFFFFFFFFFFFF08
:1058B000FFFFFFFFFFFFFFFFFFFFFFFFFFFFFFFFF8
:1058C000FFFFFFFFFFFFFFFFFFFFFFFFFFFFFFFFE8
:1058D000FFFFFFFFFFFFFFFFFFFFFFFFFFFFFFFFD8
:1058E000FFFFFFFFFFFFFFFFFFFFFFFFFFFFFFFFC8
:1058F000FFFFFFFFFFFFFFFFFFFFFFFFFFFFFFFFB8
:10590000FFFFFFFFFFFFFFFFFFFFFFFFFFFFFFFFA7
:10591000FFFFFFFFFFFFFFFFFFFFFFFFFFFFFFFF97
:10592000FFFFFFFFFFFFFFFFFFFFFFFFFFFFFFFF87
:10593000FFFFFFFFFFFFFFFFFFFFFFFFFFFFFFFF77
:10594000FFFFFFFFFFFFFFFFACACAC00000000005B
:1059500000000000000000000000141414A9A9A910
:10596000FFFFFFFFFFFFFFFFFFFFFFFFFFFFFFFF47
:10597000FFFFFFFFFFFFFFFFFEFEFEFFFFFFFEFE3C
:10598000FEFEFEFEFEFEFEFEFEFEFEFEFEFEFEFE37
:10599000FFFFFFFFFFFFFAFAFAFEFEFEFCFCFCFE33
:1059A000FEFEFCFCFCFEFEFEFEFEFEFDFDFDFEFE20
:1059B000FEF9F9F9F8F8F8FDFDFDFEFEFEFEFEFE2B
:1059C000FFFFFFFCFCFCFFFFFFFFFFFFFFFFFFFFF0
:1059D000FFFFFFFFFFFFFFFFFFFFFFFFFFFFFFFFD7
:1059E000FFFFFFFFFFFFFFFFFFFFFFFFFFFEFEFECA
:1059F000FEFEFEFEFEFEFDFDFDFDFDFDF8F8F8F1EC
:105A0000F1F1F8F8F8FEFEFEFBFBFB6363630101B6
:105A1000010D0D0D9B9B9BFBFBFBFEFEFEFDFDFDAB
:105A2000FDFDFDFEFEFEFDFDFDFEFEFEFEFEFEFB9F
:105A3000FBFB22222200000000000000000000000A
:105A4000003A3A3ADCDCDCFFFFFFFFFFFFFEFEFE20
:105A5000FEFEFEFFFFFFFEFEFEFCFCFCF8F8F8FA7F
:105A6000FAFAFEFEFEFDFDFDFDFDFDFEFEFEFDFD66
:105A7000FDFDFDFDFFFFFFFFFFFFFFFFFFFFFFFF3E
:105A8000FFFFFFFFFFFFFFFFFFFFFFFFFFFFFFFF26
:105A9000FFFFFFFFFFFFFFFFFEFEFEFDFDFDFEFE21
:105AA000FEFDFDFDFEFEFEFEFEFEFEFEFEFCFCFC1F
:105AB000F8F8F8FAFAFAFEFEFEFCFCFCFDFDFDFE2D
:105AC000FEFEFFFFFFFDFDFDFDFDFDFFFFFFFCFCFA
:105AD000FCFEFEFEFEFEFEFEFEFEFFFFFFFEFEFEE5
:105AE000FFFFFFFEFEFEFEFEFEFEFEFEFEFEFEFED3
:105AF000FEFEFEFEFEFEFEFEFDFDFDFBFBFBFEFED2
:105B0000FEFDFDFDFDFDFDFEFEFEFCFCFCFCFCFCC7
:105B1000FEFEFEFDFDFDFAFAFAFAFAFAFDFDFDFEC3
:105B2000FEFEFEFEFEFEFEFEFCFCFCFDFDFDFEFE9E
:105B3000FEFEFEFEFFFFFFFFFFFFFFFFFFFFFFFF79
:105B4000FFFFFFFFFFFFFFFFFDFEFEFFFDFDFFFD6F
:105B5000FFFFFEFFFFEEA6AFCB0B2ECF1233D0120E
:105B600031CA1131EBA3AFFEFEFDFEFFFDFFFFFFCB
:105B7000FFFFFFFFFFFFFFFFFFFFFFFFFFFFFFFE36
:105B8000FEFEFEFEFEFCFCFCFEFEFEFDFDFDFEFE3E
:105B9000FEFEFEFEFDFDFDFEFEFEFDFDFDFEFEFE2B
:105BA000FEFEFEFDFDFDFEFEFEFEFEFEFDFDFDFF1A
:105BB000FFFFFEFEFEFEFEFEFEFEFEFEFEFEFDFD05
:105BC000FDFEFEFEFDFDFDFEFEFEFDFDFDFEFEFEFC
:105BD000FDFDFDFEFEFEFEFEFEFBFBFBFEFEFEFEF1
:105BE000FEFEFEFEFEFDFDFDFEFEFEFEFEFEFEFED8
:105BF000FEFDFDFDFEFEFEFEFEFEFAFAFAFEFEFED4
:105C0000FEFEFEFEFEFEFFFFFFFEFEFEFDFDFDFDB5
:105C1000FDFDFEFEFEFFFFFFFEFEFEFFFFFFFFFF9E
:105C2000FFFFFFFFFFFFFFFFFFFFFFFFFFFFFFFF84
:105C3000FFFFFFFFFFFFFFFFFFFFFFFFFFFFFFFF74
:105C4000FFFFFFFFFFFFFFFFFFFFFFFFFFFFFFFF64
:105C5000FFFFFFFFFFFFFFFFFFFFFFFFFFFFFFFF54
:105C6000FFFFFFFFFFFFFFFFFFFFFFFFFFFFFFFF44
:105C7000FFFFFFFFFFFFFFFFFFFFFFFFFFFFFFFF34
:105C8000FFFFFFFFFFFFFFFFFFFFFFFFFFFFFFFF24
:105C9000FFFFFFFFFFFFFFFFFFFFFFFFFFFFFFFF14
:105CA000FFFFFFFFFFFFFFFFFFFFFFFFFFFFFFFF04
:105CB000FFFFFFFFFFFFFFFFFFFFFFFFFFFFFFFFF4
:105CC000FFFFFFFFFFFFFFFFFFFFFFFFFFFFFFFFE4
:105CD000FFFFFFFFFFFFFFFFFFFFFFFFFFFFFFFFD4
:105CE000FFFFFFFFFFFFFFFFFFFFFFFFFFFFFFFFC4
:105CF000FFFFFFFFFFFFFFFFFFFFFFFFFFFFFFFFB4
:105D0000FFFFFFFFFFACACAC000000000000000094
:105D100000000000000000141414A9A9A9FFFFFF4F
:105D2000FFFFFFFFFFFFFFFFFFFFFFFFFFFFFFFF83
:105D3000FFFFFFFFFFFDFDFDFEFEFEFEFEFEFEFE81
:105D4000FEFDFDFDF8F8F8E7E7E7BCBCBC8B8B8BEC
:105D5000535353595959ECECECFEFEFEFEFEFEFE89
:105D6000FEFEF9F9F9CFCFCF797979393939222285
:105D7000222222222E2E2E5F5F5FB1B1B1F0F0F011
:105D8000FEFEFEFFFFFFFFFFFFFFFFFFFFFFFFFF26
:105D9000FFFFFFFFFFFFFFFFFFFFFFFFFFFFFFFF13
:105DA000FFFFFFFFFFFFFFFEFEFEFDFDFDFBFBFB18
:105DB000D2D2D27F7F7F3E3E3E1F1F1F171717197B
:105DC00019193737375151510909090000001B1BB8
:105DD0001BB7B7B7FEFEFEFDFDFDFDFDFDFDFDFDA4
:105DE000FEFEFEFFFFFFFEFEFEFEFEFEFDFDFD24AD
:105DF00024240000000000000000000000003939E9
:105E000039DADADAFEFEFEFEFEFEFDFDFDF6F6F6FE
:105E1000C1C1C16767672F2F2F2020201D1D1D3294
:105E20003232646464B1B1B1F0F0F0FEFEFEFEFE09
:105E3000FEFFFFFFFFFFFFFFFFFFFFFFFFFFFFFF73
:105E4000FFFFFFFFFFFFFFFFFFFFFFFFFFFFFFFF62
:105E5000FFFFFFFFFFFEFEFEFCFCFCFEFEFEFBFB69
:105E6000FBDADADA9393935252522B2B2B1D1D1D22
:105E70001D1D1D2929294D4D4D858585D0D0D0F575
:105E8000F5F5FEFEFEFEFEFEFCFCFCFDFDFDFEFE4D
:105E9000FEFEFEFEFFFFFFFDFDFDFEFEFEFBFBFB2B
:105EA000FBFBFBFDFDFDEDEDEDD4D4D4B4B4B48D1E
:105EB0008D8D656565474747636363F1F1F1FFFFCA
:105EC000FFFEFEFEFEFEFEFEFEFEF5F5F5AEAEAEFC
:105ED0005656562929291E1E1E3939398D8D8DEDAC
:105EE000EDEDFEFEFEFFFFFFFEFEFEFDFDFDFEFEF4
:105EF000FEFFFFFFFFFFFFFFFFFFFFFFFFFFFFFFB3
:105F0000FFFFFFFFFFFDFEFEFFFDFDFFFDFFFFFEAC
:105F1000FFFFEEA6AFCB0B2ECF1233D01231CA113A
:105F200031EBA3AFFEFEFDFEFFFDFFFFFFFFFFFF16
:105F3000FFFFFFFFFFFFFFFFFFFFFFFFFFFFFFFE72
:105F4000FEFEFFFFFFFEFEFEFEFEFEFAFAFAFEFE7A
:105F5000FEFEFEFEFDFDFDFEFEFEFEFEFEFCFCFC6A
:105F6000FEFEFEFEFEFEFEFEFEFEFEFEFCFCFCFE57
:105F7000FEFEFEFEFEFEFEFEFBFBFBFDFDFDFEFE4D
:105F8000FEFCFCFCFBFBFBFDFDFDFCFCFCFEFEFE49
:105F9000FCFCFCFEFEFEFEFEFEFEFEFEFEFEFEFD28
:105FA000FDFDFEFEFEFCFCFCFCFCFCFEFEFEFEFE1F
:105FB000FEFDFDFDFDFDFDFEFEFEFEFEFEFCFCFC0D
:105FC000FEFEFEFCFCFCFDFDFDFEFEFEFDFDFDFEFD
:105FD000FEFEFCFCFCFEFEFEFFFFFFFFFFFFFFFFDF
:105FE000FFFFFFFFFFFFFFFFFFFFFFFFFFFFFFFFC1
:105FF000FFFFFFFFFFFFFFFFFFFFFFFFFFFFFFFFB1
:10600000FFFFFFFFFFFFFFFFFFFFFFFFFFFFFFFFA0
:10601000FFFFFFFFFFFFFFFFFFFFFFFFFFFFFFFF90
:10602000FFFFFFFFFFFFFFFFFFFFFFFFFFFFFFFF80
:10603000FFFFFFFFFFFFFFFFFFFFFFFFFFFFFFFF70
:10604000FFFFFFFFFFFFFFFFFFFFFFFFFFFFFFFF60
:10605000FFFFFFFFFFFFFFFFFFFFFFFFFFFFFFFF50
:10606000FFFFFFFFFFFFFFFFFFFFFFFFFFFFFFFF40
:10607000FFFFFFFFFFFFFFFFFFFFFFFFFFFFFFFF30
:10608000FFFFFFFFFFFFFFFFFFFFFFFFFFFFFFFF20
:10609000FFFFFFFFFFFFFFFFFFFFFFFFFFFFFFFF10
:1060A000FFFFFFFFFFFFFFFFFFFFFFFFFFFFFFFF00
:1060B000FFFFFFFFFFFFFFFFFFFFFFFFFFFFFFFFF0
:1060C000FFFFACACAC0000000000000000000000CE
:1060D00000000000141414A9A9A9FFFFFFFFFFFF8F
:1060E000FFFFFFFFFFFFFFFFFFFFFFFFFFFFFFFFC0
:1060F000FFFFFFFFFFD5D5D59C9C9C7676764E4E54
:106100004E2A2A2A0E0E0E00000000000000000099
:10611000353535ECECECFEFEFEFAFAFAC2C2C25D91
:106120005D5D0E0E0E000000010101000000000088
:1061300000000000010101030303373737ABABABAD
:10614000F4F4F4FFFFFFFEFEFEFEFEFEFEFEFEFE8A
:10615000FEFEFEFEFEFFFFFFFEFEFEFEFEFEFEFE5C
:10616000FEFEFEFEF8F8F8BBBBBB5555550707070A
:10617000000000000000000000010101000000001C
:10618000000000000001010100000003030362623F
:1061900062D3D3D3F4F4F4FDFDFDFEFEFEFEFEFE5D
:1061A000FFFFFFFEFEFEFEFEFEFCFCFC21212100A7
:1061B0000000000000000000000000373737D8D88A
:1061C000D8FEFEFEEBEBEBA7A7A73E3E3E0505057E
:1061D00000000001010100000001010100000001B8
:1061E00001010000002E2E2E919191E6E6E6FEFEC2
:1061F000FEFFFFFFFEFEFEFFFFFFFFFFFFFEFEFEB6
:10620000FFFFFFFEFEFEFEFEFEFEFEFEFEFEFEFFAA
:10621000FFFFFEFEFEE9E9E9AEAEAE5151511010AE
:106220001000000001010100000001010100000058
:106230000000000000000000000606063F3F3F9CF3
:106240009C9CE3E3E3FDFDFDFFFFFFFDFDFDFEFE86
:10625000FEFEFEFEFEFEFEEFEFEF8B8B8B43434315
:106260002525251414140404040000000202020170
:106270000101000000343434F3F3F3FEFEFEFEFEB1
:10628000FEF6F6F6C0C0C03E3E3E05050501010122
:106290000000000000000000000000002F2F2FB6BB
:1062A000B6B6FAFAFAFDFDFDFEFEFEFFFFFFFFFFA8
:1062B000FFFFFFFFFFFFFFFFFFFFFFFFFFFFFFFFEE
:1062C000FFFFFDFEFEFFFDFDFFFDFFFFFEFFFFEEFA
:1062D000A6AFCB0B2ECF1233D01231CA1131EBA3A4
:1062E000AFFEFEFDFEFFFDFFFFFFFFFFFFFFFFFF15
:1062F000FFFFFFFFFFFFFFFFFFFFFFFFFEFEFEFEB2
:10630000FEFEFEFEFEFCFCFCABABABB1B1B1FEFE93
:10631000FEFEFEFEFEFEFEFDFDFDFEFEFEFEFEFEA0
:10632000FEFEFEFDFDFDFEFEFEFEFEFEFEFEFEFE90
:10633000FEFEF0F0F0AAAAAA88888885858588885C
:1063400088898989878787E1E1E1FEFEFEFFFFFFFB
:10635000FDFDFDFEFEFEFDFDFDFEFEFEFFFFFFFE60
:10636000FEFEFEFEFEFEFEFEFEFEFEFFFFFFFEFE4A
:10637000FEFEFEFEFEFEFEB8B8B8A9A9A9FBFBFB17
:10638000FFFFFFFEFEFEFEFEFEFEFEFEFEFEFEFE2A
:10639000FEFEFDFDFDFEFEFEFEFEFEFEFEFEFEFE20
:1063A000FEFEFEFEFEFEFEFEFEFEFEFEFEFEFEFE0D
:1063B000FEFEFEFEFEFEFFFFFFFFFFFFFFFFFFFFF3
:1063C000FFFFFFFFFFFFFFFFFFFFFFFFFFFFFFFFDD
:1063D000FFFFFFFFFFFFFFFFFFFFFFFFFFFFFFFFCD
:1063E000FFFFFFFFFFFFFFFFFFFFFFFFFFFFFFFFBD
:1063F000FFFFFFFFFFFFFFFFFFFFFFFFFFFFFFFFAD
:10640000FFFFFFFFFFFFFFFFFFFFFFFFFFFFFFFF9C
:10641000FFFFFFFFFFFFFFFFFFFFFFFFFFFFFFFF8C
:10642000FFFFFFFFFFFFFFFFFFFFFFFFFFFFFFFF7C
:10643000FFFFFFFFFFFFFFFFFFFFFFFFFFFFFFFF6C
:10644000FFFFFFFFFFFFFFFFFFFFFFFFFFFFFFFF5C
:10645000FFFFFFFFFFFFFFFFFFFFFFFFFFFFFFFF4C
:10646000FFFFFFFFFFFFFFFFFFFFFFFFFFFFFFFF3C
:10647000FFFFFFFFFFFFFFFFFFFFFFFFFFFFFFAC7F
:10648000ACAC0000000000000000000000000000B4
:1064900000141414A9A9A9FFFFFFFFFFFFFFFFFFCE
:1064A000FFFFFFFFFFFFFFFFFFFFFFFFFFFFFFFEFD
:1064B000FEFE6262620101010000000000000000B7
:1064C000000000000000000101010000003434342D
:1064D000EDEDEDECECEC8989892525250101010024
:1064E00000000000000000000000000000000000AC
:1064F000000000000000000000000E0E0E8A8A8AD4
:10650000F5F5F5FEFEFEFEFEFEFDFDFDFEFEFEFEC9
:10651000FEFEFEFEFEFEFEFEFDFDFDFDFDFDFCFCA5
:10652000FC98989822222200000000000008080829
:106530003F3F3F6565657070706363634040400F27
:106540000F0F0101010000000101010505053535AE
:1065500035707070BDBDBDF7F7F7FEFEFEFFFFFFA3
:10656000FEFEFEFEFEFEFCFCFC22222200000000DD
:106570000000010101000000363636D5D5D5C9C965
:10658000C95858580F0F0F01010101010100000007
:1065900001010100000002020200000001010100EF
:1065A00000000000000303035D5D5DD7D7D7FDFD4C
:1065B000FDFEFEFEFEFEFEFEFEFEFEFEFEFEFEFEFC
:1065C000FDFDFDFDFDFDFEFEFEFEFEFEFBFBFBC92F
:1065D000C9C95E5E5E0B0B0B0000000000000B0BD8
:1065E0000B3A3A3A6060606F6F6F6969694949496F
:1065F0001616160000000000000000000A0A0A55E6
:106600005555C8C8C8FEFEFEFEFEFEFEFEFEFDFDA0
:10661000FDFEFEFEE3E3E347474700000000000005
:106620000000000000000000000202020000000064
:106630000000383838F4F4F4FEFEFEF5F5F59898CD
:10664000981A1A1A00000000000000000000000064
:10665000000000000000000000010101242424BB10
:10666000BBBBFDFDFDFEFEFEFFFFFFFFFFFFFFFFCB
:10667000FFFFFFFFFFFFFFFFFFFFFFFFFFFFFFFD2C
:10668000FEFEFFFDFDFFFDFFFFFEFFFFEEA6AFCB11
:106690000B2ECF1233D01231CA1131EBA3AFFEFE55
:1066A000FDFEFFFDFFFFFFFFFFFFFFFFFFFFFFFFFF
:1066B000FFFFFFFFFFFFFDFDFDFEFEFEFDFDFDFEFA
:1066C000FEFEFEFEFE434343545454FEFEFEFEFE19
:1066D000FEFDFDFDFDFDFDFEFEFEFEFEFEFEFEFEE0
:1066E000FDFDFDFEFEFEFDFDFDFDFDFDFDFDFDDEF6
:1066F000DEDE434343505050737373757575747485
:1067000074737373DCDCDCFEFEFEFFFFFFFDFDFD3A
:10671000FEFEFEFDFDFDFEFEFEFEFEFEFEFEFEFD9D
:10672000FDFDFDFDFDFDFDFDFEFEFEFDFDFDFEFE94
:10673000FEFEFEFE9696967E7E7EFAFAFAFDFDFD40
:10674000FDFDFDFEFEFEFDFDFDFEFEFEFDFDFDFE72
:10675000FEFEFEFEFEFEFEFEFCFCFCFEFEFEFEFE5F
:10676000FEFDFDFDFEFEFEFEFEFEFEFEFEFEFEFE4C
:10677000FEFEFEFFFFFFFFFFFFFFFFFFFFFFFFFF2C
:10678000FFFFFFFFFFFFFFFFFFFFFFFFFFFFFFFF19
:10679000FFFFFFFFFFFFFFFFFFFFFFFFFFFFFFFF09
:1067A000FFFFFFFFFFFFFFFFFFFFFFFFFFFFFFFFF9
:1067B000FFFFFFFFFFFFFFFFFFFFFFFFFFFFFFFFE9
:1067C000FFFFFFFFFFFFFFFFFFFFFFFFFFFFFFFFD9
:1067D000FFFFFFFFFFFFFFFFFFFFFFFFFFFFFFFFC9
:1067E000FFFFFFFFFFFFFFFFFFFFFFFFFFFFFFFFB9
:1067F000FFFFFFFFFFFFFFFFFFFFFFFFFFFFFFFFA9
:10680000FFFFFFFFFFFFFFFFFFFFFFFFFFFFFFFF98
:10681000FFFFFFFFFFFFFFFFFFFFFFFFFFFFFFFF88
:10682000FFFFFFFFFFFFFFFFFFFFFFFFFFFFFFFF78
:10683000FFFFFFFFFFFFFFFFFFFFFFFFACACAC0060
:106840000000000000000000000000000000141420
:1068500014A9A9A9FFFFFFFFFFFFFFFFFFFFFFFF35
:10686000FFFFFFFFFFFFFFFFFFFFFFFFFEFEFE77C3
:10687000777706060601010100000003030300000C
:10688000000000000000000202023A3A3ADFDFDFB7
:106890006565650C0C0C00000000000000000000A5
:1068A00000000303030000000000000000000000DF
:1068B000000000000101010000001B1B1BB1B1B171
:1068C000FEFEFEFCFCFCFEFEFEFEFEFEFEFEFEFEEE
:1068D000FEFEFDFDFDFEFEFEFEFEFE9F9F9F1313CE
:1068E000130000000000000E0E0E959595DEDEDE12
:1068F000F1F1F1F5F5F5F0F0F0DEDEDEA9A9A92160
:10690000212100000000000001010101010102023B
:10691000022B2B2BB6B6B6FDFDFDFFFFFFFEFEFEE4
:10692000FEFEFEFCFCFC2222220000000000000112
:1069300001010000002A2A2A8383833232320101B6
:10694000010000000101010000000000000202023D
:10695000010101010101020202000000000000002B
:1069600000000000000707075B5B5BE8E8E8FEFE4D
:10697000FEFDFDFDFEFEFEFEFEFEFEFEFEFEFEFE3A
:10698000FDFDFDFEFEFEFDFDFDBCBCBC3636360544
:1069900005050000000101012A2A2A9E9E9EDCDCDA
:1069A000DCEFEFEFF5F5F5F2F2F2E4E4E4B4B4B4C1
:1069B0003F3F3F0101010202020000000404042ED7
:1069C0002E2ED2D2D2FEFEFEFEFEFEFEFEFEFCFC0F
:1069D000FCF2F2F29F9F9F5757572626260101018E
:1069E0000000000000000000000000000000003572
:1069F0003535F4F4F4FCFCFCAAAAAA1C1C1C00000B
:106A0000000000000202020101010000000000007D
:106A1000000000000000020202030303555555E781
:106A2000E7E7FBFBFBFFFFFFFFFFFFFFFFFFFFFFB2
:106A3000FFFFFFFFFFFFFFFFFFFFFFFFFDFEFEFF6A
:106A4000FDFDFFFDFFFFFEFFFFEEA6AFCB0B2ECF40
:106A50001233D01231CA1131EBA3AFFEFEFDFEFF9F
:106A6000FDFFFFFFFFFFFFFFFFFFFFFFFFFFFFFF38
:106A7000FFFFFFFEFEFEFCFCFCFEFEFEFEFEFEFE39
:106A8000FEFE464646595959FEFEFEFDFDFDFEFE40
:106A9000FEFEFEFEFEFEFEFDFDFDFEFEFEFEFEFE19
:106AA000FDFDFDFDFDFDFEFEFEFEFEFEDEDEDE4426
:106AB0004444ACACACF8F8F8F8F8F8F8F8F8F7F7A4
:106AC000F7FDFDFDFEFEFEFEFEFEFEFEFEFEFEFEF0
:106AD000FEFEFEFEFEFEFEFEFEFEFEFEFEFEFEFDD7
:106AE000FDFDFEFEFEFCFCFCFDFDFDFEFEFEFDFDD3
:106AF000FDF2F2F2EDEDEDFEFEFEFEFEFEFEFEFE0E
:106B0000FEFEFEFEFEFEFBFBFBFEFEFEFEFEFEFEAE
:106B1000FEFEFEFEFEFDFDFDFCFCFCFEFEFEFCFCA2
:106B2000FCFEFEFEFDFDFDFEFEFEFEFEFEFDFDFD8D
:106B3000FEFEFEFEFEFEFFFFFFFFFFFFFFFFFFFF6B
:106B4000FFFFFFFFFFFFFFFFFFFFFFFFFFFFFFFF55
:106B5000FFFFFFFFFFFFFFFFFFFFFFFFFFFFFFFF45
:106B6000FFFFFFFFFFFFFFFFFFFFFFFFFFFFFFFF35
:106B7000FFFFFFFFFFFFFFFFFFFFFFFFFFFFFFFF25
:106B8000FFFFFFFFFFFFFFFFFFFFFFFFFFFFFFFF15
:106B9000FFFFFFFFFFFFFFFFFFFFFFFFFFFFFFFF05
:106BA000FFFFFFFFFFFFFFFFFFFFFFFFFFFFFFFFF5
:106BB000FFFFFFFFFFFFFFFFFFFFFFFFFFFFFFFFE5
:106BC000FFFFFFFFFFFFFFFFFFFFFFFFFFFFFFFFD5
:106BD000FFFFFFFFFFFFFFFFFFFFFFFFFFFFFFFFC5
:106BE000FFFFFFFFFFFFFFFFFFFFFFFFFFFFFFFFB5
:106BF000FFFFFFFFFFFFFFFFFFACACAC000000009A
:106C00000000000000000000000000141414A9A9F6
:106C1000A9FFFFFFFFFFFFFFFFFFFFFFFFFFFFFFDA
:106C2000FFFFFFFFFFFFFFFFFFFDFDFDFEFEFECEAE
:106C3000CECE595959060606000000000000010199
:106C400001000000000000252525474747030303F6
:106C50000000000808084848489E9E9ED2D2D2C72D
:106C6000C7C78A8A8A202020000000020202010190
:106C700001000000000000040404585858EEEEEE35
:106C8000FFFFFFFEFEFEFDFDFDFDFDFDFEFEFEFF26
:106C9000FFFFFFFFFFDBDBDB151515000000010127
:106CA00001030303A0A0A0FFFFFFFFFFFFFDFDFD09
:106CB000FEFEFEFFFFFFFEFEFEFEFEFEC3C3C3029E
:106CC00002020000000000000000000202020000BA
:106CD00000626262F2F2F2FFFFFFFEFEFEFEFEFEC7
:106CE000FCFCFC2222220000000101010000000047
:106CF00000000303030202020000000101012B2B2C
:106D00002B888888C5C5C5D3D3D3B2B2B2606060C2
:106D10000E0E0E0000000000000000000000000445
:106D200004040000000000008E8E8EFFFFFFFFFFB6
:106D3000FFFFFFFFFFFFFFFFFFFFFFFFFFFDFDFD69
:106D4000FEFEFEE0E0E01C1C1C0000000000000550
:106D50000505242424C3C3C3FEFEFEFEFEFEFEFE84
:106D6000FEFEFEFEFFFFFFFAFAFAFEFEFEDADADAB8
:106D70003333330000000000000000000000001A60
:106D80001A1AEBEBEBFEFEFEFEFEFEFEFEFEFFFF22
:106D9000FFFEFEFEFCFCFCF7F7F78B8B8B0C0C0C5C
:106DA000000000010101010101000000393939F33F
:106DB000F3F3DEDEDE36363601010111111190905B
:106DC00090C7C7C78C8C8C08080801010102020219
:106DD000000000000000000000151515B4B4B4FE5A
:106DE000FEFEFEFEFEFFFFFFFFFFFFFFFFFFFFFFB8
:106DF000FFFFFFFFFFFFFFFFFFFDFEFEFFFDFDFFAB
:106E0000FDFFFFFEFFFFEEA6AFCB0B2ECF1233D060
:106E10001231CA1131EBA3AFFEFEFDFEFFFDFFFFF5
:106E2000FFFFFFFFFFFFFFFFFFFFFFFFFFFFFFFF72
:106E3000FEFEFEFEFEFEC1C1C18B8B8BD4D4D44EB0
:106E40004E4E585858FEFEFEFEFEFEFAFAFAA5A572
:106E5000A5858585CCCCCCFDFDFDFEFEFEFCFCFCB5
:106E6000FFFFFFFCFCFCFEFEFEDEDEDE434343B123
:106E7000B1B1FEFEFEFCFCFCFDFDFDFFFFFFFDFDD4
:106E8000FDFAFAFADBDBDBF0F0F0CFCFCF858585BA
:106E9000BDBDBDFAFAFAFEFEFEFEFEFEE3E3E38FA1
:106EA0008F8F838383D5D5D5FBFBFBFFFFFFE2E20A
:106EB000E2D5D5D5FFFFFFDBDBDBE3E3E3E8E8E882
:106EC0008B8B8BADADADFBFBFBFFFFFFFFFFFFFD32
:106ED000FDFDBDBDBD818181A5A5A5EFEFEFFFFF44
:106EE000FFFBFBFBFFFFFFFFFFFFFDFDFDFFFFFFC4
:106EF000FFFFFFFFFFFFFFFFFFFFFFFFFFFFFFFFA2
:106F0000FFFFFFFFFFFFFFFFFFFFFFFFFFFFFFFF91
:106F1000FFFFFFFFFFFFFFFFFFFFFFFFFFFFFFFF81
:106F2000FFFFFFFFFFFFFFFFFFFFFFFFFFFFFFFF71
:106F3000FFFFFFFFFFFFFFFFFFFFFFFFFFFFFFFF61
:106F4000FFFFFFFFFFFFFFFFFFFFFFFFFFFFFFFF51
:106F5000FFFFFFFFFFFFFFFFFFFFFFFFFFFFFFFF41
:106F6000FFFFFFFFFFFFFFFFFFFFFFFFFFFFFFFF31
:106F7000FFFFFFFFFFFFFFFFFFFFFFFFFFFFFFFF21
:106F8000FFFFFFFFFFFFFFFFFFFFFFFFFFFFFFFF11
:106F9000FFFFFFFFFFFFFFFFFFFFFFFFFFFFFFFF01
:106FA000FFFFFFFFFFFFFFFFFFFFFFFFFFFFFFFFF1
:106FB000FFFFFFFFFFFFACACAC00000000000000D3
:106FC0000000000000000000141414A9A9A9FFFF8C
:106FD000FFFFFFFFFFFFFFFFFFFFFFFFFFFFFFFFC1
:106FE000FFFFFFFFFFFFFEFEFEFFFFFFFEFEFEEEC8
:106FF000EEEE5A5A5A0000000101010000000000A4
:10700000000000000000000101010707073C3C3CB4
:10701000B7B7B7F7F7F7FDFDFDFCFCFCFEFEFEFD84
:10702000FDFDDADADA424242000000000000000012
:10703000000000000000002F2F2FCECECEFCFCFC65
:10704000FEFEFEFEFEFEFEFEFEFEFEFEFEFEFEFC62
:10705000FCFC81818106060600000001010132323C
:1070600032EBEBEBFEFEFEFDFDFDFFFFFFFFFFFF42
:10707000FEFEFEFDFDFDFDFDFDFCFCFC5D5D5D011C
:1070800001010000000000000000000000004D4D64
:107090004DECECECFFFFFFFEFEFEFEFEFEFCFCFCFA
:1070A000222222000000000000000000040404006E
:1070B00000000303032929299A9A9AF1F1F1FEFEAF
:1070C000FEFDFDFDFEFEFEFEFEFEFEFEFEC7C7C788
:1070D0003F3F3F04040400000000000000000001E6
:1070E00001010000001A1A1AE2E2E2FEFEFEFEFEB4
:1070F000FEFEFEFEFEFEFEFCFCFCFEFEFEE3E3E307
:107100002B2B2B020202000000020202080808A238
:10711000A2A2FDFDFDFEFEFEFEFEFEFDFDFDFEFE4D
:10712000FEFEFEFEFFFFFFFDFDFDFEFEFEBABABA4B
:107130000A0A0A00000001010100000001010166C5
:107140006666F5F5F5FDFDFDFEFEFEFCFCFCFEFEB3
:10715000FEFEFEFEFEFEFEF0F0F06C6C6C02020223
:107160000000000000000000003A3A3AF4F4F47520
:107170007575040404454545D8D8D8FCFCFCFDFDD4
:10718000FDFCFCFCA7A7A70505050000000000000A
:10719000000000030303020202929292FAFAFAFF3D
:1071A000FFFFFFFFFFFFFFFFFFFFFFFFFFFFFFFFEF
:1071B000FFFFFFFFFFFFFDFEFEFFFDFDFFFDFFFFE9
:1071C000FEFFFFEEA6AFCB0B2ECF1233D01231CA8B
:1071D0001131EBA3AFFEFEFDFEFFFDFFFFFFFFFF42
:1071E000FFFFFFFFFFFFFFFFFFFFFFFFFFF5F5F5CD
:1071F0007777772323234F4F4F4A4A4A1C1C1C5F43
:107200005F5FFDFDFDDBDBDB4444443737374F4F29
:107210004F2626269F9F9FFDFDFDFEFEFEFDFDFDE8
:10722000FEFEFEFFFFFFDFDFDF444444A9A9A9ED16
:10723000EDEDEEEEEEF2F2F2FCFCFCFEFEFEE8E816
:10724000E85555553B3B3B4242425353532E2E2E5D
:10725000B2B2B2FDFDFDD2D2D244444448484858AF
:107260005858353535A2A2A2FAFAFA6B6B6B40403A
:1072700040FAFAFA5F5F5F2323234848485757577D
:10728000272727808080FEFEFEF1F1F17272722BBB
:107290002B2B5858583C3C3C4F4F4FE7E7E7FEFE3E
:1072A000FEFEFEFEFEFEFEFEFEFEFEFEFEFEFEFEFE
:1072B000FFFFFFFFFFFFFFFFFFFFFFFFFFFFFFFFDE
:1072C000FFFFFFFFFFFFFFFFFFFFFFFFFFFFFFFFCE
:1072D000FFFFFFFFFFFFFFFFFFFFFFFFFFFFFFFFBE
:1072E000FFFFFFFFFFFFFFFFFFFFFFFFFFFFFFFFAE
:1072F000FFFFFFFFFFFFFFFFFFFFFFFFFFFFFFFF9E
:10730000FFFFFFFFFFFFFFFFFFFFFFFFFFFFFFFF8D
:10731000FFFFFFFFFFFFFFFFFFFFFFFFFFFFFFFF7D
:10732000FFFFFFFFFFFFFFFFFFFFFFFFFFFFFFFF6D
:10733000FFFFFFFFFFFFFFFFFFFFFFFFFFFFFFFF5D
:10734000FFFFFFFFFFFFFFFFFFFFFFFFFFFFFFFF4D
:10735000FFFFFFFFFFFFFFFFFFFFFFFFFFFFFFFF3D
:10736000FFFFFFFFFFFFFFFFFFFFFFFFFFFFFFFF2D
:10737000FFFFFFACACAC000000000000000000000C
:107380000000000000141414A9A9A9FFFFFFFFFFCB
:10739000FFFFFFFFFFFFFFFFFFFFFFFFFFFFFFFFFD
:1073A000FFFFFFFDFDFDFFFFFFFDFDFDFFFFFFB93F
:1073B000B9B903030300000001010100000000004F
:1073C000000000000C0C0C696969E3E3E3FDFDFDBE
:1073D000FDFDFDFEFEFEFFFFFFFEFEFEFEFEFEFECD
:1073E000FEFED5D5D51818180000000000000101D8
:1073F00001000000151515BBBBBBFEFEFEFEFEFE28
:10740000FDFDFDFEFEFEFEFEFEFEFEFEEDEDED4C84
:107410004C4C010101010101010101515151F2F2F4
:10742000F2FEFEFEFEFEFEFEFEFEFEFEFEFCFCFC8E
:10743000FEFEFEFCFCFCFDFDFDCECECE2323230193
:107440000101010101000000040404787878F5F5D9
:10745000F5FFFFFFFEFEFEFEFEFEFCFCFC222222EC
:107460000000000000000101010000000707074EB6
:107470004E4ECACACAFDFDFDFDFDFDFEFEFEFFFF2C
:10748000FFFDFDFDFDFDFDFDFDFDFDFDFDDFDFDF84
:107490004C4C4C0101010000000000000101010002
:1074A0000000020202767676FEFEFEFEFEFEFEFE84
:1074B000FEFEFEFEFFFFFFF3F3F3676767000000C9
:1074C000000000010101000000505050F6F6F6FEE9
:1074D000FEFEFEFEFEFFFFFFFEFEFEFDFDFDFEFECC
:1074E000FEFEFEFEFFFFFFFEFEFEFBFBFB525252C6
:1074F0000202020101010101010000001E1E1EBB6B
:10750000BBBBFEFEFEFEFEFEFEFEFEFFFFFFFDFD20
:10751000FDFEFEFEFEFEFE9E9E9E0E0E0E00000076
:10752000000000000000363636B6B6B6111111372D
:107530003737CDCDCDFDFDFDFEFEFEFEFEFEFEFE8F
:10754000FEF9F9F9242424000000000000000000E6
:10755000010101020202909090F9F9F9FFFFFFFF8B
:10756000FFFFFFFFFFFFFFFFFFFFFFFFFFFFFFFF2B
:10757000FFFFFFFDFEFEFFFDFDFFFDFFFFFEFFFF26
:10758000EEA6AFCB0B2ECF1233D01231CA1131EB96
:10759000A3AFFEFEFDFEFFFDFFFFFFFFFFFFFFFFAE
:1075A000FFFFFFFFFFFFFFFFFFFFB6B6B61C1C1C6F
:1075B000BDBDBDFDFDFDD5D5D52A2A2A606060F987
:1075C000F9F97B7B7B414141E7E7E7F5F5F58686F5
:1075D000862F2F2FF1F1F1FEFEFEFEFEFEFEFEFED7
:1075E000FFFFFFDFDFDF4444444343435E5E5E5FF3
:1075F0005F5F8C8C8CEBEBEBFEFEFEEAEAEA565604
:10760000565E5E5EE2E2E2F6F6F66D6D6D747474DF
:10761000FCFCFCA3A3A34F4F4FE5E5E5FDFDFDC03A
:10762000C0C0C3C3C3FBFBFB6F6F6F424242FAFA99
:10763000FA5E5E5E272727CBCBCBFCFCFC858585DD
:10764000181818FDFDFDAEAEAE313131CBCBCBFD00
:10765000FDFDE0E0E03E3E3E858585FDFDFDFFFF52
:10766000FFFEFEFEFEFEFEFDFDFDFEFEFEFFFFFF39
:10767000FFFFFFFFFFFFFFFFFFFFFFFFFFFFFFFF1A
:10768000FFFFFFFFFFFFFFFFFFFFFFFFFFFFFFFF0A
:10769000FFFFFFFFFFFFFFFFFFFFFFFFFFFFFFFFFA
:1076A000FFFFFFFFFFFFFFFFFFFFFFFFFFFFFFFFEA
:1076B000FFFFFFFFFFFFFFFFFFFFFFFFFFFFFFFFDA
:1076C000FFFFFFFFFFFFFFFFFFFFFFFFFFFFFFFFCA
:1076D000FFFFFFFFFFFFFFFFFFFFFFFFFFFFFFFFBA
:1076E000FFFFFFFFFFFFFFFFFFFFFFFFFFFFFFFFAA
:1076F000FFFFFFFFFFFFFFFFFFFFFFFFFFFFFFFF9A
:10770000FFFFFFFFFFFFFFFFFFFFFFFFFFFFFFFF89
:10771000FFFFFFFFFFFFFFFFFFFFFFFFFFFFFFFF79
:10772000FFFFFFFFFFFFFFFFFFFFFFFFFFFFFFFF69
:10773000ACACAC0000000000000000000000000045
:107740000000141414A9A9A9FFFFFFFFFFFFFFFF0A
:10775000FFFFFFFFFFFFFFFFFFFFFFFFFFFFFFFF39
:10776000FEFEFEFFFFFFFDFDFDFEFEFEE4E4E4097C
:1077700009090000000000000000000000000606EB
:1077800006646464E6E6E6FEFEFEFEFEFEFEFEFE27
:10779000FDFDFDFDFDFDFEFEFEFEFEFEFEFEFEFD10
:1077A000FDFD5F5F5F0000000101010000000000BF
:1077B000000C0C0CB1B1B1FEFEFEFEFEFEFEFEFEA4
:1077C000FEFEFEFEFEFEFEFEFED9D9D93838380098
:1077D00000000000000000003E3E3EEFEFEFFFFF24
:1077E000FFFFFFFFFEFEFEFEFEFEFEFEFEFEFEFEB5
:1077F000FDFDFDFEFEFEF9F9F9A7A7A72525250148
:107800000101060606505050D4D4D4FEFEFEFFFF00
:10781000FFFEFEFEFEFEFEFCFCFC2222220000001B
:10782000000000000000000000343434CACACAFD61
:10783000FDFDFEFEFEFEFEFEFEFEFEFEFEFEFEFE6A
:10784000FEFEFEFEFDFDFDFDFDFDFDFDFDBEBEBE21
:1078500026262600000000000000000000000001B5
:1078600001011E1E1EEDEDEDFEFEFEFEFEFEFDFD07
:10787000FDFEFEFEB7B7B71C1C1C00000001010195
:10788000000000050505C4C4C4FDFDFDFEFEFEFEAE
:10789000FEFEFEFEFEFEFEFEFEFEFEFDFDFDFEFE0B
:1078A000FEFFFFFFFEFEFEFDFDFDBCBCBC000000B8
:1078B000010101010101010101030303737373F667
:1078C000F6F6FEFEFEFFFFFFFEFEFEFEFEFEFFFFE3
:1078D000FFFEFEFEA7A7A71414140000000000007E
:1078E0000101010B0B0B2121211212129D9D9DFA0A
:1078F000FAFAFDFDFDFDFDFDFEFEFEFEFEFEFEFEB6
:10790000FE5D5D5D0101010000000101010000005C
:10791000181818B7B7B7FDFDFDFEFEFEFFFFFFFF0D
:10792000FFFFFFFFFFFFFFFFFFFFFFFFFFFFFFFF67
:10793000FDFEFEFFFDFDFFFDFFFFFEFFFFEEA6AF1C
:10794000CB0B2ECF1233D01231CA1131EBA3AFFEC5
:10795000FEFDFEFFFDFFFFFFFFFFFFFFFFFFFFFF3D
:10796000FFFFFFFFFFFFFF7B7B7B373737FDFDFD11
:10797000FFFFFFFEFEFE484848595959EAEAEA511E
:107980005151787878D6D6D6D8D8D8A5A5A51818C4
:1079900018D5D5D5FEFEFEFEFEFEFEFEFEFFFFFF65
:1079A000DFDFDF444444717171A8A8A8A6A6A6BF72
:1079B000BFBFF4F4F4FEFEFEE8E8E8565656A1A177
:1079C000A1FEFEFEFBFBFB777777636363FDFDFDA6
:1079D000B5B5B52C2C2CA1A1A1F9F9F9FEFEFEFE3E
:1079E000FEFEFDFDFD717171444444FBFBFB5959E2
:1079F00059505050FDFDFDFEFEFE9797970A0A0A6A
:107A0000F9F9F9848484595959FAFAFAFEFEFEFE0E
:107A1000FEFE797979282828FEFEFEFEFEFEFEFE97
:107A2000FEFFFFFFFEFEFEFFFFFFFFFFFFFFFFFF6A
:107A3000FFFFFFFFFFFFFFFFFFFFFFFFFFFFFFFF56
:107A4000FFFFFFFFFFFFFFFFFFFFFFFFFFFFFFFF46
:107A5000FFFFFFFFFFFFFFFFFFFFFFFFFFFFFFFF36
:107A6000FFFFFFFFFFFFFFFFFFFFFFFFFFFFFFFF26
:107A7000FFFFFFFFFFFFFFFFFFFFFFFFFFFFFFFF16
:107A8000FFFFFFFFFFFFFFFFFFFFFFFFFFFFFFFF06
:107A9000FFFFFFFFFFFFFFFFFFFFFFFFFFFFFFFFF6
:107AA000FFFFFFFFFFFFFFFFFFFFFFFFFFFFFFFFE6
:107AB000FFFFFFFFFFFFFFFFFFFFFFFFFFFFFFFFD6
:107AC000FFFFFFFFFFFFFFFFFFFFFFFFFFFFFFFFC6
:107AD000FFFFFFFFFFFFFFFFFFFFFFFFFFFFFFFFB6
:107AE000FFFFFFFFFFFFFFFFFFFFFFFFFFACACAC9F
:107AF0000000000000000000000000000000001472
:107B00001414A9A9A9FFFFFFFFFFFFFFFFFFFFFF5D
:107B1000FFFFFFFFFFFFFFFFFFFFFFFFFFFEFEFE78
:107B2000FFFFFFFFFFFFFFFFFFEAEAEA0E0E0E0076
:107B300000000101010000000101012D2D2DE1E1F6
:107B4000E1FEFEFEFFFFFFFFFFFFFFFFFFFFFFFF66
:107B5000FFFFFFFFFFFFFFFFFFFFFFFFFDFDFD98A2
:107B600098980000000000000000000000000B0BCF
:107B70000BB0B0B0FEFEFEFFFFFFFFFFFFFFFFFFF9
:107B8000FDFDFDFFFFFFD3D3D332323201010100EF
:107B90000000000000050505B2B2B2FEFEFEFDFDCC
:107BA000FDFFFFFFFEFEFEFFFFFFFEFEFEFEFEFEF0
:107BB000FFFFFFFCFCFCFFFFFFEEEEEEC3C3C3D5EF
:107BC000D5D5FFFFFFFDFDFDFEFEFEFFFFFFFEFE24
:107BD000FEFEFEFEFCFCFC22222200000000000053
:107BE0000000000000003F3F3FE2E2E2FEFEFEFF39
:107BF000FFFFFFFFFFFFFFFFFFFFFFFFFFFFFFFF95
:107C0000FFFFFFFFFFFFFFFEFEFEF8F8F872727243
:107C10000303030000000000000101010000000B4D
:107C20000B0BB8B8B8FDFDFDFEFEFEFFFFFFF4F440
:107C3000F468686802020200000000000000000012
:107C40002B2B2BFCFCFCFFFFFFFDFDFDFEFEFEFED3
:107C5000FEFEFFFFFFFFFFFFFFFFFFFFFFFFFFFF36
:107C6000FFFFFFFFFFFFFFF3F3F313131301010106
:107C70000000000000000000003F3F3FDCDCDCFEB5
:107C8000FEFEFFFFFFFEFEFEFEFEFEFFFFFFFEFE0E
:107C9000FEA9A9A9141414000000000000000000AF
:107CA0000000000000003F3F3FF5F5F5FEFEFEFF3F
:107CB000FFFFFFFFFFFFFFFFFEFEFEFEFEFED0D038
:107CC000D02424240000000202020404046969692B
:107CD000F0F0F0FDFDFDFFFFFFFFFFFFFFFFFFFFE7
:107CE000FFFFFFFFFFFFFFFFFFFFFFFFFFFDFEFEA8
:107CF000FFFDFDFFFDFFFFFEFFFFEEA6AFCB0B2E4E
:107D0000CF1233D01231CA1131EBA3AFFEFEFDFE0C
:107D1000FFFDFEFEFEFEFEFEFFFFFFFFFFFFFEFE7D
:107D2000FEF8F8F86262625D5D5DFBFBFBFDFDFD48
:107D3000FDFDFD494949575757E1E1E148484800F1
:107D40000000010101000000020202060606C5C58E
:107D5000C5FEFEFEFEFEFEFDFDFDFFFFFFDFDFDFD9
:107D6000444444B5B5B5FEFEFEFDFDFDFEFEFEFC41
:107D7000FCFCFDFDFDE9E9E9555555A0A0A0FFFF7C
:107D8000FFFBFBFB757575666666FCFCFCF4F4F4A2
:107D90008888880E0E0E0D0D0D8D8D8DF1F1F1FF81
:107DA000FFFF707070424242FBFBFB595959515121
:107DB00051FFFFFFFEFEFE989898060606F8F8F8B9
:107DC000787878767676FBFBFBFEFEFEFDFDFD986F
:107DD00098980F0F0FFCFCFCFFFFFFFFFFFFFFFF5A
:107DE000FFFFFFFFFFFFFFFFFFFFFFFFFFFFFFFFA3
:107DF000FFFFFFFFFFFFFFFFFFFFFFFFFFFFFFFF93
:107E0000FFFFFFFFFFFFFFFFFFFFFFFFFFFFFFFF82
:107E1000FFFFFFFFFFFFFFFFFFFFFFFFFFFFFFFF72
:107E2000FFFFFFFFFFFFFFFFFFFFFFFFFFFFFFFF62
:107E3000FFFFFFFFFFFFFFFFFFFFFFFFFFFFFFFF52
:107E4000FFFFFFFFFFFFFFFFFFFFFFFFFFFFFFFF42
:107E5000FFFFFFFFFFFFFFFFFFFFFFFFFFFFFFFF32
:107E6000FFFFFFFFFFFFFFFFFFFFFFFFFFFFFFFF22
:107E7000FFFFFFFFFFFFFFFFFFFFFFFFFFFFFFFF12
:107E8000FFFFFFFFFFFFFFFFFFFFFFFFFFFFFFFF02
:107E9000FFFFFFFFFFFFFFFFFFFFFFFFFFFFFFFFF2
:107EA000FFFFFFFFFFFFFFFFFFFFACACAC000000D8
:107EB000000000000000000000000000141414A9DD
:107EC000A9A9FFFFFFFFFFFFFFFFFFFFFFFFFFFF6E
:107ED000FFFFFFFFFFFFFFFFFFFFFEFEFEFFFFFFB5
:107EE000FFFFFFFFFFFFEAEAEA0E0E0E00000000B0
:107EF0000000000000000000363636ECECECFEFE20
:107F0000FEFEFEFEFFFFFFFFFFFFFFFFFFFFFFFF85
:107F1000FFFFFFFFFFFFFFFFFFFFFFFF9D9D9D0096
:107F200000000000000000000000000B0B0BB0B0D0
:107F3000B0FEFEFEFFFFFFFFFFFFFEFEFEFEFEFEA9
:107F4000FEFEFEDCDCDC3B3B3B00000000000001F1
:107F500001010000001313139E9E9EE6E6E6FAFA66
:107F6000FAFEFEFEFEFEFEFDFDFDFEFEFEFEFEFE38
:107F7000FEFEFEFEFEFEFDFDFDFEFEFEFCFCFCFE2A
:107F8000FEFEFEFEFEFEFEFEFFFFFFFEFEFEFEFE0E
:107F9000FEFCFCFC22222200000000000000000089
:107FA0000000003F3F3FE2E2E2FEFEFEFFFFFFFF78
:107FB000FFFFFFFFFFFFFFFFFFFFFFFFFFFFFFFFD1
:107FC000FFFFFFFFFCFCFCFEFEFEB2B2B21717176C
:107FD0000000000000000000000000000404049005
:107FE0009090FEFEFEFFFFFFFEFEFED8D8D8393986
:107FF0003900000000000000000000000061616125
:10800000FEFEFEFEFEFEFEFEFEFCFCFCFEFEFEFF95
:10801000FFFFFFFFFFFFFFFFFFFFFFFFFFFFFFFF70
:10802000FFFFFFFFFEFEFE2D2D2D000000000000D3
:108030000000000000001B1B1BC5C5C5FEFEFEFDA9
:10804000FDFDFEFEFEFEFEFEFEFEFEFEFEFEA9A9FC
:10805000A91414140000000000000000000000003B
:10806000000000989898FEFEFEFEFEFEFEFEFEFD5D
:10807000FDFDFEFEFEFEFEFEFEFEFEFBFBFBD2D283
:10808000D27C7C7C6161619D9D9DEDEDEDFEFEFEEF
:10809000FEFEFEFFFFFFFFFFFFFFFFFFFFFFFFFFF3
:1080A000FFFFFFFFFFFFFFFFFFFFFDFEFEFFFDFDE8
:1080B000FFFDFFFFFEFFFFEEA6AFCB0B2ECF12336F
:1080C000D01231CA1131EBA3AFFEFEFDFEFFFDFE63
:1080D000FEFEFEFEFEFFFFFFFEFEFEFEFEFEFBFBC3
:1080E000FB686868505050FEFEFEFEFEFEFDFDFD82
:1080F000454545595959E4E4E4494949919191E389
:10810000E3E3E4E4E4E4E4E4E4E4E4F9F9F9FEFEBE
:10811000FEFDFDFDFEFEFEFEFEFEE0E0E04444440A
:10812000AFAFAFFEFEFEFEFEFEFDFDFDFEFEFEFE5F
:10813000FEFEE9E9E9555555A0A0A0FDFDFDFBFBBC
:10814000FB757575656565FEFEFEFDFDFDFEFEFEBB
:10815000DFDFDF9292922D2D2D727272EFEFEF70B2
:108160007070434343FBFBFB5959594E4E4EFEFE84
:10817000FEFDFDFD9393930B0B0BF9F9F97C7C7CD1
:108180006C6C6CFBFBFBFCFCFCFEFEFE8D8D8D190C
:108190001919FCFCFCFEFEFEFEFEFEFFFFFFFEFECC
:1081A000FEFEFEFEFFFFFFFFFFFFFFFFFFFFFFFFE3
:1081B000FFFFFFFFFFFFFFFFFFFFFFFFFFFFFFFFCF
:1081C000FFFFFFFFFFFFFFFFFFFFFFFFFFFFFFFFBF
:1081D000FFFFFFFFFFFFFFFFFFFFFFFFFFFFFFFFAF
:1081E000FFFFFFFFFFFFFFFFFFFFFFFFFFFFFFFF9F
:1081F000FFFFFFFFFFFFFFFFFFFFFFFFFFFFFFFF8F
:10820000FFFFFFFFFFFFFFFFFFFFFFFFFFFFFFFF7E
:10821000FFFFFFFFFFFFFFFFFFFFFFFFFFFFFFFF6E
:10822000FFFFFFFFFFFFFFFFFFFFFFFFFFFFFFFF5E
:10823000FFFFFFFFFFFFFFFFFFFFFFFFFFFFFFFF4E
:10824000FFFFFFFFFFFFFFFFFFFFFFFFFFFFFFFF3E
:10825000FFFFFFFFFFFFFFFFFFFFFFFFFFFFFFFF2E
:10826000FFFFFFFFFFFFFFACACAC00000000000011
:10827000000000000000000000141414A9A9A9FFC8
:10828000FFFFFFFFFFFFFFFFFFFFFFFFFFFFFFFFFE
:10829000FFFFFFFFFFFFFFFEFEFEFFFFFFFFFFFFF1
:1082A000FFFFFFEAEAEA0E0E0E00000000000001E8
:1082B0000101000000353535EEEEEEFEFEFEFEFE5D
:1082C000FEFFFFFFFFFFFFFFFFFFFFFFFFFFFFFFBF
:1082D000FFFFFFFEFEFEFEFEFEA0A0A000000000CD
:1082E00000000000000000000B0B0BB0B0B0FEFE61
:1082F000FEFFFFFFFFFFFFFEFEFEFEFEFEFDFDFD9B
:10830000F1F1F1565656010101010101010101018E
:108310000101010101090909505050969696D0D0EB
:10832000D0F2F2F2FEFEFEFEFEFEFFFFFFFEFEFEBC
:10833000FEFEFEFEFEFEFEFEFEFEFEFEFEFEFEFD5E
:10834000FDFDFEFEFEFFFFFFFEFEFEFEFEFEFCFC50
:10835000FC222222000000000000000000000000BB
:108360003F3F3FE2E2E2FEFEFEFFFFFFFFFFFFFFB7
:10837000FFFFFFFFFFFFFFFFFFFFFFFFFFFFFFFF0D
:10838000FFFDFDFDFEFEFEE8E8E8333333000000AC
:108390000000000000000000000202026E6E6EFD90
:1083A000FDFDFEFEFEFEFEFEB7B7B710101000008A
:1083B00000000000000000000000636363B7B7B76F
:1083C000B8B8B8B6B6B6B7B7B7B7B7B7B7B7B7B73D
:1083D000B7B7B7B7B7B7B7B7B7B7B7B7B7B7B7B72D
:1083E000B7B4B4B42929290101010000000000003C
:1083F000000000070707A9A9A9FCFCFCFEFEFEFE81
:10840000FEFEFEFEFEFEFEFEFEFEFEA9A9A914145F
:10841000140000000000000000000000000E0E0E1E
:10842000E4E4E4FEFEFEFDFDFDFEFEFEFFFFFFFEBA
:10843000FEFEFDFDFDFDFDFDFEFEFEFEFEFEFDFD64
:10844000FDFEFEFEFEFEFEFEFEFEFDFDFDFEFEFE50
:10845000FEFEFEFFFFFFFFFFFFFFFFFFFFFFFFFF2F
:10846000FFFFFFFFFFFFFFFDFEFEFFFDFDFFFDFF26
:10847000FFFEFFFFEEA6AFCB0B2ECF1233D0123193
:10848000CA1131EBA3AFFEFEFDFEFFFDFEFEFEFEB8
:10849000FEFEFFFFFFFEFEFEFFFFFFFEFEFE8B8BDC
:1084A0008B262626F1F1F1FDFDFDF0F0F03939398A
:1084B0005C5C5CF2F2F26161616B6B6BFCFCFCFE7C
:1084C000FEFEF5F5F5BABABAF2F2F2FDFDFDFFFFD8
:1084D000FFFEFEFEFEFEFEDEDEDE444444B4B4B427
:1084E000FEFEFEFEFEFEFDFDFDFEFEFEFDFDFDE9C7
:1084F000E9E9565656A0A0A0FDFDFDFBFBFB7575F6
:1085000075656565FCFCFCDDDDDDDCDCDCFEFEFEAE
:10851000FDFDFDAFAFAF444444DFDFDF707070435B
:108520004343FAFAFA5A5A5A4E4E4EFEFEFEFEFEE9
:10853000FE959595090909F9F9F99393933E3E3E05
:10854000F7F7F7FDFDFDF8F8F85C5C5C4F4F4FFC6A
:10855000FCFCFEFEFEFEFEFEFFFFFFFEFEFEFEFE3C
:10856000FEFFFFFFFFFFFFFFFFFFFFFFFFFFFFFF1C
:10857000FFFFFFFFFFFFFFFFFFFFFFFFFFFFFFFF0B
:10858000FFFFFFFFFFFFFFFFFFFFFFFFFFFFFFFFFB
:10859000FFFFFFFFFFFFFFFFFFFFFFFFFFFFFFFFEB
:1085A000FFFFFFFFFFFFFFFFFFFFFFFFFFFFFFFFDB
:1085B000FFFFFFFFFFFFFFFFFFFFFFFFFFFFFFFFCB
:1085C000FFFFFFFFFFFFFFFFFFFFFFFFFFFFFFFFBB
:1085D000FFFFFFFFFFFFFFFFFFFFFFFFFFFFFFFFAB
:1085E000FFFFFFFFFFFFFFFFFFFFFFFFFFFFFFFF9B
:1085F000FFFFFFFFFFFFFFFFFFFFFFFFFFFFFFFF8B
:10860000FFFFFFFFFFFFFFFFFFFFFFFFFFFFFFFF7A
:10861000FFFFFFFFFFFFFFFFFFFFFFFFFFFFFFFF6A
:10862000FFFFFFFFACACAC0000000000000000004A
:10863000000000000000141414A9A9A9FFFFFFFF07
:10864000FFFFFFFFFFFFFFFFFFFFFFFFFFFFFFFF3A
:10865000FFFFFFFFFEFEFEFFFFFFFFFFFFFFFFFF2D
:10866000EAEAEA0E0E0E0000000000000000000022
:108670000000353535EEEEEEFFFFFFFFFFFFFFFF99
:10868000FFFFFFFFFFFFFFFFFFFFFFFFFFFFFFFFFA
:10869000FEFEFEFEFEFEA1A1A10000000000000003
:1086A00000000000000B0B0BB0B0B0FEFEFEFFFFA1
:1086B000FFFFFFFFFEFEFEFEFEFEFDFDFDFCFCFCDF
:1086C000A1A1A10A0A0A00000000000001010100A6
:1086D00000000000000101010E0E0E2A2A2A4F4F51
:1086E0004F909090D1D1D1F9F9F9FEFEFEFEFEFE39
:1086F000FEFEFEFEFEFEFEFEFEFEFEFEFEFEFEFE9A
:10870000FEFEFFFFFFFEFEFEFEFEFEFCFCFC222244
:10871000220000000000000000000000003F3F3F7A
:10872000E2E2E2FEFEFEFFFFFFFFFFFFFFFFFFFFB3
:10873000FFFFFFFFFFFFFFFFFFFFFFFEFEFEFEFE4E
:10874000FEFDFDFDFBFBFB5A5A5A00000000000035
:10875000000000000000010101575757F9F9F9FE28
:10876000FEFEFBFBFB929292010101000000000063
:10877000000000000000001010101D1D1D1D1D1D1B
:108780001C1C1C1C1C1C1E1E1E1C1C1C1C1C1C1C23
:108790001C1C1C1C1C1C1C1C1C1C1C1C1C1C1D1D17
:1087A0001D0505050101010000000000000000009A
:1087B0000101018A8A8AFCFCFCFDFDFDFEFEFEFE35
:1087C000FEFEFEFEFEFEFEFEA9A9A9141414000082
:1087D000000000000000000000003B3B3BFDFDFDF1
:1087E000FDFDFDFEFEFEFEFEFEFEFEFEFDFDFDFEAF
:1087F000FEFEFEFEFEFEFEFEFEFEFEFEFEFEFEFE99
:10880000FEFDFDFDFEFEFEFEFEFEFCFCFCFEFEFE91
:10881000FFFFFFFFFFFFFFFFFFFFFFFFFFFFFFFF68
:10882000FFFFFFFFFDFEFEFFFDFDFFFDFFFFFEFF63
:10883000FFEEA6AFCB0B2ECF1233D01231CA1131BF
:10884000EBA3AFFEFEFDFEFFFDFEFEFEFEFEFEFF05
:10885000FFFFFEFEFEFEFEFEFFFFFFD9D9D928284E
:10886000285F5F5FC2C2C27575750D0D0D5F5F5FDA
:10887000FDFDFDAAAAAA252525949494CDCDCD7DF4
:108880007D7D303030E3E3E3FDFDFDFDFDFDFEFECB
:10889000FEFDFDFDDEDEDE4444446565659191919B
:1088A000939393929292919191B8B8B8E9E9E95370
:1088B00053539D9D9DFEFEFEFAFAFA757575626230
:1088C00062FBFBFB9898984A4A4AB5B5B5D4D4D414
:1088D000636363626262EEEEEE6666663F3F3FFB95
:1088E000FBFB5252524A4A4AFEFEFEFDFDFD9292A9
:1088F00092050505F8F8F8D4D4D43535357777776F
:10890000D3D3D3979797232323BFBFBFFDFDFDFD8F
:10891000FDFDFEFEFEFEFEFEFDFDFDFFFFFFFFFF77
:10892000FFFFFFFFFFFFFFFFFFFFFFFFFFFFFFFF57
:10893000FFFFFFFFFFFFFFFFFFFFFFFFFFFFFFFF47
:10894000FFFFFFFFFFFFFFFFFFFFFFFFFFFFFFFF37
:10895000FFFFFFFFFFFFFFFFFFFFFFFFFFFFFFFF27
:10896000FFFFFFFFFFFFFFFFFFFFFFFFFFFFFFFF17
:10897000FFFFFFFFFFFFFFFFFFFFFFFFFFFFFFFF07
:10898000FFFFFFFFFFFFFFFFFFFFFFFFFFFFFFFFF7
:10899000FFFFFFFFFFFFFFFFFFFFFFFFFFFFFFFFE7
:1089A000FFFFFFFFFFFFFFFFFFFFFFFFFFFFFFFFD7
:1089B000FFFFFFFFFFFFFFFFFFFFFFFFFFFFFFFFC7
:1089C000FFFFFFFFFFFFFFFFFFFFFFFFFFFFFFFFB7
:1089D000FFFFFFFFFFFFFFFFFFFFFFFFFFFFFFFFA7
:1089E000FFACACAC00000000000000000000000084
:1089F000000000141414A9A9A9FFFFFFFFFFFFFF47
:108A0000FFFFFFFFFFFFFFFFFFFFFFFFFFFFFFFF76
:108A1000FFFEFEFEFFFFFFFFFFFFFFFFFFEAEAEAA8
:108A20000E0E0E00000000000000000001010135E4
:108A30003535EDEDEDFEFEFEFEFEFEFFFFFFFFFF16
:108A4000FFFFFFFFFFFFFFFFFFFFFEFEFEFEFEFE3C
:108A5000FEFEFEA2A2A20000000000000000000036
:108A600000000B0B0BB0B0B0FEFEFEFFFFFFFFFFE0
:108A7000FFFEFEFEFDFDFDFEFEFEFDFDFDFAFAFA27
:108A800050505000000001010101010102020200EA
:108A900000000202020101010000000000000101CB
:108AA000010707073B3B3B9F9F9FECECECFDFDFD67
:108AB000FCFCFCFEFEFEFFFFFFFEFEFEFDFDFDFFDB
:108AC000FFFFFEFEFEFEFEFEFCFCFC22222200005A
:108AD000000000000000000000003F3F3FE2E2E233
:108AE000FEFEFEFFFFFFFFFFFFFFFFFFFFFFFFFF99
:108AF000FFFFFFFFFFFFFFFFFEFEFEFFFFFFFEFE8B
:108B0000FEFEFEFE868686000000000000000000DB
:108B1000000000020202474747F1F1F1FFFFFFFBAF
:108B2000FBFB6E6E6E000000000000000000000005
:108B3000000202020000000000000000000101012C
:108B40000000000000000000000000000000000025
:108B50000000000000000000000000000000020211
:108B60000201010100000000000000000000000000
:108B7000727272FBFBFBFDFDFDFCFCFCFDFDFDFFCD
:108B8000FFFFFEFEFEA9A9A91414140000000000B6
:108B9000000000000000006E6E6EFDFDFDFEFEFE9A
:108BA000FCFCFCFEFEFEFCFCFCFEFEFEFEFEFEFDF2
:108BB000FDFDFDFDFDFEFEFEFEFEFEFEFEFEFEFEDA
:108BC000FEFCFCFCFEFEFEFDFDFDFEFEFEFFFFFFCB
:108BD000FFFFFFFFFFFFFFFFFFFFFFFFFFFFFFFFA5
:108BE000FFFDFEFEFFFDFDFFFDFFFFFEFFFFEEA60A
:108BF000AFCB0B2ECF1233D01231CA1131EBA3AF52
:108C0000FEFEFDFEFFFDFEFEFEFEFEFEFFFFFFFE82
:108C1000FEFEFEFEFEFFFFFFFDFDFDCCCCCC2C2CAE
:108C20002C0707075B5B5B6464647A7A7AFEFEFE5E
:108C3000FDFDFD9F9F9F1111110606062E2E2EC3CE
:108C4000C3C3FEFEFEFEFEFEFEFEFEFDFDFDFEFEBD
:108C5000FEE3E3E36D6D6D3030302323231E1E1ED3
:108C60001F1F1F1D1D1D717171EDEDED7A7A7AB216
:108C7000B2B2FEFEFEF8F8F8969696888888FEFE58
:108C8000FEEAEAEA767676111111060606474747AC
:108C9000D7D7D7FEFEFE9696966E6E6EFCFCFC82D3
:108CA00082827B7B7BFAFAFAFEFEFEACACAC4848D3
:108CB00048F9F9F9FDFDFDC4C4C42B2B2B040404B1
:108CC0001B1B1BA6A6A6FDFDFDFEFEFEFDFDFDFD7C
:108CD000FDFDFEFEFEFEFEFEFFFFFFFFFFFFFFFFAE
:108CE000FFFFFFFFFFFFFFFFFFFFFFFFFFFFFFFF94
:108CF000FFFFFFFFFFFFFFFFFFFFFFFFFFFFFFFF84
:108D0000FFFFFFFFFFFFFFFFFFFFFFFFFFFFFFFF73
:108D1000FFFFFFFFFFFFFFFFFFFFFFFFFFFFFFFF63
:108D2000FFFFFFFFFFFFFFFFFFFFFFFFFFFFFFFF53
:108D3000FFFFFFFFFFFFFFFFFFFFFFFFFFFFFFFF43
:108D4000FFFFFFFFFFFFFFFFFFFFFFFFFFFFFFFF33
:108D5000FFFFFFFFFFFFFFFFFFFFFFFFFFFFFFFF23
:108D6000FFFFFFFFFFFFFFFFFFFFFFFFFFFFFFFF13
:108D7000FFFFFFFFFFFFFFFFFFFFFFFFFFFFFFFF03
:108D8000FFFFFFFFFFFFFFFFFFFFFFFFFFFFFFFFF3
:108D9000FFFFFFFFFFFFFFFFFFFFFFFFFFFFACAC89
:108DA000AC00000000000000000000000000000017
:108DB000141414A9A9A9FFFFFFFFFFFFFFFFFFFF86
:108DC000FFFFFFFFFFFFFFFFFFFFFFFFFFFFFEFEB5
:108DD000FEFFFFFFFFFFFFFFFFFFEAEAEA0E0E0EB6
:108DE000000000000000000000020202343434EDF4
:108DF000EDEDFEFEFEFEFEFEFFFFFFFFFFFFFFFFAD
:108E0000FFFFFFFFFFFFFFFEFEFEFEFEFEFEFEFE7B
:108E1000A1A1A10000000000000000000000000B64
:108E20000B0BB0B0B0FEFEFEFFFFFFFFFFFFFEFE2C
:108E3000FEFDFDFDFEFEFEFEFEFEFDFDFDEDEDED8B
:108E40005C5C5C10101000000001010100000000DB
:108E50000000000000000000000000000000000012
:108E600000000000020202272727838383D8D8D876
:108E7000FCFCFCFDFDFDFEFEFEFFFFFFFFFFFFFE15
:108E8000FEFEFEFEFEFCFCFC222222000000000092
:108E9000000000000000003F3F3FE2E2E2FEFEFE75
:108EA000FFFFFFFFFFFFFFFFFFFFFFFFFFFFFFFFD2
:108EB000FFFFFFFFFFFFFFFFFEFEFEFEFEFEFEFECA
:108EC000FEA4A4A4000000000000000000000000B8
:108ED000010101434343EEEEEEFEFEFEF9F9F958BF
:108EE00058580101010000000000000000000000CF
:108EF0000030303047474747474745454546464697
:108F0000474747454545454545454545454545450B
:108F100045454545454545454545454646464545FE
:108F2000454747474646464444444747479B9B9BE3
:108F3000FBFBFBFEFEFEFEFEFEFDFDFDFEFEFEFE5D
:108F4000FEFEA9A9A91414140000000000000000EE
:108F5000000101018A8A8AFDFDFDFEFEFEFEFEFE85
:108F6000FEFEFEFEFEFEFDFDFDFFFFFFFEFEFEFE21
:108F7000FEFEFEFEFEFEFEFEFDFDFDFEFEFEFEFE14
:108F8000FEFEFEFEFEFEFEFDFDFDFFFFFFFFFFFFFE
:108F9000FFFFFFFFFFFFFFFFFFFFFFFFFFFFFDFEE4
:108FA000FEFFFDFDFFFDFFFFFEFFFFEEA6AFCB0BBB
:108FB0002ECF1233D01231CA1131EBA3AFFEFEFD1A
:108FC000FEFFFDFFFFFFFFFFFFFEFEFEFEFEFEFFBA
:108FD000FFFFFFFFFFFEFEFEFEFEFEFBFBFBEBEBDB
:108FE000EBF9F9F9FEFEFEFEFEFEFEFEFEFDFDFDC6
:108FF000FEFEFEF7F7F7E9E9E9F7F7F7FEFEFEFEFA
:10900000FEFEFDFDFDFCFCFCFEFEFEFFFFFFFEFE86
:10901000FEFDFDFDFCFCFCFEFEFEFDFDFDFDFDFD7F
:10902000FEFEFEFBFBFBFEFEFEFDFDFDFDFDFDFC71
:10903000FCFCFEFEFEFCFCFCFDFDFDFEFEFEFEFE5D
:10904000FEFDFDFDEEEEEEE8E8E8FDFDFDFDFDFDBB
:10905000FDFDFDFAFAFAFEFEFEFEFEFEFCFCFCFD46
:10906000FDFDFDFDFDFCFCFCFEFEFEFAFAFAFEFE37
:10907000FEFEFEFEFEFEFEFCFCFCE9E9E9F4F4F473
:10908000FCFCFCFCFCFCFDFDFDFEFEFEFDFDFDFE12
:10909000FEFEFEFEFEFEFEFEFFFFFFFFFFFFFFFFE8
:1090A000FFFFFFFFFFFFFFFFFFFFFFFFFFFFFFFFD0
:1090B000FFFFFFFFFFFFFFFFFFFFFFFFFFFFFFFFC0
:1090C000FFFFFFFFFFFFFFFFFFFFFFFFFFFFFFFFB0
:1090D000FFFFFFFFFFFFFFFFFFFFFFFFFFFFFFFFA0
:1090E000FFFFFFFFFFFFFFFFFFFFFFFFFFFFFFFF90
:1090F000FFFFFFFFFFFFFFFFFFFFFFFFFFFFFFFF80
:10910000FFFFFFFFFFFFFFFFFFFFFFFFFFFFFFFF6F
:10911000FFFFFFFFFFFFFFFFFFFFFFFFFFFFFFFF5F
:10912000FFFFFFFFFFFFFFFFFFFFFFFFFFFFFFFF4F
:10913000FFFFFFFFFFFFFFFFFFFFFFFFFFFFFFFF3F
:10914000FFFFFFFFFFFFFFFFFFFFFFFFFFFFFFFF2F
:10915000FFFFFFFFFFFFFFFFFFFFFFACACAC000016
:1091600000000000000000000000000000141414C3
:10917000A9A9A9FFFFFFFFFFFFFFFFFFFFFFFFFF01
:10918000FFFFFFFFFFFFFFFFFFFFFFFEFEFEFFFFF2
:10919000FFFFFFFFFFFFFFEAEAEA0E0E0E000000EE
:1091A000000000000000000000343434EEEEEEFE5B
:1091B000FEFEFEFEFEFFFFFFFFFFFFFFFFFFFFFFC4
:1091C000FFFFFFFFFFFFFFFFFFFFFEFEFEA1A1A1CC
:1091D0000000000000000000000000000B0B0BB0BE
:1091E000B0B0FEFEFEFFFFFFFFFFFFFEFEFEFEFE35
:1091F000FEFEFEFEFDFDFDFDFDFDFEFEFEEEEEEEC5
:109200009191913B3B3B05050500000001010100E8
:10921000000000000000000000000000000000004E
:10922000000000000000000303033A3A3AA6A6A695
:10923000F6F6F6FDFDFDFEFEFEFFFFFFFEFEFEFE66
:10924000FEFEFCFCFC2222220000000000000000C8
:1092500000000000404040E2E2E2FEFEFEFFFFFFB1
:10926000FFFFFFFFFFFFFFFFFFFFFFFFFFFFFFFF0E
:10927000FFFFFEFEFEFEFEFEFEFEFEFEFEFEB6B69C
:10928000B600000000000001010100000000000025
:10929000444444EEEEEEFEFEFEF8F8F84F4F4F0069
:1092A00000000101010000000000000101019D9D7E
:1092B0009DF5F5F5F7F7F7F6F6F6F5F5F5F5F5F5AD
:1092C000F6F6F6F6F6F6F6F6F6F6F6F6F6F6F6F63E
:1092D000F6F6F6F6F6F6F6F6F5F5F5F6F6F6F6F631
:1092E000F6F6F6F6F6F6F6F4F4F4FBFBFBFEFEFEFD
:1092F000FEFEFEFDFDFDFEFEFEFEFEFEFEFEFEA9E6
:10930000A9A91414140000000000000000000101CD
:1093100001949494FEFEFEFDFDFDFEFEFEFEFEFEAB
:10932000FEFEFEFFFFFFFFFFFFFEFEFEFFFFFFFE54
:10933000FEFEFEFEFEFEFEFEFEFEFEFEFEFEFEFE4D
:10934000FEFEFEFEFFFFFFFFFFFFFFFFFFFFFFFF31
:10935000FFFFFFFFFFFFFFFFFFFFFFFDFEFEFFFD23
:10936000FDFFFDFFFFFEFFFFEEA6AFCB0B2ECF12E2
:1093700033D01231CA1131EBA3AFFEFEFDFEFFFD6B
:10938000FFFFFFFFFFFFFEFEFEFEFEFEFFFFFFFFF3
:10939000FFFFFEFEFEFEFEFEFDFDFDFEFEFEFEFEEE
:1093A000FEFDFDFDFEFEFEFEFEFEFEFEFEFFFFFFDD
:1093B000FDFDFDFEFEFEFFFFFFFDFDFDFEFEFEFED0
:1093C000FEFEFDFDFDFEFEFEFEFEFEFEFEFEFEFEC0
:1093D000FEFEFEFEFCFCFCFEFEFEFEFEFEFEFEFEB3
:1093E000FEFEFEFEFEFEFEFEFEFEFEFEFFFFFFFE9A
:1093F000FEFEFEFEFEFDFDFDFEFEFEFEFEFEFEFE90
:10940000FEFDFDFDFEFEFEFFFFFFFEFEFEFEFEFE7C
:10941000FEFEFEFEFEFEFEFEFEFFFFFFFDFDFDFE6C
:10942000FEFEFDFDFDFEFEFEFEFEFEFFFFFFFFFF5A
:10943000FFFEFEFEFEFEFEFEFEFEFEFEFEFFFFFF48
:10944000FEFEFEFEFEFEFEFEFEFDFDFDFEFEFEFE3F
:10945000FEFEFEFEFEFFFFFFFFFFFFFFFFFFFFFF21
:10946000FFFFFFFFFFFFFFFFFFFFFFFFFFFFFFFF0C
:10947000FFFFFFFFFFFFFFFFFFFFFFFFFFFFFFFFFC
:10948000FFFFFFFFFFFFFFFFFFFFFFFFFFFFFFFFEC
:10949000FFFFFFFFFFFFFFFFFFFFFFFFFFFFFFFFDC
:1094A000FFFFFFFFFFFFFFFFFFFFFFFFFFFFFFFFCC
:1094B000FFFFFFFFFFFFFFFFFFFFFFFFFFFFFFFFBC
:1094C000FFFFFFFFFFFFFFFFFFFFFFFFFFFFFFFFAC
:1094D000FFFFFFFFFFFFFFFFFFFFFFFFFFFFFFFF9C
:1094E000FFFFFFFFFFFFFFFFFFFFFFFFFFFFFFFF8C
:1094F000FFFFFFFFFFFFFFFFFFFFFFFFFFFFFFFF7C
:10950000FFFFFFFFFFFFFFFFFFFFFFFFFFFFFFFF6B
:10951000FFFFFFFFFFFFFFFFACACAC00000000004F
:1095200000000000000000000000141414A9A9A904
:10953000FFFFFFFFFFFFFFFFFFFFFFFFFFFFFFFF3B
:10954000FFFFFFFFFFFFFFFFFEFEFEFFFFFFFFFF2E
:10955000FFFFFFFFEAEAEA0E0E0E00000000000027
:10956000000000000000353535EDEDEDFFFFFFFF99
:10957000FFFFFFFFFFFFFFFFFFFFFFFFFFFFFFFFFB
:10958000FFFFFFFFFFFFFFFFFFFFA1A1A100000002
:109590000000000000000000000B0B0BB0B0B0FE9C
:1095A000FEFEFFFFFFFFFFFFFFFFFFFCFCFCFEFED8
:1095B000FEFDFDFDFDFDFDFEFEFEFDFDFDF6F6F6EC
:1095C000DADADA9D9D9D4D4D4D101010010101001C
:1095D0000000000000010101000000000000000088
:1095E000000000000000000000001C1C1C9999995C
:1095F000FAFAFAFEFEFEFFFFFFFEFEFEFEFEFEFC96
:10960000FCFC2222220000000000000000000000FC
:1096100000404040E2E2E2FFFFFFFFFFFFFFFFFFED
:10962000FFFFFFFFFFFFFFFFFFFFFFFFFFFFFFFE4B
:10963000FEFEFEFEFEFEFEFEFEFEFEBDBDBD010107
:10964000010000000101010000000202024C4C4C2C
:10965000F3F3F3FFFFFFF8F8F84F4F4F010101005C
:109660000000000000000000000000959595FEFE3F
:10967000FEFEFEFEFFFFFFFDFDFDFFFFFFFFFFFF04
:10968000FFFFFFFFFFFFFFFFFFFFFFFFFFFFFFFEEB
:10969000FEFEFDFDFDFEFEFEFEFEFEFEFEFEFDFDEF
:1096A000FDFEFEFEFEFEFEFEFEFEFEFEFEFEFEFEDB
:1096B000FDFDFDFEFEFEFEFEFEFEFEFEA9A9A914B6
:1096C0001414000000000000000000000000979744
:1096D00097FEFEFEFEFEFEFEFEFEFEFEFEFFFFFF0E
:1096E000FFFFFFFFFFFFFFFFFFFFFFFFFFFFFFFF8A
:1096F000FFFFFFFFFFFFFFFFFFFFFFFFFFFFFFFF7A
:10970000FFFFFFFFFFFFFFFFFFFFFFFFFFFFFFFF69
:10971000FFFFFFFFFFFFFFFFFDFEFEFFFDFDFFFD63
:10972000FFFFFEFFFFEEA6AFCB0B2ECF1233D01202
:1097300031CA1131EBA3AFFEFEFDFEFFFDFFFFFFBF
:10974000FFFFFFFFFFFFFFFFFFFFFFFFFFFFFFFE2A
:10975000FEFEFEFEFEFEFEFEFEFEFEFEFEFEFEFE29
:10976000FEFEFEFEFEFEFEFDFDFDFEFEFEFEFEFE1C
:10977000FEFEFEFEFEFEFEFEFEFEFEFEFEFEFEFD0A
:10978000FDFDFCFCFCFEFEFEFEFEFEFEFEFEFEFE01
:10979000FEFEFEFEFEFEFEFFFFFFFEFEFEFEFEFEE6
:1097A000FDFDFDFDFDFDFEFEFEFEFEFEFEFEFEFDE0
:1097B000FDFDFDFDFDFEFEFEFEFEFEFEFEFEFEFECE
:1097C000FEFEFEFEFFFFFFFFFFFFFFFFFFFFFFFFAD
:1097D000FFFFFFFFFFFFFDFDFDFEFEFEFDFDFDFDAA
:1097E000FDFDFEFEFEFCFCFCFDFDFDFEFEFEFEFEA4
:1097F000FEFEFEFEFEFEFEFEFEFEFFFFFFFEFEFE86
:10980000FDFDFDFEFEFEFEFEFEFEFEFEFEFEFEFE7B
:10981000FEFEFFFFFFFFFFFFFFFFFFFFFFFFFFFF5A
:10982000FFFFFFFFFFFFFFFFFFFFFFFFFFFFFFFF48
:10983000FFFFFFFFFFFFFFFFFFFFFFFFFFFFFFFF38
:10984000FFFFFFFFFFFFFFFFFFFFFFFFFFFFFFFF28
:10985000FFFFFFFFFFFFFFFFFFFFFFFFFFFFFFFF18
:10986000FFFFFFFFFFFFFFFFFFFFFFFFFFFFFFFF08
:10987000FFFFFFFFFFFFFFFFFFFFFFFFFFFFFFFFF8
:10988000FFFFFFFFFFFFFFFFFFFFFFFFFFFFFFFFE8
:10989000FFFFFFFFFFFFFFFFFFFFFFFFFFFFFFFFD8
:1098A000FFFFFFFFFFFFFFFFFFFFFFFFFFFFFFFFC8
:1098B000FFFFFFFFFFFFFFFFFFFFFFFFFFFFFFFFB8
:1098C000FFFFFFFFFFFFFFFFFFFFFFFFFFFFFFFFA8
:1098D000FFFFFFFFFFACACAC000000000000000089
:1098E00000000000000000141414A9A9A9FFFFFF44
:1098F000FFFFFFFFFFFFFFFFFFFFFFFFFFFFFFFF78
:10990000FFFFFFFFFFFEFEFEFFFFFFFFFFFFFFFF6A
:10991000FFEAEAEA0E0E0E00000000000000000060
:10992000000000353535EDEDEDFFFFFFFFFFFFFFD8
:10993000FFFFFFFFFFFFFFFFFFFFFFFFFFFFFFFF37
:10994000FFFFFFFFFFFFFFA1A1A10000000000003B
:109950000000000000000B0B0BB0B0B0FEFEFEFFDD
:10996000FFFFFFFFFFFFFFFFFEFEFEFEFEFEFEFE0F
:10997000FEFEFEFEFEFEFEFEFEFEFEFEFEFEFEFE07
:10998000FCFCFCFBFBFBDADADA8484842B2B2B0057
:1099900000000101010101010202020000000000BB
:1099A00000000000000000000000282828C6C6C6ED
:1099B000FEFEFEFFFFFFFEFEFEFEFEFEFCFCFC22A6
:1099C00022220000000000000000000000004040D3
:1099D00040E2E2E2FFFFFFFFFFFFFFFFFFFFFFFFAD
:1099E000FFFFFFFFFFFFFFFFFFFFFFFFFFFFFFFD89
:1099F000FDFDFEFEFEFEFEFEB9B9B900000000004E
:109A0000000000000000000101015F5F5FFBFBFB45
:109A1000FEFEFEF9F9F95858580101010000000155
:109A20000101000000000000737373FEFEFEFEFEE5
:109A3000FEFEFEFEFEFEFEFEFEFEFFFFFFFFFFFF40
:109A4000FFFFFFFFFFFFFFFFFFFFFFFFFEFEFEFE2A
:109A5000FEFEFEFEFEFDFDFDFEFEFEFEFEFEFDFD2B
:109A6000FDFDFDFDFEFEFEFEFEFEFEFEFEFEFEFE1A
:109A7000FCFCFCFEFEFEFEFEFEA9A9A914141400C7
:109A80000000000000000000000000979797FEFE15
:109A9000FEFEFEFEFEFEFEFEFEFEFFFFFFFFFFFFE0
:109AA000FFFFFFFFFFFFFFFFFFFFFFFFFFFFFFFFC6
:109AB000FFFFFFFFFFFFFFFFFFFFFFFFFFFFFFFFB6
:109AC000FFFFFFFFFFFFFFFFFFFFFFFFFFFFFFFFA6
:109AD000FFFFFFFFFFFDFEFEFFFDFDFFFDFFFFFEA1
:109AE000FFFFEEA6AFCB0B2ECF1233D01231CA112F
:109AF00031EBA3AFFEFEFDFEFFFDFFFFFFFFFFFF0B
:109B0000FFFFFFFFFFFFFFFFFFFFFFFFFEFEFEFE69
:109B1000FEFEFEFEFEFEFEFEFEFEFEFEFEFEFEFE65
:109B2000FEFEFEFEFEFEFEFDFDFDFEFEFEFEFEFE58
:109B3000FEFEFEFEFEFEFCFCFCFEFEFEFEFEFEFE4B
:109B4000FEFEFEFEFEFCFCFCFEFEFEFEFEFEFDFD3D
:109B5000FDFEFEFEFCFCFCFEFEFEFEFEFEFEFEFE2C
:109B6000FEFEFEFEFEFEFEFEFEFEFEFEFEFEFEFE15
:109B7000FEFEFEFEFEFEFEFEFDFDFDFCFCFCFFFF0C
:109B8000FFFFFFFFFFFFFFFFFFFFFFFFFFFFFFFFE5
:109B9000FFFFFFFDFDFDFEFEFEFCFCFCFEFEFEFEEB
:109BA000FEFEFDFDFDFEFEFEFDFDFDFEFEFEFEFEDB
:109BB000FEFDFDFDFCFCFCFEFEFEFEFEFEFEFEFECE
:109BC000FEFEFEFEFEFEFEFEFEFEFEFEFFFFFFFFB1
:109BD000FFFFFFFFFFFFFFFFFFFFFFFFFFFFFFFF95
:109BE000FFFFFFFFFFFFFFFFFFFFFFFFFFFFFFFF85
:109BF000FFFFFFFFFFFFFFFFFFFFFFFFFFFFFFFF75
:109C0000FFFFFFFFFFFFFFFFFFFFFFFFFFFFFFFF64
:109C1000FFFFFFFFFFFFFFFFFFFFFFFFFFFFFFFF54
:109C2000FFFFFFFFFFFFFFFFFFFFFFFFFFFFFFFF44
:109C3000FFFFFFFFFFFFFFFFFFFFFFFFFFFFFFFF34
:109C4000FFFFFFFFFFFFFFFFFFFFFFFFFFFFFFFF24
:109C5000FFFFFFFFFFFFFFFFFFFFFFFFFFFFFFFF14
:109C6000FFFFFFFFFFFFFFFFFFFFFFFFFFFFFFFF04
:109C7000FFFFFFFFFFFFFFFFFFFFFFFFFFFFFFFFF4
:109C8000FFFFFFFFFFFFFFFFFFFFFFFFFFFFFFFFE4
:109C9000FFFFACACAC0000000000000000000000C2
:109CA00000000000141414A9A9A9FFFFFFFFFFFF83
:109CB000FFFFFFFFFFFFFFFFFFFFFFFFFFFFFFFFB4
:109CC000FFFFFEFEFEFFFFFFFFFFFFFFFFFFEAEAD1
:109CD000EA0E0E0E00000000000000000000000070
:109CE000353535EDEDEDFFFFFFFFFFFFFFFFFFFF18
:109CF000FFFFFFFFFFFFFFFFFFFFFFFFFFFFFFFF74
:109D0000FFFFFFFFA1A1A100000000000000000074
:109D10000000000B0B0BB0B0B0FEFEFEFFFFFFFF1C
:109D2000FFFFFDFDFDFEFEFEFDFDFDFEFEFEFEFE57
:109D3000FEFEFEFEFFFFFFFEFEFEFEFEFEFFFFFF3D
:109D4000FEFEFEFEFEFEFDFDFDFAFAFAC4C4C47678
:109D500076763434340F0F0F00000000000000004E
:109D600000000000000000010101797979F6F6F6A3
:109D7000FFFFFFFEFEFEFEFEFEFCFCFC2222220098
:109D80000000000000000000000000404040E2E24F
:109D9000E2FFFFFFFFFFFFFFFFFFFFFFFFFFFFFFF0
:109DA000FFFFFFFFFFFFFFFFFFFEFEFEFFFFFFFEC7
:109DB000FEFEFEFEFEA7A7A70000000000000101B6
:109DC000010000000404047B7B7BFEFEFEFEFEFE21
:109DD000FAFAFA6F6F6F0101010000000101010042
:109DE0000000010101444444FDFDFDFDFDFDFEFEBA
:109DF000FEFEFEFEFFFFFFFFFFFFFFFFFFFFFFFF77
:109E0000FFFFFFFFFFFFFFFFFFFDFDFDFEFEFEFD6D
:109E1000FDFDFFFFFFFBFBFBFEFEFEFEFEFEFEFE6A
:109E2000FEFEFEFEFEFEFEFEFEFEFEFEFEFEFEFE52
:109E3000FEFEFEFEFEFEA9A9A914141400000000F7
:109E40000000000000000000979797FEFEFEFEFE57
:109E5000FEFEFEFEFEFEFEFFFFFFFFFFFFFFFFFF19
:109E6000FFFFFFFFFFFFFFFFFFFFFFFFFFFFFFFF02
:109E7000FFFFFFFFFFFFFFFFFFFFFFFFFFFFFFFFF2
:109E8000FFFFFFFFFFFFFFFFFFFFFFFFFFFFFFFFE2
:109E9000FFFFFDFEFEFFFDFDFFFDFFFFFEFFFFEEEE
:109EA000A6AFCB0B2ECF1233D01231CA1131EBA398
:109EB000AFFEFEFDFEFFFDFFFFFFFFFFFFFFFFFF09
:109EC000FFFFFFFFFFFFFFFFFFFFFFFFFEFEFEFDA7
:109ED000FDFDFEFEFEFDFDFDFEFEFEFEFEFEFDFDA9
:109EE000FDFEFEFEFCFCFCFEFEFEFBFBFBDADADA0E
:109EF000C3C3C3C2C2C2BFBFBFC8C8C8E3E3E3FE97
:109F0000FEFEFFFFFFFEFEFEFEFEFEFEFEFEFEFE6E
:109F1000FEFEFEFEFEFEFEFFFFFFFFFFFFFFFFFF58
:109F2000FEFEFEFEFEFEFEFEFEFEFEFEFEFEFEFE51
:109F3000FEFEFEFEFEFEFEFEFEFEFEFEFEFEFFFF3F
:109F4000FFFFFFFFFFFFFFFFFFFFFFFFFFFFFFFF21
:109F5000FEFEFEFCFCFCFEFEFEFEFEFEF8F8F8C176
:109F6000C1C1EBEBEBFEFEFEFEFEFEFEFEFEFEFEC4
:109F7000FEFEFEFEFEFEFEFEFEFEFEFEFEFEFEFE01
:109F8000FEFEFEFEFEFEFEFEFEFEFEFEFFFFFFFFED
:109F9000FFFFFFFFFFFFFFFFFFFFFFFFFFFFFFFFD1
:109FA000FFFFFFFFFFFFFFFFFFFFFFFFFFFFFFFFC1
:109FB000FFFFFFFFFFFFFFFFFFFFFFFFFFFFFFFFB1
:109FC000FFFFFFFFFFFFFFFFFFFFFFFFFFFFFFFFA1
:109FD000FFFFFFFFFFFFFFFFFFFFFFFFFFFFFFFF91
:109FE000FFFFFFFFFFFFFFFFFFFFFFFFFFFFFFFF81
:109FF000FFFFFFFFFFFFFFFFFFFFFFFFFFFFFFFF71
:10A00000FFFFFFFFFFFFFFFFFFFFFFFFFFFFFFFF60
:10A01000FFFFFFFFFFFFFFFFFFFFFFFFFFFFFFFF50
:10A02000FFFFFFFFFFFFFFFFFFFFFFFFFFFFFFFF40
:10A03000FFFFFFFFFFFFFFFFFFFFFFFFFFFFFFFF30
:10A04000FFFFFFFFFFFFFFFFFFFFFFFFFFFFFFAC73
:10A05000ACAC0000000000000000000000000000A8
:10A0600000141414A9A9A9FFFFFFFFFFFFFFFFFFC2
:10A07000FFFFFFFFFFFFFFFFFFFFFFFFFFFFFFFEF1
:10A08000FEFEFFFFFFFFFFFFFFFFFFEAEAEA0E0E03
:10A090000E00000000000000000000000035353513
:10A0A000EDEDEDFFFFFFFFFFFFFFFFFFFFFFFFFFF6
:10A0B000FFFFFFFFFFFFFFFFFFFFFFFFFFFFFFFFB0
:10A0C000FFA1A1A1000000000000000000000000AE
:10A0D0000B0B0BB0B0B0FEFEFEFFFFFFFFFFFFFE5D
:10A0E000FEFEFEFEFEFDFDFDF7F7F7E3E3E3E2E231
:10A0F000E2F1F1F1FEFEFEFEFEFEFEFEFEFEFEFEC3
:10A10000FDFDFDFEFEFEFDFDFDFEFEFEFBFBFBDE9E
:10A11000DEDE9797973B3B3B010101010101000007
:10A12000000101010000003D3D3DE8E8E8FFFFFFC0
:10A13000FEFEFEFEFEFEFCFCFC22222200000000D1
:10A140000000000000000000404040E2E2E2FFFFAB
:10A15000FFFFFFFFFFFFFFFFFFFFFFFFFFFFFFFF0F
:10A16000FFFFFFFFFFFFFEFEFEFEFEFEFDFDFDFE0C
:10A17000FEFE898989000000000000000000000048
:10A1800000070707A6A6A6FEFEFEFEFEFEFCFCFCE0
:10A190008E8E8E000000010101000000010101000F
:10A1A0000000141414E3E3E3FEFEFEFEFEFEFDFDDC
:10A1B000FDFFFFFFFFFFFFFFFFFFFFFFFFFFFFFFB1
:10A1C000FFFFFFFFFFFFFFFFFFFEFEFEFEFEFEFEA6
:10A1D000FEFEFDFDFDFEFEFEFDFDFDFEFEFEFEFEA5
:10A1E000FEFEFEFEFEFEFEFEFEFEFEFEFEFEFEFE8F
:10A1F000FEFEFEA9A9A9141414000000000000002E
:10A200000000000000979797FEFEFEFEFEFEFEFE99
:10A21000FEFEFEFEFFFFFFFFFFFFFFFFFFFFFFFF52
:10A22000FFFFFFFFFFFFFFFFFFFFFFFFFFFFFFFF3E
:10A23000FFFFFFFFFFFFFFFFFFFFFFFFFFFFFFFF2E
:10A24000FFFFFFFFFFFFFFFFFFFFFFFFFFFFFFFD20
:10A25000FEFEFFFDFDFFFDFFFFFEFFFFEEA6AFCB05
:10A260000B2ECF1233D01231CA1131EBA3AFFEFE49
